{
  "_format": "hh-sol-artifact-1",
  "contractName": "SolverDAO",
  "sourceName": "contracts/SolverDAO.sol",
  "abi": [
    {
      "inputs": [
        {
          "internalType": "address",
          "name": "_endpoint",
          "type": "address"
        },
        {
          "internalType": "address",
          "name": "_owner",
          "type": "address"
        },
        {
          "internalType": "bytes",
          "name": "Option",
          "type": "bytes"
        },
        {
          "internalType": "uint256",
          "name": "minStakeAmount",
          "type": "uint256"
        }
      ],
      "stateMutability": "nonpayable",
      "type": "constructor"
    },
    {
      "inputs": [],
      "name": "InvalidDelegate",
      "type": "error"
    },
    {
      "inputs": [],
      "name": "InvalidEndpointCall",
      "type": "error"
    },
    {
      "inputs": [],
      "name": "LzTokenUnavailable",
      "type": "error"
    },
    {
      "inputs": [
        {
          "internalType": "uint32",
          "name": "eid",
          "type": "uint32"
        }
      ],
      "name": "NoPeer",
      "type": "error"
    },
    {
      "inputs": [
        {
          "internalType": "uint256",
          "name": "msgValue",
          "type": "uint256"
        }
      ],
      "name": "NotEnoughNative",
      "type": "error"
    },
    {
      "inputs": [
        {
          "internalType": "address",
          "name": "addr",
          "type": "address"
        }
      ],
      "name": "OnlyEndpoint",
      "type": "error"
    },
    {
      "inputs": [
        {
          "internalType": "uint32",
          "name": "eid",
          "type": "uint32"
        },
        {
          "internalType": "bytes32",
          "name": "sender",
          "type": "bytes32"
        }
      ],
      "name": "OnlyPeer",
      "type": "error"
    },
    {
      "inputs": [
        {
          "internalType": "address",
          "name": "owner",
          "type": "address"
        }
      ],
      "name": "OwnableInvalidOwner",
      "type": "error"
    },
    {
      "inputs": [
        {
          "internalType": "address",
          "name": "account",
          "type": "address"
        }
      ],
      "name": "OwnableUnauthorizedAccount",
      "type": "error"
    },
    {
      "inputs": [
        {
          "internalType": "address",
          "name": "token",
          "type": "address"
        }
      ],
      "name": "SafeERC20FailedOperation",
      "type": "error"
    },
    {
      "anonymous": false,
      "inputs": [
        {
          "indexed": true,
          "internalType": "address",
          "name": "previousOwner",
          "type": "address"
        },
        {
          "indexed": true,
          "internalType": "address",
          "name": "newOwner",
          "type": "address"
        }
      ],
      "name": "OwnershipTransferred",
      "type": "event"
    },
    {
      "anonymous": false,
      "inputs": [
        {
          "indexed": false,
          "internalType": "uint32",
          "name": "eid",
          "type": "uint32"
        },
        {
          "indexed": false,
          "internalType": "bytes32",
          "name": "peer",
          "type": "bytes32"
        }
      ],
      "name": "PeerSet",
      "type": "event"
    },
    {
      "inputs": [
        {
          "components": [
            {
              "internalType": "uint32",
              "name": "srcEid",
              "type": "uint32"
            },
            {
              "internalType": "bytes32",
              "name": "sender",
              "type": "bytes32"
            },
            {
              "internalType": "uint64",
              "name": "nonce",
              "type": "uint64"
            }
          ],
          "internalType": "struct Origin",
          "name": "origin",
          "type": "tuple"
        }
      ],
      "name": "allowInitializePath",
      "outputs": [
        {
          "internalType": "bool",
          "name": "",
          "type": "bool"
        }
      ],
      "stateMutability": "view",
      "type": "function"
    },
    {
      "inputs": [],
      "name": "defaultOption",
      "outputs": [
        {
          "internalType": "bytes",
          "name": "",
          "type": "bytes"
        }
      ],
      "stateMutability": "view",
      "type": "function"
    },
    {
      "inputs": [],
      "name": "endpoint",
      "outputs": [
        {
          "internalType": "contract ILayerZeroEndpointV2",
          "name": "",
          "type": "address"
        }
      ],
      "stateMutability": "view",
      "type": "function"
    },
    {
      "inputs": [
        {
          "internalType": "bytes32",
          "name": "orderId",
          "type": "bytes32"
        },
        {
          "internalType": "bytes",
          "name": "originData",
          "type": "bytes"
        },
        {
          "internalType": "bytes",
          "name": "fillerData",
          "type": "bytes"
        }
      ],
      "name": "fill",
      "outputs": [],
      "stateMutability": "pure",
      "type": "function"
    },
    {
      "inputs": [
        {
          "internalType": "address",
          "name": "solver",
          "type": "address"
        }
      ],
      "name": "getStakedStatus",
      "outputs": [
        {
          "internalType": "bool",
          "name": "",
          "type": "bool"
        }
      ],
      "stateMutability": "view",
      "type": "function"
    },
    {
      "inputs": [
        {
          "internalType": "uint256",
          "name": "nonce",
          "type": "uint256"
        }
      ],
      "name": "getState",
      "outputs": [
        {
          "internalType": "bool",
          "name": "",
          "type": "bool"
        }
      ],
      "stateMutability": "view",
      "type": "function"
    },
    {
      "inputs": [
        {
          "components": [
            {
              "internalType": "address",
              "name": "originSettler",
              "type": "address"
            },
            {
              "internalType": "address",
              "name": "user",
              "type": "address"
            },
            {
              "internalType": "uint256",
              "name": "nonce",
              "type": "uint256"
            },
            {
              "internalType": "uint256",
              "name": "originChainId",
              "type": "uint256"
            },
            {
              "internalType": "uint32",
              "name": "openDeadline",
              "type": "uint32"
            },
            {
              "internalType": "uint32",
              "name": "fillDeadline",
              "type": "uint32"
            },
            {
              "internalType": "uint256",
              "name": "orderDataType",
              "type": "uint256"
            },
            {
              "internalType": "address",
              "name": "destinationChain",
              "type": "address"
            },
            {
              "internalType": "address",
              "name": "SourceToken",
              "type": "address"
            },
            {
              "internalType": "address",
              "name": "DestinationToken",
              "type": "address"
            },
            {
              "internalType": "uint256",
              "name": "tokenAmount",
              "type": "uint256"
            },
            {
              "internalType": "uint256",
              "name": "destinationTokenAmount",
              "type": "uint256"
            },
            {
              "internalType": "uint32",
              "name": "destinationChainId",
              "type": "uint32"
            },
            {
              "internalType": "bool",
              "name": "isVerifyMessage",
              "type": "bool"
            }
          ],
          "internalType": "struct ERC7683.GaslessCrossChainOrder",
          "name": "order",
          "type": "tuple"
        },
        {
          "internalType": "bytes",
          "name": "fillerData",
          "type": "bytes"
        }
      ],
      "name": "initiate",
      "outputs": [],
      "stateMutability": "pure",
      "type": "function"
    },
    {
      "inputs": [],
      "name": "intentCount",
      "outputs": [
        {
          "internalType": "uint256",
          "name": "",
          "type": "uint256"
        }
      ],
      "stateMutability": "view",
      "type": "function"
    },
    {
      "inputs": [
        {
          "components": [
            {
              "internalType": "uint32",
              "name": "srcEid",
              "type": "uint32"
            },
            {
              "internalType": "bytes32",
              "name": "sender",
              "type": "bytes32"
            },
            {
              "internalType": "uint64",
              "name": "nonce",
              "type": "uint64"
            }
          ],
          "internalType": "struct Origin",
          "name": "",
          "type": "tuple"
        },
        {
          "internalType": "bytes",
          "name": "",
          "type": "bytes"
        },
        {
          "internalType": "address",
          "name": "_sender",
          "type": "address"
        }
      ],
      "name": "isComposeMsgSender",
      "outputs": [
        {
          "internalType": "bool",
          "name": "",
          "type": "bool"
        }
      ],
      "stateMutability": "view",
      "type": "function"
    },
    {
      "inputs": [
        {
          "components": [
            {
              "internalType": "uint32",
              "name": "srcEid",
              "type": "uint32"
            },
            {
              "internalType": "bytes32",
              "name": "sender",
              "type": "bytes32"
            },
            {
              "internalType": "uint64",
              "name": "nonce",
              "type": "uint64"
            }
          ],
          "internalType": "struct Origin",
          "name": "_origin",
          "type": "tuple"
        },
        {
          "internalType": "bytes32",
          "name": "_guid",
          "type": "bytes32"
        },
        {
          "internalType": "bytes",
          "name": "_message",
          "type": "bytes"
        },
        {
          "internalType": "address",
          "name": "_executor",
          "type": "address"
        },
        {
          "internalType": "bytes",
          "name": "_extraData",
          "type": "bytes"
        }
      ],
      "name": "lzReceive",
      "outputs": [],
      "stateMutability": "payable",
      "type": "function"
    },
    {
      "inputs": [],
      "name": "minStakeAmountval",
      "outputs": [
        {
          "internalType": "uint256",
          "name": "",
          "type": "uint256"
        }
      ],
      "stateMutability": "view",
      "type": "function"
    },
    {
      "inputs": [
        {
          "internalType": "uint32",
          "name": "",
          "type": "uint32"
        },
        {
          "internalType": "bytes32",
          "name": "",
          "type": "bytes32"
        }
      ],
      "name": "nextNonce",
      "outputs": [
        {
          "internalType": "uint64",
          "name": "nonce",
          "type": "uint64"
        }
      ],
      "stateMutability": "view",
      "type": "function"
    },
    {
      "inputs": [],
      "name": "oAppVersion",
      "outputs": [
        {
          "internalType": "uint64",
          "name": "senderVersion",
          "type": "uint64"
        },
        {
          "internalType": "uint64",
          "name": "receiverVersion",
          "type": "uint64"
        }
      ],
      "stateMutability": "pure",
      "type": "function"
    },
    {
      "inputs": [],
      "name": "owner",
      "outputs": [
        {
          "internalType": "address",
          "name": "",
          "type": "address"
        }
      ],
      "stateMutability": "view",
      "type": "function"
    },
    {
      "inputs": [
        {
          "internalType": "uint32",
          "name": "eid",
          "type": "uint32"
        }
      ],
      "name": "peers",
      "outputs": [
        {
          "internalType": "bytes32",
          "name": "peer",
          "type": "bytes32"
        }
      ],
      "stateMutability": "view",
      "type": "function"
    },
    {
      "inputs": [
        {
          "components": [
            {
              "internalType": "address",
              "name": "originSettler",
              "type": "address"
            },
            {
              "internalType": "address",
              "name": "user",
              "type": "address"
            },
            {
              "internalType": "uint256",
              "name": "nonce",
              "type": "uint256"
            },
            {
              "internalType": "uint256",
              "name": "originChainId",
              "type": "uint256"
            },
            {
              "internalType": "uint32",
              "name": "openDeadline",
              "type": "uint32"
            },
            {
              "internalType": "uint32",
              "name": "fillDeadline",
              "type": "uint32"
            },
            {
              "internalType": "uint256",
              "name": "orderDataType",
              "type": "uint256"
            },
            {
              "internalType": "address",
              "name": "destinationChain",
              "type": "address"
            },
            {
              "internalType": "address",
              "name": "SourceToken",
              "type": "address"
            },
            {
              "internalType": "address",
              "name": "DestinationToken",
              "type": "address"
            },
            {
              "internalType": "uint256",
              "name": "tokenAmount",
              "type": "uint256"
            },
            {
              "internalType": "uint256",
              "name": "destinationTokenAmount",
              "type": "uint256"
            },
            {
              "internalType": "uint32",
              "name": "destinationChainId",
              "type": "uint32"
            },
            {
              "internalType": "bool",
              "name": "isVerifyMessage",
              "type": "bool"
            }
          ],
          "internalType": "struct ERC7683.GaslessCrossChainOrder",
          "name": "order",
          "type": "tuple"
        },
        {
          "internalType": "address",
          "name": "filler",
          "type": "address"
        },
        {
          "internalType": "bytes",
          "name": "solution",
          "type": "bytes"
        }
      ],
      "name": "postSolution",
      "outputs": [],
      "stateMutability": "payable",
      "type": "function"
    },
    {
      "inputs": [
        {
          "internalType": "uint32",
          "name": "_dstEid",
          "type": "uint32"
        },
        {
          "internalType": "string",
          "name": "_message",
          "type": "string"
        },
        {
          "internalType": "bool",
          "name": "_payInLzToken",
          "type": "bool"
        }
      ],
      "name": "quote",
      "outputs": [
        {
          "internalType": "uint256",
          "name": "nativeFee",
          "type": "uint256"
        },
        {
          "internalType": "uint256",
          "name": "lzTokenFee",
          "type": "uint256"
        }
      ],
      "stateMutability": "view",
      "type": "function"
    },
    {
      "inputs": [],
      "name": "renounceOwnership",
      "outputs": [],
      "stateMutability": "nonpayable",
      "type": "function"
    },
    {
      "inputs": [
        {
          "internalType": "address",
          "name": "_delegate",
          "type": "address"
        }
      ],
      "name": "setDelegate",
      "outputs": [],
      "stateMutability": "nonpayable",
      "type": "function"
    },
    {
      "inputs": [
        {
          "internalType": "uint32",
          "name": "_eid",
          "type": "uint32"
        },
        {
          "internalType": "bytes32",
          "name": "_peer",
          "type": "bytes32"
        }
      ],
      "name": "setPeer",
      "outputs": [],
      "stateMutability": "nonpayable",
      "type": "function"
    },
    {
      "inputs": [
        {
          "internalType": "uint32",
          "name": "_eid",
          "type": "uint32"
        },
        {
          "internalType": "address",
          "name": "_peer",
          "type": "address"
        }
      ],
      "name": "setPeerWithAddress",
      "outputs": [],
      "stateMutability": "nonpayable",
      "type": "function"
    },
    {
      "inputs": [
        {
          "internalType": "address",
          "name": "",
          "type": "address"
        }
      ],
      "name": "solvers",
      "outputs": [
        {
          "internalType": "uint256",
          "name": "stakedAmount",
          "type": "uint256"
        },
        {
          "internalType": "bool",
          "name": "isActive",
          "type": "bool"
        },
        {
          "internalType": "uint256",
          "name": "reputation",
          "type": "uint256"
        }
      ],
      "stateMutability": "view",
      "type": "function"
    },
    {
      "inputs": [],
      "name": "stake",
      "outputs": [],
      "stateMutability": "payable",
      "type": "function"
    },
    {
      "inputs": [
        {
          "internalType": "address",
          "name": "newOwner",
          "type": "address"
        }
      ],
      "name": "transferOwnership",
      "outputs": [],
      "stateMutability": "nonpayable",
      "type": "function"
    }
  ],
  "bytecode": "0x60a060405234801562000010575f80fd5b5060405162002ffa38038062002ffa8339818101604052810190620000369190620004cc565b83838181865f73ffffffffffffffffffffffffffffffffffffffff168173ffffffffffffffffffffffffffffffffffffffff1603620000ae575f6040517f1e4fbdf7000000000000000000000000000000000000000000000000000000008152600401620000a591906200056b565b60405180910390fd5b620000bf81620001ed60201b60201c565b508173ffffffffffffffffffffffffffffffffffffffff1660808173ffffffffffffffffffffffffffffffffffffffff16815250505f73ffffffffffffffffffffffffffffffffffffffff168173ffffffffffffffffffffffffffffffffffffffff16036200015a576040517fb586360400000000000000000000000000000000000000000000000000000000815260040160405180910390fd5b60805173ffffffffffffffffffffffffffffffffffffffff1663ca5eb5e1826040518263ffffffff1660e01b81526004016200019791906200056b565b5f604051808303815f87803b158015620001af575f80fd5b505af1158015620001c2573d5f803e3d5ffd5b50505050505050508160029081620001db9190620007b4565b50806006819055505050505062000898565b5f805f9054906101000a900473ffffffffffffffffffffffffffffffffffffffff169050815f806101000a81548173ffffffffffffffffffffffffffffffffffffffff021916908373ffffffffffffffffffffffffffffffffffffffff1602179055508173ffffffffffffffffffffffffffffffffffffffff168173ffffffffffffffffffffffffffffffffffffffff167f8be0079c531659141344cd1fd0a4f28419497f9722a3daafe3b4186f6b6457e060405160405180910390a35050565b5f604051905090565b5f80fd5b5f80fd5b5f73ffffffffffffffffffffffffffffffffffffffff82169050919050565b5f620002ea82620002bf565b9050919050565b620002fc81620002de565b811462000307575f80fd5b50565b5f815190506200031a81620002f1565b92915050565b5f80fd5b5f80fd5b5f601f19601f8301169050919050565b7f4e487b71000000000000000000000000000000000000000000000000000000005f52604160045260245ffd5b620003708262000328565b810181811067ffffffffffffffff8211171562000392576200039162000338565b5b80604052505050565b5f620003a6620002ae565b9050620003b4828262000365565b919050565b5f67ffffffffffffffff821115620003d657620003d562000338565b5b620003e18262000328565b9050602081019050919050565b5f5b838110156200040d578082015181840152602081019050620003f0565b5f8484015250505050565b5f6200042e6200042884620003b9565b6200039b565b9050828152602081018484840111156200044d576200044c62000324565b5b6200045a848285620003ee565b509392505050565b5f82601f83011262000479576200047862000320565b5b81516200048b84826020860162000418565b91505092915050565b5f819050919050565b620004a88162000494565b8114620004b3575f80fd5b50565b5f81519050620004c6816200049d565b92915050565b5f805f8060808587031215620004e757620004e6620002b7565b5b5f620004f6878288016200030a565b945050602062000509878288016200030a565b935050604085015167ffffffffffffffff8111156200052d576200052c620002bb565b5b6200053b8782880162000462565b92505060606200054e87828801620004b6565b91505092959194509250565b6200056581620002de565b82525050565b5f602082019050620005805f8301846200055a565b92915050565b5f81519050919050565b7f4e487b71000000000000000000000000000000000000000000000000000000005f52602260045260245ffd5b5f6002820490506001821680620005d557607f821691505b602082108103620005eb57620005ea62000590565b5b50919050565b5f819050815f5260205f209050919050565b5f6020601f8301049050919050565b5f82821b905092915050565b5f600883026200064f7fffffffffffffffffffffffffffffffffffffffffffffffffffffffffffffffff8262000612565b6200065b868362000612565b95508019841693508086168417925050509392505050565b5f819050919050565b5f6200069c62000696620006908462000494565b62000673565b62000494565b9050919050565b5f819050919050565b620006b7836200067c565b620006cf620006c682620006a3565b8484546200061e565b825550505050565b5f90565b620006e5620006d7565b620006f2818484620006ac565b505050565b5b8181101562000719576200070d5f82620006db565b600181019050620006f8565b5050565b601f82111562000768576200073281620005f1565b6200073d8462000603565b810160208510156200074d578190505b620007656200075c8562000603565b830182620006f7565b50505b505050565b5f82821c905092915050565b5f6200078a5f19846008026200076d565b1980831691505092915050565b5f620007a4838362000779565b9150826002028217905092915050565b620007bf8262000586565b67ffffffffffffffff811115620007db57620007da62000338565b5b620007e78254620005bd565b620007f48282856200071d565b5f60209050601f8311600181146200082a575f841562000815578287015190505b62000821858262000797565b86555062000890565b601f1984166200083a86620005f1565b5f5b8281101562000863578489015182556001820191506020850194506020810190506200083c565b868310156200088357848901516200087f601f89168262000779565b8355505b6001600288020188555050505b505050505050565b60805161271f620008db5f395f81816105950152818161086701528181610b7c0152818161101f0152818161110c0152818161123a0152611332015261271f5ff3fe60806040526004361061014a575f3560e01c80637d25a05e116100b5578063bb0b6a531161006e578063bb0b6a5314610449578063bcf6954114610485578063ca5eb5e1146104ad578063f2fde38b146104d5578063fbea2e91146104fd578063ff7bd03d1461053a5761014a565b80637d25a05e1461033957806382413eac1461037557806382e2c43f146103b15780638da5cb5b146103d95780638e828fe01461040357806399bba38b1461042d5761014a565b80633a4b66f1116101075780633a4b66f11461024b57806344c9af281461025557806357f58d98146102915780635e280f11146102cf578063715018a6146102f957806372d713221461030f5761014a565b80630cdf90081461014e57806313137d651461017857806317442b70146101945780631a8766c6146101bf5780633400288b146101fb5780633478876014610223575b5f80fd5b348015610159575f80fd5b50610162610576565b60405161016f91906114fc565b60405180910390f35b610192600480360381019061018d9190611636565b61057c565b005b34801561019f575f80fd5b506101a861069c565b6040516101b692919061170f565b60405180910390f35b3480156101ca575f80fd5b506101e560048036038101906101e09190611736565b6106aa565b6040516101f2919061177b565b60405180910390f35b348015610206575f80fd5b50610221600480360381019061021c91906117cd565b6106ff565b005b34801561022e575f80fd5b5061024960048036038101906102449190611ae6565b610715565b005b610253610719565b005b348015610260575f80fd5b5061027b60048036038101906102769190611b42565b61080d565b604051610288919061177b565b60405180910390f35b34801561029c575f80fd5b506102b760048036038101906102b29190611736565b610833565b6040516102c693929190611b6d565b60405180910390f35b3480156102da575f80fd5b506102e3610865565b6040516102f09190611bfd565b60405180910390f35b348015610304575f80fd5b5061030d610889565b005b34801561031a575f80fd5b5061032361089c565b6040516103309190611c90565b60405180910390f35b348015610344575f80fd5b5061035f600480360381019061035a91906117cd565b610928565b60405161036c9190611cb0565b60405180910390f35b348015610380575f80fd5b5061039b60048036038101906103969190611cc9565b61092f565b6040516103a8919061177b565b60405180910390f35b3480156103bc575f80fd5b506103d760048036038101906103d29190611d3a565b610969565b005b3480156103e4575f80fd5b506103ed610970565b6040516103fa9190611dda565b60405180910390f35b34801561040e575f80fd5b50610417610997565b60405161042491906114fc565b60405180910390f35b61044760048036038101906104429190611df3565b61099d565b005b348015610454575f80fd5b5061046f600480360381019061046a9190611e62565b610b2a565b60405161047c9190611e9c565b60405180910390f35b348015610490575f80fd5b506104ab60048036038101906104a69190611eb5565b610b3f565b005b3480156104b8575f80fd5b506104d360048036038101906104ce9190611736565b610b72565b005b3480156104e0575f80fd5b506104fb60048036038101906104f69190611736565b610c03565b005b348015610508575f80fd5b50610523600480360381019061051e9190611f91565b610c87565b604051610531929190611ffd565b60405180910390f35b348015610545575f80fd5b50610560600480360381019061055b9190612024565b610d5a565b60405161056d919061177b565b60405180910390f35b60055481565b3373ffffffffffffffffffffffffffffffffffffffff167f000000000000000000000000000000000000000000000000000000000000000073ffffffffffffffffffffffffffffffffffffffff161461060c57336040517f91ac5e4f0000000000000000000000000000000000000000000000000000000081526004016106039190611dda565b60405180910390fd5b866020013561062b885f0160208101906106269190611e62565b610d97565b1461068457865f0160208101906106429190611e62565b87602001356040517fc26bebcc00000000000000000000000000000000000000000000000000000000815260040161067b92919061205e565b60405180910390fd5b61069387878787878787610e08565b50505050505050565b5f8060016002915091509091565b5f60035f8373ffffffffffffffffffffffffffffffffffffffff1673ffffffffffffffffffffffffffffffffffffffff1681526020019081526020015f206001015f9054906101000a900460ff169050919050565b610707610e11565b6107118282610e98565b5050565b5050565b60065434101561075e576040517f08c379a0000000000000000000000000000000000000000000000000000000008152600401610755906120df565b60405180910390fd5b3460035f3373ffffffffffffffffffffffffffffffffffffffff1673ffffffffffffffffffffffffffffffffffffffff1681526020019081526020015f205f015f8282546107ac919061212a565b92505081905550600160035f3373ffffffffffffffffffffffffffffffffffffffff1673ffffffffffffffffffffffffffffffffffffffff1681526020019081526020015f206001015f6101000a81548160ff021916908315150217905550565b5f60045f8381526020019081526020015f205f9054906101000a900460ff169050919050565b6003602052805f5260405f205f91509050805f015490806001015f9054906101000a900460ff16908060020154905083565b7f000000000000000000000000000000000000000000000000000000000000000081565b610891610e11565b61089a5f610ef7565b565b600280546108a99061218a565b80601f01602080910402602001604051908101604052809291908181526020018280546108d59061218a565b80156109205780601f106108f757610100808354040283529160200191610920565b820191905f5260205f20905b81548152906001019060200180831161090357829003601f168201915b505050505081565b5f92915050565b5f3073ffffffffffffffffffffffffffffffffffffffff168273ffffffffffffffffffffffffffffffffffffffff16149050949350505050565b5050505050565b5f805f9054906101000a900473ffffffffffffffffffffffffffffffffffffffff16905090565b60065481565b5f151560035f3373ffffffffffffffffffffffffffffffffffffffff1673ffffffffffffffffffffffffffffffffffffffff1681526020019081526020015f206001015f9054906101000a900460ff16151503610a2f576040517f08c379a0000000000000000000000000000000000000000000000000000000008152600401610a2690612204565b60405180910390fd5b610a3d836040015182610fb8565b506001836101a00190151590811515815250505f8383604051602001610a6492919061237c565b6040516020818303038152906040529050610b238461018001518260028054610a8c9061218a565b80601f0160208091040260200160405190810160405280929190818152602001828054610ab89061218a565b8015610b035780601f10610ada57610100808354040283529160200191610b03565b820191905f5260205f20905b815481529060010190602001808311610ae657829003601f168201915b505050505060405180604001604052803481526020015f81525033610fec565b5050505050565b6001602052805f5260405f205f915090505481565b610b47610e11565b5f8173ffffffffffffffffffffffffffffffffffffffff165f1b9050610b6d8382610e98565b505050565b610b7a610e11565b7f000000000000000000000000000000000000000000000000000000000000000073ffffffffffffffffffffffffffffffffffffffff1663ca5eb5e1826040518263ffffffff1660e01b8152600401610bd39190611dda565b5f604051808303815f87803b158015610bea575f80fd5b505af1158015610bfc573d5f803e3d5ffd5b5050505050565b610c0b610e11565b5f73ffffffffffffffffffffffffffffffffffffffff168173ffffffffffffffffffffffffffffffffffffffff1603610c7b575f6040517f1e4fbdf7000000000000000000000000000000000000000000000000000000008152600401610c729190611dda565b60405180910390fd5b610c8481610ef7565b50565b5f805f84604051602001610c9b91906123e7565b60405160208183030381529060405290505f610d41878360028054610cbf9061218a565b80601f0160208091040260200160405190810160405280929190818152602001828054610ceb9061218a565b8015610d365780601f10610d0d57610100808354040283529160200191610d36565b820191905f5260205f20905b815481529060010190602001808311610d1957829003601f168201915b505050505088611102565b9050805f01518160200151935093505050935093915050565b5f816020013560015f845f016020810190610d759190611e62565b63ffffffff1663ffffffff1681526020019081526020015f2054149050919050565b5f8060015f8463ffffffff1663ffffffff1681526020019081526020015f205490505f801b8103610dff57826040517ff6ff4fb7000000000000000000000000000000000000000000000000000000008152600401610df69190612407565b60405180910390fd5b80915050919050565b50505050505050565b610e196111e3565b73ffffffffffffffffffffffffffffffffffffffff16610e37610970565b73ffffffffffffffffffffffffffffffffffffffff1614610e9657610e5a6111e3565b6040517f118cdaa7000000000000000000000000000000000000000000000000000000008152600401610e8d9190611dda565b60405180910390fd5b565b8060015f8463ffffffff1663ffffffff1681526020019081526020015f20819055507f238399d427b947898edb290f5ff0f9109849b1c3ba196a42e35f00c50a54b98b8282604051610eeb92919061205e565b60405180910390a15050565b5f805f9054906101000a900473ffffffffffffffffffffffffffffffffffffffff169050815f806101000a81548173ffffffffffffffffffffffffffffffffffffffff021916908373ffffffffffffffffffffffffffffffffffffffff1602179055508173ffffffffffffffffffffffffffffffffffffffff168173ffffffffffffffffffffffffffffffffffffffff167f8be0079c531659141344cd1fd0a4f28419497f9722a3daafe3b4186f6b6457e060405160405180910390a35050565b5f600160045f8581526020019081526020015f205f6101000a81548160ff0219169083151502179055506001905092915050565b610ff461149a565b5f611001845f01516111ea565b90505f8460200151111561101d5761101c8460200151611237565b5b7f000000000000000000000000000000000000000000000000000000000000000073ffffffffffffffffffffffffffffffffffffffff16632637a450826040518060a001604052808b63ffffffff16815260200161107a8c610d97565b81526020018a81526020018981526020015f8960200151111515815250866040518463ffffffff1660e01b81526004016110b59291906124f1565b60806040518083038185885af11580156110d1573d5f803e3d5ffd5b50505050506040513d601f19601f820116820180604052508101906110f6919061261f565b91505095945050505050565b61110a6114cc565b7f000000000000000000000000000000000000000000000000000000000000000073ffffffffffffffffffffffffffffffffffffffff1663ddc28c586040518060a001604052808863ffffffff16815260200161116689610d97565b8152602001878152602001868152602001851515815250306040518363ffffffff1660e01b815260040161119b9291906124f1565b6040805180830381865afa1580156111b5573d5f803e3d5ffd5b505050506040513d601f19601f820116820180604052508101906111d9919061264a565b9050949350505050565b5f33905090565b5f81341461122f57346040517f9f70412000000000000000000000000000000000000000000000000000000000815260040161122691906114fc565b60405180910390fd5b819050919050565b5f7f000000000000000000000000000000000000000000000000000000000000000073ffffffffffffffffffffffffffffffffffffffff1663e4fe1d946040518163ffffffff1660e01b8152600401602060405180830381865afa1580156112a1573d5f803e3d5ffd5b505050506040513d601f19601f820116820180604052508101906112c59190612689565b90505f73ffffffffffffffffffffffffffffffffffffffff168173ffffffffffffffffffffffffffffffffffffffff160361132c576040517f5373352a00000000000000000000000000000000000000000000000000000000815260040160405180910390fd5b611379337f0000000000000000000000000000000000000000000000000000000000000000848473ffffffffffffffffffffffffffffffffffffffff1661137d909392919063ffffffff16565b5050565b6113f9848573ffffffffffffffffffffffffffffffffffffffff166323b872dd8686866040516024016113b2939291906126b4565b604051602081830303815290604052915060e01b6020820180517bffffffffffffffffffffffffffffffffffffffffffffffffffffffff83818316178352505050506113ff565b50505050565b5f8060205f8451602086015f885af18061141e576040513d5f823e3d81fd5b3d92505f519150505f8214611437576001811415611452565b5f8473ffffffffffffffffffffffffffffffffffffffff163b145b1561149457836040517f5274afe700000000000000000000000000000000000000000000000000000000815260040161148b9190611dda565b60405180910390fd5b50505050565b60405180606001604052805f80191681526020015f67ffffffffffffffff1681526020016114c66114cc565b81525090565b60405180604001604052805f81526020015f81525090565b5f819050919050565b6114f6816114e4565b82525050565b5f60208201905061150f5f8301846114ed565b92915050565b5f604051905090565b5f80fd5b5f80fd5b5f80fd5b5f6060828403121561153f5761153e611526565b5b81905092915050565b5f819050919050565b61155a81611548565b8114611564575f80fd5b50565b5f8135905061157581611551565b92915050565b5f80fd5b5f80fd5b5f80fd5b5f8083601f84011261159c5761159b61157b565b5b8235905067ffffffffffffffff8111156115b9576115b861157f565b5b6020830191508360018202830111156115d5576115d4611583565b5b9250929050565b5f73ffffffffffffffffffffffffffffffffffffffff82169050919050565b5f611605826115dc565b9050919050565b611615816115fb565b811461161f575f80fd5b50565b5f813590506116308161160c565b92915050565b5f805f805f805f60e0888a0312156116515761165061151e565b5b5f61165e8a828b0161152a565b975050606061166f8a828b01611567565b965050608088013567ffffffffffffffff8111156116905761168f611522565b5b61169c8a828b01611587565b955095505060a06116af8a828b01611622565b93505060c088013567ffffffffffffffff8111156116d0576116cf611522565b5b6116dc8a828b01611587565b925092505092959891949750929550565b5f67ffffffffffffffff82169050919050565b611709816116ed565b82525050565b5f6040820190506117225f830185611700565b61172f6020830184611700565b9392505050565b5f6020828403121561174b5761174a61151e565b5b5f61175884828501611622565b91505092915050565b5f8115159050919050565b61177581611761565b82525050565b5f60208201905061178e5f83018461176c565b92915050565b5f63ffffffff82169050919050565b6117ac81611794565b81146117b6575f80fd5b50565b5f813590506117c7816117a3565b92915050565b5f80604083850312156117e3576117e261151e565b5b5f6117f0858286016117b9565b925050602061180185828601611567565b9150509250929050565b5f80fd5b5f601f19601f8301169050919050565b7f4e487b71000000000000000000000000000000000000000000000000000000005f52604160045260245ffd5b6118558261180f565b810181811067ffffffffffffffff821117156118745761187361181f565b5b80604052505050565b5f611886611515565b9050611892828261184c565b919050565b6118a0816114e4565b81146118aa575f80fd5b50565b5f813590506118bb81611897565b92915050565b6118ca81611761565b81146118d4575f80fd5b50565b5f813590506118e5816118c1565b92915050565b5f6101c082840312156119015761190061180b565b5b61190c6101c061187d565b90505f61191b84828501611622565b5f83015250602061192e84828501611622565b6020830152506040611942848285016118ad565b6040830152506060611956848285016118ad565b606083015250608061196a848285016117b9565b60808301525060a061197e848285016117b9565b60a08301525060c0611992848285016118ad565b60c08301525060e06119a684828501611622565b60e0830152506101006119bb84828501611622565b610100830152506101206119d184828501611622565b610120830152506101406119e7848285016118ad565b610140830152506101606119fd848285016118ad565b61016083015250610180611a13848285016117b9565b610180830152506101a0611a29848285016118d7565b6101a08301525092915050565b5f80fd5b5f67ffffffffffffffff821115611a5457611a5361181f565b5b611a5d8261180f565b9050602081019050919050565b828183375f83830152505050565b5f611a8a611a8584611a3a565b61187d565b905082815260208101848484011115611aa657611aa5611a36565b5b611ab1848285611a6a565b509392505050565b5f82601f830112611acd57611acc61157b565b5b8135611add848260208601611a78565b91505092915050565b5f806101e08385031215611afd57611afc61151e565b5b5f611b0a858286016118eb565b9250506101c083013567ffffffffffffffff811115611b2c57611b2b611522565b5b611b3885828601611ab9565b9150509250929050565b5f60208284031215611b5757611b5661151e565b5b5f611b64848285016118ad565b91505092915050565b5f606082019050611b805f8301866114ed565b611b8d602083018561176c565b611b9a60408301846114ed565b949350505050565b5f819050919050565b5f611bc5611bc0611bbb846115dc565b611ba2565b6115dc565b9050919050565b5f611bd682611bab565b9050919050565b5f611be782611bcc565b9050919050565b611bf781611bdd565b82525050565b5f602082019050611c105f830184611bee565b92915050565b5f81519050919050565b5f82825260208201905092915050565b5f5b83811015611c4d578082015181840152602081019050611c32565b5f8484015250505050565b5f611c6282611c16565b611c6c8185611c20565b9350611c7c818560208601611c30565b611c858161180f565b840191505092915050565b5f6020820190508181035f830152611ca88184611c58565b905092915050565b5f602082019050611cc35f830184611700565b92915050565b5f805f8060a08587031215611ce157611ce061151e565b5b5f611cee8782880161152a565b945050606085013567ffffffffffffffff811115611d0f57611d0e611522565b5b611d1b87828801611587565b93509350506080611d2e87828801611622565b91505092959194509250565b5f805f805f60608688031215611d5357611d5261151e565b5b5f611d6088828901611567565b955050602086013567ffffffffffffffff811115611d8157611d80611522565b5b611d8d88828901611587565b9450945050604086013567ffffffffffffffff811115611db057611daf611522565b5b611dbc88828901611587565b92509250509295509295909350565b611dd4816115fb565b82525050565b5f602082019050611ded5f830184611dcb565b92915050565b5f805f6102008486031215611e0b57611e0a61151e565b5b5f611e18868287016118eb565b9350506101c0611e2a86828701611622565b9250506101e084013567ffffffffffffffff811115611e4c57611e4b611522565b5b611e5886828701611ab9565b9150509250925092565b5f60208284031215611e7757611e7661151e565b5b5f611e84848285016117b9565b91505092915050565b611e9681611548565b82525050565b5f602082019050611eaf5f830184611e8d565b92915050565b5f8060408385031215611ecb57611eca61151e565b5b5f611ed8858286016117b9565b9250506020611ee985828601611622565b9150509250929050565b5f67ffffffffffffffff821115611f0d57611f0c61181f565b5b611f168261180f565b9050602081019050919050565b5f611f35611f3084611ef3565b61187d565b905082815260208101848484011115611f5157611f50611a36565b5b611f5c848285611a6a565b509392505050565b5f82601f830112611f7857611f7761157b565b5b8135611f88848260208601611f23565b91505092915050565b5f805f60608486031215611fa857611fa761151e565b5b5f611fb5868287016117b9565b935050602084013567ffffffffffffffff811115611fd657611fd5611522565b5b611fe286828701611f64565b9250506040611ff3868287016118d7565b9150509250925092565b5f6040820190506120105f8301856114ed565b61201d60208301846114ed565b9392505050565b5f606082840312156120395761203861151e565b5b5f6120468482850161152a565b91505092915050565b61205881611794565b82525050565b5f6040820190506120715f83018561204f565b61207e6020830184611e8d565b9392505050565b5f82825260208201905092915050565b7f496e73756666696369656e74207374616b696e6720616d6f756e7400000000005f82015250565b5f6120c9601b83612085565b91506120d482612095565b602082019050919050565b5f6020820190508181035f8301526120f6816120bd565b9050919050565b7f4e487b71000000000000000000000000000000000000000000000000000000005f52601160045260245ffd5b5f612134826114e4565b915061213f836114e4565b9250828201905080821115612157576121566120fd565b5b92915050565b7f4e487b71000000000000000000000000000000000000000000000000000000005f52602260045260245ffd5b5f60028204905060018216806121a157607f821691505b6020821081036121b4576121b361215d565b5b50919050565b7f466972737420747279207374616b696e670000000000000000000000000000005f82015250565b5f6121ee601183612085565b91506121f9826121ba565b602082019050919050565b5f6020820190508181035f83015261221b816121e2565b9050919050565b61222b816115fb565b82525050565b61223a816114e4565b82525050565b61224981611794565b82525050565b61225881611761565b82525050565b6101c082015f8201516122735f850182612222565b5060208201516122866020850182612222565b5060408201516122996040850182612231565b5060608201516122ac6060850182612231565b5060808201516122bf6080850182612240565b5060a08201516122d260a0850182612240565b5060c08201516122e560c0850182612231565b5060e08201516122f860e0850182612222565b5061010082015161230d610100850182612222565b50610120820151612322610120850182612222565b50610140820151612337610140850182612231565b5061016082015161234c610160850182612231565b50610180820151612361610180850182612240565b506101a08201516123766101a085018261224f565b50505050565b5f6101e0820190506123905f83018561225e565b61239e6101c0830184611dcb565b9392505050565b5f81519050919050565b5f6123b9826123a5565b6123c38185612085565b93506123d3818560208601611c30565b6123dc8161180f565b840191505092915050565b5f6020820190508181035f8301526123ff81846123af565b905092915050565b5f60208201905061241a5f83018461204f565b92915050565b61242981611548565b82525050565b5f82825260208201905092915050565b5f61244982611c16565b612453818561242f565b9350612463818560208601611c30565b61246c8161180f565b840191505092915050565b5f60a083015f83015161248c5f860182612240565b50602083015161249f6020860182612420565b50604083015184820360408601526124b7828261243f565b915050606083015184820360608601526124d1828261243f565b91505060808301516124e6608086018261224f565b508091505092915050565b5f6040820190508181035f8301526125098185612477565b90506125186020830184611dcb565b9392505050565b5f8151905061252d81611551565b92915050565b61253c816116ed565b8114612546575f80fd5b50565b5f8151905061255781612533565b92915050565b5f8151905061256b81611897565b92915050565b5f604082840312156125865761258561180b565b5b612590604061187d565b90505f61259f8482850161255d565b5f8301525060206125b28482850161255d565b60208301525092915050565b5f608082840312156125d3576125d261180b565b5b6125dd606061187d565b90505f6125ec8482850161251f565b5f8301525060206125ff84828501612549565b602083015250604061261384828501612571565b60408301525092915050565b5f608082840312156126345761263361151e565b5b5f612641848285016125be565b91505092915050565b5f6040828403121561265f5761265e61151e565b5b5f61266c84828501612571565b91505092915050565b5f815190506126838161160c565b92915050565b5f6020828403121561269e5761269d61151e565b5b5f6126ab84828501612675565b91505092915050565b5f6060820190506126c75f830186611dcb565b6126d46020830185611dcb565b6126e160408301846114ed565b94935050505056fea2646970667358221220b50a999702d6dbae37c17ca9e8b8d3bc4c9262ed500ea4cb7fc4c33143af993564736f6c63430008160033",
  "linkReferences": {},
  "deployedLinkReferences": {}
}