{
  "_format": "hh-sol-artifact-1",
  "contractName": "ERC7683",
  "sourceName": "contracts/ERC7683.sol",
  "abi": [
    {
      "inputs": [
        {
          "internalType": "bytes32",
          "name": "orderId",
          "type": "bytes32"
        },
        {
          "internalType": "bytes",
          "name": "originData",
          "type": "bytes"
        },
        {
          "internalType": "bytes",
          "name": "fillerData",
          "type": "bytes"
        }
      ],
      "name": "fill",
      "outputs": [],
      "stateMutability": "pure",
      "type": "function"
    },
    {
      "inputs": [
        {
          "components": [
            {
              "internalType": "address",
              "name": "originSettler",
              "type": "address"
            },
            {
              "internalType": "address",
              "name": "user",
              "type": "address"
            },
            {
              "internalType": "uint256",
              "name": "nonce",
              "type": "uint256"
            },
            {
              "internalType": "uint256",
              "name": "originChainId",
              "type": "uint256"
            },
            {
              "internalType": "uint32",
              "name": "openDeadline",
              "type": "uint32"
            },
            {
              "internalType": "uint32",
              "name": "fillDeadline",
              "type": "uint32"
            },
            {
              "internalType": "uint256",
              "name": "orderDataType",
              "type": "uint256"
            },
            {
              "internalType": "address",
              "name": "destinationChain",
              "type": "address"
            },
            {
              "internalType": "address",
              "name": "SourceToken",
              "type": "address"
            },
            {
              "internalType": "address",
              "name": "DestinationToken",
              "type": "address"
            },
            {
              "internalType": "uint256",
              "name": "tokenAmount",
              "type": "uint256"
            },
            {
              "internalType": "uint256",
              "name": "destinationTokenAmount",
              "type": "uint256"
            },
            {
              "internalType": "uint32",
              "name": "destinationChainId",
              "type": "uint32"
            },
            {
              "internalType": "bool",
              "name": "isVerifyMessage",
              "type": "bool"
            }
          ],
          "internalType": "struct ERC7683.GaslessCrossChainOrder",
          "name": "order",
          "type": "tuple"
        },
        {
          "internalType": "bytes",
          "name": "fillerData",
          "type": "bytes"
        }
      ],
      "name": "initiate",
      "outputs": [],
      "stateMutability": "pure",
      "type": "function"
    }
  ],
  "bytecode": "0x608060405234801561000f575f80fd5b506105c58061001d5f395ff3fe608060405234801561000f575f80fd5b5060043610610034575f3560e01c8063347887601461003857806382e2c43f14610054575b5f80fd5b610052600480360381019061004d9190610412565b610070565b005b61006e600480360381019061006991906104fe565b610074565b005b5050565b5050505050565b5f604051905090565b5f80fd5b5f80fd5b5f80fd5b5f601f19601f8301169050919050565b7f4e487b71000000000000000000000000000000000000000000000000000000005f52604160045260245ffd5b6100d682610090565b810181811067ffffffffffffffff821117156100f5576100f46100a0565b5b80604052505050565b5f61010761007b565b905061011382826100cd565b919050565b5f73ffffffffffffffffffffffffffffffffffffffff82169050919050565b5f61014182610118565b9050919050565b61015181610137565b811461015b575f80fd5b50565b5f8135905061016c81610148565b92915050565b5f819050919050565b61018481610172565b811461018e575f80fd5b50565b5f8135905061019f8161017b565b92915050565b5f63ffffffff82169050919050565b6101bd816101a5565b81146101c7575f80fd5b50565b5f813590506101d8816101b4565b92915050565b5f8115159050919050565b6101f2816101de565b81146101fc575f80fd5b50565b5f8135905061020d816101e9565b92915050565b5f6101c082840312156102295761022861008c565b5b6102346101c06100fe565b90505f6102438482850161015e565b5f8301525060206102568482850161015e565b602083015250604061026a84828501610191565b604083015250606061027e84828501610191565b6060830152506080610292848285016101ca565b60808301525060a06102a6848285016101ca565b60a08301525060c06102ba84828501610191565b60c08301525060e06102ce8482850161015e565b60e0830152506101006102e38482850161015e565b610100830152506101206102f98482850161015e565b6101208301525061014061030f84828501610191565b6101408301525061016061032584828501610191565b6101608301525061018061033b848285016101ca565b610180830152506101a0610351848285016101ff565b6101a08301525092915050565b5f80fd5b5f80fd5b5f67ffffffffffffffff8211156103805761037f6100a0565b5b61038982610090565b9050602081019050919050565b828183375f83830152505050565b5f6103b66103b184610366565b6100fe565b9050828152602081018484840111156103d2576103d1610362565b5b6103dd848285610396565b509392505050565b5f82601f8301126103f9576103f861035e565b5b81356104098482602086016103a4565b91505092915050565b5f806101e0838503121561042957610428610084565b5b5f61043685828601610213565b9250506101c083013567ffffffffffffffff81111561045857610457610088565b5b610464858286016103e5565b9150509250929050565b5f819050919050565b6104808161046e565b811461048a575f80fd5b50565b5f8135905061049b81610477565b92915050565b5f80fd5b5f80fd5b5f8083601f8401126104be576104bd61035e565b5b8235905067ffffffffffffffff8111156104db576104da6104a1565b5b6020830191508360018202830111156104f7576104f66104a5565b5b9250929050565b5f805f805f6060868803121561051757610516610084565b5b5f6105248882890161048d565b955050602086013567ffffffffffffffff81111561054557610544610088565b5b610551888289016104a9565b9450945050604086013567ffffffffffffffff81111561057457610573610088565b5b610580888289016104a9565b9250925050929550929590935056fea2646970667358221220332f2822bd159486e285bd090950e9300c7c048e493a9ec4906cd7524cd210da64736f6c63430008160033",
  "linkReferences": {},
  "deployedLinkReferences": {}
}