{"contracts/Settlement.sol":{"Settlement":{"abi":[{"inputs":[{"internalType":"address","name":"_endpoint","type":"address"},{"internalType":"address","name":"_owner","type":"address"},{"internalType":"bytes","name":"Option","type":"bytes"},{"internalType":"uint32","name":"solverDaoEid","type":"uint32"}],"stateMutability":"nonpayable","type":"constructor"},{"inputs":[],"name":"InvalidDelegate","type":"error"},{"inputs":[],"name":"InvalidEndpointCall","type":"error"},{"inputs":[],"name":"LzTokenUnavailable","type":"error"},{"inputs":[{"internalType":"uint32","name":"eid","type":"uint32"}],"name":"NoPeer","type":"error"},{"inputs":[{"internalType":"uint256","name":"msgValue","type":"uint256"}],"name":"NotEnoughNative","type":"error"},{"inputs":[{"internalType":"address","name":"addr","type":"address"}],"name":"OnlyEndpoint","type":"error"},{"inputs":[{"internalType":"uint32","name":"eid","type":"uint32"},{"internalType":"bytes32","name":"sender","type":"bytes32"}],"name":"OnlyPeer","type":"error"},{"inputs":[{"internalType":"address","name":"owner","type":"address"}],"name":"OwnableInvalidOwner","type":"error"},{"inputs":[{"internalType":"address","name":"account","type":"address"}],"name":"OwnableUnauthorizedAccount","type":"error"},{"inputs":[{"internalType":"address","name":"token","type":"address"}],"name":"SafeERC20FailedOperation","type":"error"},{"anonymous":false,"inputs":[{"indexed":true,"internalType":"address","name":"previousOwner","type":"address"},{"indexed":true,"internalType":"address","name":"newOwner","type":"address"}],"name":"OwnershipTransferred","type":"event"},{"anonymous":false,"inputs":[{"indexed":false,"internalType":"uint32","name":"eid","type":"uint32"},{"indexed":false,"internalType":"bytes32","name":"peer","type":"bytes32"}],"name":"PeerSet","type":"event"},{"inputs":[],"name":"SolverDAOdsteID","outputs":[{"internalType":"uint32","name":"","type":"uint32"}],"stateMutability":"view","type":"function"},{"inputs":[{"components":[{"internalType":"uint32","name":"srcEid","type":"uint32"},{"internalType":"bytes32","name":"sender","type":"bytes32"},{"internalType":"uint64","name":"nonce","type":"uint64"}],"internalType":"struct Origin","name":"origin","type":"tuple"}],"name":"allowInitializePath","outputs":[{"internalType":"bool","name":"","type":"bool"}],"stateMutability":"view","type":"function"},{"inputs":[],"name":"data","outputs":[{"internalType":"string","name":"","type":"string"}],"stateMutability":"view","type":"function"},{"inputs":[],"name":"defaultOption","outputs":[{"internalType":"bytes","name":"","type":"bytes"}],"stateMutability":"view","type":"function"},{"inputs":[],"name":"endpoint","outputs":[{"internalType":"contract ILayerZeroEndpointV2","name":"","type":"address"}],"stateMutability":"view","type":"function"},{"inputs":[{"internalType":"bytes32","name":"orderId","type":"bytes32"},{"internalType":"bytes","name":"originData","type":"bytes"},{"internalType":"bytes","name":"fillerData","type":"bytes"}],"name":"fill","outputs":[],"stateMutability":"pure","type":"function"},{"inputs":[{"components":[{"internalType":"address","name":"originSettler","type":"address"},{"internalType":"address","name":"user","type":"address"},{"internalType":"uint256","name":"nonce","type":"uint256"},{"internalType":"uint256","name":"originChainId","type":"uint256"},{"internalType":"uint32","name":"openDeadline","type":"uint32"},{"internalType":"uint32","name":"fillDeadline","type":"uint32"},{"internalType":"uint256","name":"orderDataType","type":"uint256"},{"internalType":"address","name":"destinationChain","type":"address"},{"internalType":"address","name":"SourceToken","type":"address"},{"internalType":"address","name":"DestinationToken","type":"address"},{"internalType":"uint256","name":"tokenAmount","type":"uint256"},{"internalType":"uint256","name":"destinationTokenAmount","type":"uint256"},{"internalType":"uint32","name":"destinationChainId","type":"uint32"},{"internalType":"bool","name":"isVerifyMessage","type":"bool"}],"internalType":"struct ERC7683.GaslessCrossChainOrder","name":"order","type":"tuple"},{"internalType":"bytes","name":"fillerData","type":"bytes"}],"name":"fill","outputs":[],"stateMutability":"payable","type":"function"},{"inputs":[{"internalType":"uint256","name":"nonce","type":"uint256"}],"name":"getOrderStatus","outputs":[{"internalType":"enum Settlement.OrderStatus","name":"status","type":"uint8"}],"stateMutability":"view","type":"function"},{"inputs":[{"components":[{"internalType":"address","name":"originSettler","type":"address"},{"internalType":"address","name":"user","type":"address"},{"internalType":"uint256","name":"nonce","type":"uint256"},{"internalType":"uint256","name":"originChainId","type":"uint256"},{"internalType":"uint32","name":"openDeadline","type":"uint32"},{"internalType":"uint32","name":"fillDeadline","type":"uint32"},{"internalType":"uint256","name":"orderDataType","type":"uint256"},{"internalType":"address","name":"destinationChain","type":"address"},{"internalType":"address","name":"SourceToken","type":"address"},{"internalType":"address","name":"DestinationToken","type":"address"},{"internalType":"uint256","name":"tokenAmount","type":"uint256"},{"internalType":"uint256","name":"destinationTokenAmount","type":"uint256"},{"internalType":"uint32","name":"destinationChainId","type":"uint32"},{"internalType":"bool","name":"isVerifyMessage","type":"bool"}],"internalType":"struct ERC7683.GaslessCrossChainOrder","name":"order","type":"tuple"},{"internalType":"bytes","name":"fillerData","type":"bytes"}],"name":"initiate","outputs":[],"stateMutability":"pure","type":"function"},{"inputs":[{"components":[{"internalType":"address","name":"originSettler","type":"address"},{"internalType":"address","name":"user","type":"address"},{"internalType":"uint256","name":"nonce","type":"uint256"},{"internalType":"uint256","name":"originChainId","type":"uint256"},{"internalType":"uint32","name":"openDeadline","type":"uint32"},{"internalType":"uint32","name":"fillDeadline","type":"uint32"},{"internalType":"uint256","name":"orderDataType","type":"uint256"},{"internalType":"address","name":"destinationChain","type":"address"},{"internalType":"address","name":"SourceToken","type":"address"},{"internalType":"address","name":"DestinationToken","type":"address"},{"internalType":"uint256","name":"tokenAmount","type":"uint256"},{"internalType":"uint256","name":"destinationTokenAmount","type":"uint256"},{"internalType":"uint32","name":"destinationChainId","type":"uint32"},{"internalType":"bool","name":"isVerifyMessage","type":"bool"}],"internalType":"struct ERC7683.GaslessCrossChainOrder","name":"order","type":"tuple"},{"internalType":"bytes","name":"signature","type":"bytes"},{"internalType":"bytes","name":"fillerData","type":"bytes"}],"name":"initiate","outputs":[],"stateMutability":"nonpayable","type":"function"},{"inputs":[{"components":[{"internalType":"uint32","name":"srcEid","type":"uint32"},{"internalType":"bytes32","name":"sender","type":"bytes32"},{"internalType":"uint64","name":"nonce","type":"uint64"}],"internalType":"struct Origin","name":"","type":"tuple"},{"internalType":"bytes","name":"","type":"bytes"},{"internalType":"address","name":"_sender","type":"address"}],"name":"isComposeMsgSender","outputs":[{"internalType":"bool","name":"","type":"bool"}],"stateMutability":"view","type":"function"},{"inputs":[{"components":[{"internalType":"uint32","name":"srcEid","type":"uint32"},{"internalType":"bytes32","name":"sender","type":"bytes32"},{"internalType":"uint64","name":"nonce","type":"uint64"}],"internalType":"struct Origin","name":"_origin","type":"tuple"},{"internalType":"bytes32","name":"_guid","type":"bytes32"},{"internalType":"bytes","name":"_message","type":"bytes"},{"internalType":"address","name":"_executor","type":"address"},{"internalType":"bytes","name":"_extraData","type":"bytes"}],"name":"lzReceive","outputs":[],"stateMutability":"payable","type":"function"},{"inputs":[{"internalType":"uint32","name":"","type":"uint32"},{"internalType":"bytes32","name":"","type":"bytes32"}],"name":"nextNonce","outputs":[{"internalType":"uint64","name":"nonce","type":"uint64"}],"stateMutability":"view","type":"function"},{"inputs":[],"name":"oAppVersion","outputs":[{"internalType":"uint64","name":"senderVersion","type":"uint64"},{"internalType":"uint64","name":"receiverVersion","type":"uint64"}],"stateMutability":"pure","type":"function"},{"inputs":[],"name":"owner","outputs":[{"internalType":"address","name":"","type":"address"}],"stateMutability":"view","type":"function"},{"inputs":[{"internalType":"uint32","name":"eid","type":"uint32"}],"name":"peers","outputs":[{"internalType":"bytes32","name":"peer","type":"bytes32"}],"stateMutability":"view","type":"function"},{"inputs":[{"internalType":"uint32","name":"_dstEid","type":"uint32"},{"internalType":"string","name":"_message","type":"string"},{"internalType":"bool","name":"_payInLzToken","type":"bool"}],"name":"quote","outputs":[{"internalType":"uint256","name":"nativeFee","type":"uint256"},{"internalType":"uint256","name":"lzTokenFee","type":"uint256"}],"stateMutability":"view","type":"function"},{"inputs":[],"name":"renounceOwnership","outputs":[],"stateMutability":"nonpayable","type":"function"},{"inputs":[{"internalType":"uint32","name":"_dstEid","type":"uint32"},{"internalType":"uint256","name":"_message","type":"uint256"}],"name":"send","outputs":[],"stateMutability":"payable","type":"function"},{"inputs":[{"internalType":"address","name":"_delegate","type":"address"}],"name":"setDelegate","outputs":[],"stateMutability":"nonpayable","type":"function"},{"inputs":[{"internalType":"uint32","name":"_eid","type":"uint32"},{"internalType":"bytes32","name":"_peer","type":"bytes32"}],"name":"setPeer","outputs":[],"stateMutability":"nonpayable","type":"function"},{"inputs":[{"internalType":"uint32","name":"_eid","type":"uint32"},{"internalType":"address","name":"_peer","type":"address"}],"name":"setPeerWithAddress","outputs":[],"stateMutability":"nonpayable","type":"function"},{"inputs":[{"internalType":"address","name":"newOwner","type":"address"}],"name":"transferOwnership","outputs":[],"stateMutability":"nonpayable","type":"function"},{"inputs":[{"internalType":"address","name":"token","type":"address"}],"name":"withdraw","outputs":[],"stateMutability":"nonpayable","type":"function"}],"evm":{"bytecode":{"linkReferences":{},"object":"60a060405234801562000010575f80fd5b5060405162003773380380620037738339818101604052810190620000369190620004eb565b83838181865f73ffffffffffffffffffffffffffffffffffffffff168173ffffffffffffffffffffffffffffffffffffffff1603620000ae575f6040517f1e4fbdf7000000000000000000000000000000000000000000000000000000008152600401620000a591906200058a565b60405180910390fd5b620000bf816200020660201b60201c565b508173ffffffffffffffffffffffffffffffffffffffff1660808173ffffffffffffffffffffffffffffffffffffffff16815250505f73ffffffffffffffffffffffffffffffffffffffff168173ffffffffffffffffffffffffffffffffffffffff16036200015a576040517fb586360400000000000000000000000000000000000000000000000000000000815260040160405180910390fd5b60805173ffffffffffffffffffffffffffffffffffffffff1663ca5eb5e1826040518263ffffffff1660e01b81526004016200019791906200058a565b5f604051808303815f87803b158015620001af575f80fd5b505af1158015620001c2573d5f803e3d5ffd5b50505050505050508160039081620001db9190620007dc565b508060075f6101000a81548163ffffffff021916908363ffffffff16021790555050505050620008c0565b5f805f9054906101000a900473ffffffffffffffffffffffffffffffffffffffff169050815f806101000a81548173ffffffffffffffffffffffffffffffffffffffff021916908373ffffffffffffffffffffffffffffffffffffffff1602179055508173ffffffffffffffffffffffffffffffffffffffff168173ffffffffffffffffffffffffffffffffffffffff167f8be0079c531659141344cd1fd0a4f28419497f9722a3daafe3b4186f6b6457e060405160405180910390a35050565b5f604051905090565b5f80fd5b5f80fd5b5f73ffffffffffffffffffffffffffffffffffffffff82169050919050565b5f6200030382620002d8565b9050919050565b6200031581620002f7565b811462000320575f80fd5b50565b5f8151905062000333816200030a565b92915050565b5f80fd5b5f80fd5b5f601f19601f8301169050919050565b7f4e487b71000000000000000000000000000000000000000000000000000000005f52604160045260245ffd5b620003898262000341565b810181811067ffffffffffffffff82111715620003ab57620003aa62000351565b5b80604052505050565b5f620003bf620002c7565b9050620003cd82826200037e565b919050565b5f67ffffffffffffffff821115620003ef57620003ee62000351565b5b620003fa8262000341565b9050602081019050919050565b5f5b838110156200042657808201518184015260208101905062000409565b5f8484015250505050565b5f620004476200044184620003d2565b620003b4565b9050828152602081018484840111156200046657620004656200033d565b5b6200047384828562000407565b509392505050565b5f82601f83011262000492576200049162000339565b5b8151620004a484826020860162000431565b91505092915050565b5f63ffffffff82169050919050565b620004c781620004ad565b8114620004d2575f80fd5b50565b5f81519050620004e581620004bc565b92915050565b5f805f8060808587031215620005065762000505620002d0565b5b5f620005158782880162000323565b9450506020620005288782880162000323565b935050604085015167ffffffffffffffff8111156200054c576200054b620002d4565b5b6200055a878288016200047b565b92505060606200056d87828801620004d5565b91505092959194509250565b6200058481620002f7565b82525050565b5f6020820190506200059f5f83018462000579565b92915050565b5f81519050919050565b7f4e487b71000000000000000000000000000000000000000000000000000000005f52602260045260245ffd5b5f6002820490506001821680620005f457607f821691505b6020821081036200060a5762000609620005af565b5b50919050565b5f819050815f5260205f209050919050565b5f6020601f8301049050919050565b5f82821b905092915050565b5f600883026200066e7fffffffffffffffffffffffffffffffffffffffffffffffffffffffffffffffff8262000631565b6200067a868362000631565b95508019841693508086168417925050509392505050565b5f819050919050565b5f819050919050565b5f620006c4620006be620006b88462000692565b6200069b565b62000692565b9050919050565b5f819050919050565b620006df83620006a4565b620006f7620006ee82620006cb565b8484546200063d565b825550505050565b5f90565b6200070d620006ff565b6200071a818484620006d4565b505050565b5b818110156200074157620007355f8262000703565b60018101905062000720565b5050565b601f82111562000790576200075a8162000610565b620007658462000622565b8101602085101562000775578190505b6200078d620007848562000622565b8301826200071f565b50505b505050565b5f82821c905092915050565b5f620007b25f198460080262000795565b1980831691505092915050565b5f620007cc8383620007a1565b9150826002028217905092915050565b620007e782620005a5565b67ffffffffffffffff81111562000803576200080262000351565b5b6200080f8254620005dc565b6200081c82828562000745565b5f60209050601f83116001811462000852575f84156200083d578287015190505b620008498582620007bf565b865550620008b8565b601f198416620008628662000610565b5f5b828110156200088b5784890151825560018201915060208501945060208101905062000864565b86831015620008ab5784890151620008a7601f891682620007a1565b8355505b6001600288020188555050505b505050505050565b608051612e70620009035f395f81816105770152818161089601528181610e1e015281816112ff0152818161156f0152818161169d01526117950152612e705ff3fe60806040526004361061014a575f3560e01c806382413eac116100b5578063bb0b6a531161006e578063bb0b6a5314610431578063bcf695411461046d578063ca5eb5e114610495578063f2fde38b146104bd578063fbea2e91146104e5578063ff7bd03d146105225761014a565b806382413eac1461033557806382e2c43f14610371578063847a0d04146103995780638da5cb5b146103c3578063959a2492146103ed578063b6ae815a146104095761014a565b806351cff8d91161010757806351cff8d91461023d5780635e280f1114610265578063715018a61461028f57806372d71322146102a557806373d4a13a146102cf5780637d25a05e146102f95761014a565b806313137d651461014e57806317442b701461016a5780633400288b1461019557806334788760146101bd57806345fa8aae146101e55780634dc6264514610221575b5f80fd5b610168600480360381019061016391906119e6565b61055e565b005b348015610175575f80fd5b5061017e61067e565b60405161018c929190611abf565b60405180910390f35b3480156101a0575f80fd5b506101bb60048036038101906101b69190611b1f565b61068c565b005b3480156101c8575f80fd5b506101e360048036038101906101de9190611e4c565b6106a2565b005b3480156101f0575f80fd5b5061020b60048036038101906102069190611ea8565b6106a6565b6040516102189190611f46565b60405180910390f35b61023b60048036038101906102369190611f5f565b6106cc565b005b348015610248575f80fd5b50610263600480360381019061025e9190611f9d565b61079e565b005b348015610270575f80fd5b50610279610894565b6040516102869190612023565b60405180910390f35b34801561029a575f80fd5b506102a36108b8565b005b3480156102b0575f80fd5b506102b96108cb565b6040516102c691906120b6565b60405180910390f35b3480156102da575f80fd5b506102e3610957565b6040516102f09190612128565b60405180910390f35b348015610304575f80fd5b5061031f600480360381019061031a9190611b1f565b6109e3565b60405161032c9190612148565b60405180910390f35b348015610340575f80fd5b5061035b60048036038101906103569190612161565b6109ea565b60405161036891906121e1565b60405180910390f35b34801561037c575f80fd5b50610397600480360381019061039291906121fa565b610a24565b005b3480156103a4575f80fd5b506103ad610a2b565b6040516103ba919061229a565b60405180910390f35b3480156103ce575f80fd5b506103d7610a40565b6040516103e491906122c2565b60405180910390f35b610407600480360381019061040291906122fa565b610a67565b005b348015610414575f80fd5b5061042f600480360381019061042a9190612359565b610d29565b005b34801561043c575f80fd5b50610457600480360381019061045291906123ed565b610dcc565b6040516104649190612427565b60405180910390f35b348015610478575f80fd5b50610493600480360381019061048e9190612440565b610de1565b005b3480156104a0575f80fd5b506104bb60048036038101906104b69190611f9d565b610e14565b005b3480156104c8575f80fd5b506104e360048036038101906104de9190611f9d565b610ea5565b005b3480156104f0575f80fd5b5061050b6004803603810190610506919061251c565b610f29565b604051610519929190612597565b60405180910390f35b34801561052d575f80fd5b50610548600480360381019061054391906125be565b610ffc565b60405161055591906121e1565b60405180910390f35b3373ffffffffffffffffffffffffffffffffffffffff167f000000000000000000000000000000000000000000000000000000000000000073ffffffffffffffffffffffffffffffffffffffff16146105ee57336040517f91ac5e4f0000000000000000000000000000000000000000000000000000000081526004016105e591906122c2565b60405180910390fd5b866020013561060d885f01602081019061060891906123ed565b611039565b1461066657865f01602081019061062491906123ed565b87602001356040517fc26bebcc00000000000000000000000000000000000000000000000000000000815260040161065d9291906125e9565b60405180910390fd5b610675878787878787876110aa565b50505050505050565b5f8060016002915091509091565b6106946111e6565b61069e828261126d565b5050565b5050565b5f60065f8381526020019081526020015f205f9054906101000a900460ff169050919050565b5f816040516020016106de9190612610565b604051602081830303815290604052905061079883826003805461070190612656565b80601f016020809104026020016040519081016040528092919081815260200182805461072d90612656565b80156107785780601f1061074f57610100808354040283529160200191610778565b820191905f5260205f20905b81548152906001019060200180831161075b57829003601f168201915b505050505060405180604001604052803481526020015f815250336112cc565b50505050565b8073ffffffffffffffffffffffffffffffffffffffff1663a9059cbb338373ffffffffffffffffffffffffffffffffffffffff166370a08231306040518263ffffffff1660e01b81526004016107f491906122c2565b602060405180830381865afa15801561080f573d5f803e3d5ffd5b505050506040513d601f19601f82011682018060405250810190610833919061269a565b6040518363ffffffff1660e01b81526004016108509291906126c5565b6020604051808303815f875af115801561086c573d5f803e3d5ffd5b505050506040513d601f19601f820116820180604052508101906108909190612700565b5050565b7f000000000000000000000000000000000000000000000000000000000000000081565b6108c06111e6565b6108c95f6113e2565b565b600380546108d890612656565b80601f016020809104026020016040519081016040528092919081815260200182805461090490612656565b801561094f5780601f106109265761010080835404028352916020019161094f565b820191905f5260205f20905b81548152906001019060200180831161093257829003601f168201915b505050505081565b6002805461096490612656565b80601f016020809104026020016040519081016040528092919081815260200182805461099090612656565b80156109db5780601f106109b2576101008083540402835291602001916109db565b820191905f5260205f20905b8154815290600101906020018083116109be57829003601f168201915b505050505081565b5f92915050565b5f3073ffffffffffffffffffffffffffffffffffffffff168273ffffffffffffffffffffffffffffffffffffffff16149050949350505050565b5050505050565b60075f9054906101000a900463ffffffff1681565b5f805f9054906101000a900473ffffffffffffffffffffffffffffffffffffffff16905090565b60036004811115610a7b57610a7a611ed3565b5b60065f856040013581526020019081526020015f205f9054906101000a900460ff166004811115610aaf57610aae611ed3565b5b03610aef576040517f08c379a0000000000000000000000000000000000000000000000000000000008152600401610ae690612775565b60405180910390fd5b60026004811115610b0357610b02611ed3565b5b60065f856040013581526020019081526020015f205f9054906101000a900460ff166004811115610b3757610b36611ed3565b5b14610b77576040517f08c379a0000000000000000000000000000000000000000000000000000000008152600401610b6e90612803565b60405180910390fd5b5f808383810190610b88919061285c565b9150915084610120016020810190610ba09190611f9d565b73ffffffffffffffffffffffffffffffffffffffff166323b872dd83876020016020810190610bcf9190611f9d565b84896101600135610be091906128c7565b6040518463ffffffff1660e01b8152600401610bfe939291906128fa565b6020604051808303815f875af1158015610c1a573d5f803e3d5ffd5b505050506040513d601f19601f82011682018060405250810190610c3e9190612700565b505f8583604051602001610c53929190612b51565b6040516020818303038152906040529050610d2086610180016020810190610c7b91906123ed565b8260038054610c8990612656565b80601f0160208091040260200160405190810160405280929190818152602001828054610cb590612656565b8015610d005780601f10610cd757610100808354040283529160200191610d00565b820191905f5260205f20905b815481529060010190602001808311610ce357829003601f168201915b505050505060405180604001604052803481526020015f815250336112cc565b50505050505050565b5f60065f876040013581526020019081526020015f205f6101000a81548160ff02191690836004811115610d6057610d5f611ed3565b5b0217905550610d6e856114a3565b610dc5856020016020810190610d849190611f9d565b3087610140013588610100016020810190610d9f9190611f9d565b73ffffffffffffffffffffffffffffffffffffffff166114e3909392919063ffffffff16565b5050505050565b6001602052805f5260405f205f915090505481565b610de96111e6565b5f8173ffffffffffffffffffffffffffffffffffffffff165f1b9050610e0f838261126d565b505050565b610e1c6111e6565b7f000000000000000000000000000000000000000000000000000000000000000073ffffffffffffffffffffffffffffffffffffffff1663ca5eb5e1826040518263ffffffff1660e01b8152600401610e7591906122c2565b5f604051808303815f87803b158015610e8c575f80fd5b505af1158015610e9e573d5f803e3d5ffd5b5050505050565b610ead6111e6565b5f73ffffffffffffffffffffffffffffffffffffffff168173ffffffffffffffffffffffffffffffffffffffff1603610f1d575f6040517f1e4fbdf7000000000000000000000000000000000000000000000000000000008152600401610f1491906122c2565b60405180910390fd5b610f26816113e2565b50565b5f805f84604051602001610f3d9190612128565b60405160208183030381529060405290505f610fe3878360038054610f6190612656565b80601f0160208091040260200160405190810160405280929190818152602001828054610f8d90612656565b8015610fd85780601f10610faf57610100808354040283529160200191610fd8565b820191905f5260205f20905b815481529060010190602001808311610fbb57829003601f168201915b505050505088611565565b9050805f01518160200151935093505050935093915050565b5f816020013560015f845f01602081019061101791906123ed565b63ffffffff1663ffffffff1681526020019081526020015f2054149050919050565b5f8060015f8463ffffffff1663ffffffff1681526020019081526020015f205490505f801b81036110a157826040517ff6ff4fb7000000000000000000000000000000000000000000000000000000008152600401611098919061229a565b60405180910390fd5b80915050919050565b5f8086868101906110bb9190612b7a565b9150915060011515826101a0015115150361111257600260065f846040015181526020019081526020015f205f6101000a81548160ff0219169083600481111561110857611107611ed3565b5b02179055506111db565b600360065f846040015181526020019081526020015f205f6101000a81548160ff0219169083600481111561114a57611149611ed3565b5b021790555081610100015173ffffffffffffffffffffffffffffffffffffffff166323b872dd835f0151838561014001516040518463ffffffff1660e01b8152600401611199939291906128fa565b6020604051808303815f875af11580156111b5573d5f803e3d5ffd5b505050506040513d601f19601f820116820180604052508101906111d99190612700565b505b505050505050505050565b6111ee611646565b73ffffffffffffffffffffffffffffffffffffffff1661120c610a40565b73ffffffffffffffffffffffffffffffffffffffff161461126b5761122f611646565b6040517f118cdaa700000000000000000000000000000000000000000000000000000000815260040161126291906122c2565b60405180910390fd5b565b8060015f8463ffffffff1663ffffffff1681526020019081526020015f20819055507f238399d427b947898edb290f5ff0f9109849b1c3ba196a42e35f00c50a54b98b82826040516112c09291906125e9565b60405180910390a15050565b6112d461187b565b5f6112e1845f015161164d565b90505f846020015111156112fd576112fc846020015161169a565b5b7f000000000000000000000000000000000000000000000000000000000000000073ffffffffffffffffffffffffffffffffffffffff16632637a450826040518060a001604052808b63ffffffff16815260200161135a8c611039565b81526020018a81526020018981526020015f8960200151111515815250866040518463ffffffff1660e01b8152600401611395929190612c8b565b60806040518083038185885af11580156113b1573d5f803e3d5ffd5b50505050506040513d601f19601f820116820180604052508101906113d69190612da5565b91505095945050505050565b5f805f9054906101000a900473ffffffffffffffffffffffffffffffffffffffff169050815f806101000a81548173ffffffffffffffffffffffffffffffffffffffff021916908373ffffffffffffffffffffffffffffffffffffffff1602179055508173ffffffffffffffffffffffffffffffffffffffff168173ffffffffffffffffffffffffffffffffffffffff167f8be0079c531659141344cd1fd0a4f28419497f9722a3daafe3b4186f6b6457e060405160405180910390a35050565b600160065f836040013581526020019081526020015f205f6101000a81548160ff021916908360048111156114db576114da611ed3565b5b021790555050565b61155f848573ffffffffffffffffffffffffffffffffffffffff166323b872dd868686604051602401611518939291906128fa565b604051602081830303815290604052915060e01b6020820180517bffffffffffffffffffffffffffffffffffffffffffffffffffffffff83818316178352505050506117e0565b50505050565b61156d6118ad565b7f000000000000000000000000000000000000000000000000000000000000000073ffffffffffffffffffffffffffffffffffffffff1663ddc28c586040518060a001604052808863ffffffff1681526020016115c989611039565b8152602001878152602001868152602001851515815250306040518363ffffffff1660e01b81526004016115fe929190612c8b565b6040805180830381865afa158015611618573d5f803e3d5ffd5b505050506040513d601f19601f8201168201806040525081019061163c9190612dd0565b9050949350505050565b5f33905090565b5f81341461169257346040517f9f7041200000000000000000000000000000000000000000000000000000000081526004016116899190612610565b60405180910390fd5b819050919050565b5f7f000000000000000000000000000000000000000000000000000000000000000073ffffffffffffffffffffffffffffffffffffffff1663e4fe1d946040518163ffffffff1660e01b8152600401602060405180830381865afa158015611704573d5f803e3d5ffd5b505050506040513d601f19601f820116820180604052508101906117289190612e0f565b90505f73ffffffffffffffffffffffffffffffffffffffff168173ffffffffffffffffffffffffffffffffffffffff160361178f576040517f5373352a00000000000000000000000000000000000000000000000000000000815260040160405180910390fd5b6117dc337f0000000000000000000000000000000000000000000000000000000000000000848473ffffffffffffffffffffffffffffffffffffffff166114e3909392919063ffffffff16565b5050565b5f8060205f8451602086015f885af1806117ff576040513d5f823e3d81fd5b3d92505f519150505f8214611818576001811415611833565b5f8473ffffffffffffffffffffffffffffffffffffffff163b145b1561187557836040517f5274afe700000000000000000000000000000000000000000000000000000000815260040161186c91906122c2565b60405180910390fd5b50505050565b60405180606001604052805f80191681526020015f67ffffffffffffffff1681526020016118a76118ad565b81525090565b60405180604001604052805f81526020015f81525090565b5f604051905090565b5f80fd5b5f80fd5b5f80fd5b5f606082840312156118ef576118ee6118d6565b5b81905092915050565b5f819050919050565b61190a816118f8565b8114611914575f80fd5b50565b5f8135905061192581611901565b92915050565b5f80fd5b5f80fd5b5f80fd5b5f8083601f84011261194c5761194b61192b565b5b8235905067ffffffffffffffff8111156119695761196861192f565b5b60208301915083600182028301111561198557611984611933565b5b9250929050565b5f73ffffffffffffffffffffffffffffffffffffffff82169050919050565b5f6119b58261198c565b9050919050565b6119c5816119ab565b81146119cf575f80fd5b50565b5f813590506119e0816119bc565b92915050565b5f805f805f805f60e0888a031215611a0157611a006118ce565b5b5f611a0e8a828b016118da565b9750506060611a1f8a828b01611917565b965050608088013567ffffffffffffffff811115611a4057611a3f6118d2565b5b611a4c8a828b01611937565b955095505060a0611a5f8a828b016119d2565b93505060c088013567ffffffffffffffff811115611a8057611a7f6118d2565b5b611a8c8a828b01611937565b925092505092959891949750929550565b5f67ffffffffffffffff82169050919050565b611ab981611a9d565b82525050565b5f604082019050611ad25f830185611ab0565b611adf6020830184611ab0565b9392505050565b5f63ffffffff82169050919050565b611afe81611ae6565b8114611b08575f80fd5b50565b5f81359050611b1981611af5565b92915050565b5f8060408385031215611b3557611b346118ce565b5b5f611b4285828601611b0b565b9250506020611b5385828601611917565b9150509250929050565b5f80fd5b5f601f19601f8301169050919050565b7f4e487b71000000000000000000000000000000000000000000000000000000005f52604160045260245ffd5b611ba782611b61565b810181811067ffffffffffffffff82111715611bc657611bc5611b71565b5b80604052505050565b5f611bd86118c5565b9050611be48282611b9e565b919050565b5f819050919050565b611bfb81611be9565b8114611c05575f80fd5b50565b5f81359050611c1681611bf2565b92915050565b5f8115159050919050565b611c3081611c1c565b8114611c3a575f80fd5b50565b5f81359050611c4b81611c27565b92915050565b5f6101c08284031215611c6757611c66611b5d565b5b611c726101c0611bcf565b90505f611c81848285016119d2565b5f830152506020611c94848285016119d2565b6020830152506040611ca884828501611c08565b6040830152506060611cbc84828501611c08565b6060830152506080611cd084828501611b0b565b60808301525060a0611ce484828501611b0b565b60a08301525060c0611cf884828501611c08565b60c08301525060e0611d0c848285016119d2565b60e083015250610100611d21848285016119d2565b61010083015250610120611d37848285016119d2565b61012083015250610140611d4d84828501611c08565b61014083015250610160611d6384828501611c08565b61016083015250610180611d7984828501611b0b565b610180830152506101a0611d8f84828501611c3d565b6101a08301525092915050565b5f80fd5b5f67ffffffffffffffff821115611dba57611db9611b71565b5b611dc382611b61565b9050602081019050919050565b828183375f83830152505050565b5f611df0611deb84611da0565b611bcf565b905082815260208101848484011115611e0c57611e0b611d9c565b5b611e17848285611dd0565b509392505050565b5f82601f830112611e3357611e3261192b565b5b8135611e43848260208601611dde565b91505092915050565b5f806101e08385031215611e6357611e626118ce565b5b5f611e7085828601611c51565b9250506101c083013567ffffffffffffffff811115611e9257611e916118d2565b5b611e9e85828601611e1f565b9150509250929050565b5f60208284031215611ebd57611ebc6118ce565b5b5f611eca84828501611c08565b91505092915050565b7f4e487b71000000000000000000000000000000000000000000000000000000005f52602160045260245ffd5b60058110611f1157611f10611ed3565b5b50565b5f819050611f2182611f00565b919050565b5f611f3082611f14565b9050919050565b611f4081611f26565b82525050565b5f602082019050611f595f830184611f37565b92915050565b5f8060408385031215611f7557611f746118ce565b5b5f611f8285828601611b0b565b9250506020611f9385828601611c08565b9150509250929050565b5f60208284031215611fb257611fb16118ce565b5b5f611fbf848285016119d2565b91505092915050565b5f819050919050565b5f611feb611fe6611fe18461198c565b611fc8565b61198c565b9050919050565b5f611ffc82611fd1565b9050919050565b5f61200d82611ff2565b9050919050565b61201d81612003565b82525050565b5f6020820190506120365f830184612014565b92915050565b5f81519050919050565b5f82825260208201905092915050565b5f5b83811015612073578082015181840152602081019050612058565b5f8484015250505050565b5f6120888261203c565b6120928185612046565b93506120a2818560208601612056565b6120ab81611b61565b840191505092915050565b5f6020820190508181035f8301526120ce818461207e565b905092915050565b5f81519050919050565b5f82825260208201905092915050565b5f6120fa826120d6565b61210481856120e0565b9350612114818560208601612056565b61211d81611b61565b840191505092915050565b5f6020820190508181035f83015261214081846120f0565b905092915050565b5f60208201905061215b5f830184611ab0565b92915050565b5f805f8060a08587031215612179576121786118ce565b5b5f612186878288016118da565b945050606085013567ffffffffffffffff8111156121a7576121a66118d2565b5b6121b387828801611937565b935093505060806121c6878288016119d2565b91505092959194509250565b6121db81611c1c565b82525050565b5f6020820190506121f45f8301846121d2565b92915050565b5f805f805f60608688031215612213576122126118ce565b5b5f61222088828901611917565b955050602086013567ffffffffffffffff811115612241576122406118d2565b5b61224d88828901611937565b9450945050604086013567ffffffffffffffff8111156122705761226f6118d2565b5b61227c88828901611937565b92509250509295509295909350565b61229481611ae6565b82525050565b5f6020820190506122ad5f83018461228b565b92915050565b6122bc816119ab565b82525050565b5f6020820190506122d55f8301846122b3565b92915050565b5f6101c082840312156122f1576122f06118d6565b5b81905092915050565b5f805f6101e08486031215612312576123116118ce565b5b5f61231f868287016122db565b9350506101c084013567ffffffffffffffff811115612341576123406118d2565b5b61234d86828701611937565b92509250509250925092565b5f805f805f6102008688031215612373576123726118ce565b5b5f612380888289016122db565b9550506101c086013567ffffffffffffffff8111156123a2576123a16118d2565b5b6123ae88828901611937565b94509450506101e086013567ffffffffffffffff8111156123d2576123d16118d2565b5b6123de88828901611937565b92509250509295509295909350565b5f60208284031215612402576124016118ce565b5b5f61240f84828501611b0b565b91505092915050565b612421816118f8565b82525050565b5f60208201905061243a5f830184612418565b92915050565b5f8060408385031215612456576124556118ce565b5b5f61246385828601611b0b565b9250506020612474858286016119d2565b9150509250929050565b5f67ffffffffffffffff82111561249857612497611b71565b5b6124a182611b61565b9050602081019050919050565b5f6124c06124bb8461247e565b611bcf565b9050828152602081018484840111156124dc576124db611d9c565b5b6124e7848285611dd0565b509392505050565b5f82601f8301126125035761250261192b565b5b81356125138482602086016124ae565b91505092915050565b5f805f60608486031215612533576125326118ce565b5b5f61254086828701611b0b565b935050602084013567ffffffffffffffff811115612561576125606118d2565b5b61256d868287016124ef565b925050604061257e86828701611c3d565b9150509250925092565b61259181611be9565b82525050565b5f6040820190506125aa5f830185612588565b6125b76020830184612588565b9392505050565b5f606082840312156125d3576125d26118ce565b5b5f6125e0848285016118da565b91505092915050565b5f6040820190506125fc5f83018561228b565b6126096020830184612418565b9392505050565b5f6020820190506126235f830184612588565b92915050565b7f4e487b71000000000000000000000000000000000000000000000000000000005f52602260045260245ffd5b5f600282049050600182168061266d57607f821691505b6020821081036126805761267f612629565b5b50919050565b5f8151905061269481611bf2565b92915050565b5f602082840312156126af576126ae6118ce565b5b5f6126bc84828501612686565b91505092915050565b5f6040820190506126d85f8301856122b3565b6126e56020830184612588565b9392505050565b5f815190506126fa81611c27565b92915050565b5f60208284031215612715576127146118ce565b5b5f612722848285016126ec565b91505092915050565b7f416c726561647946696c6c6564000000000000000000000000000000000000005f82015250565b5f61275f600d836120e0565b915061276a8261272b565b602082019050919050565b5f6020820190508181035f83015261278c81612753565b9050919050565b7f576169742074696c6c20796f757220536f6c7574696f6e2069732076657269665f8201527f6965640000000000000000000000000000000000000000000000000000000000602082015250565b5f6127ed6023836120e0565b91506127f882612793565b604082019050919050565b5f6020820190508181035f83015261281a816127e1565b9050919050565b5f61282b8261198c565b9050919050565b61283b81612821565b8114612845575f80fd5b50565b5f8135905061285681612832565b92915050565b5f8060408385031215612872576128716118ce565b5b5f61287f85828601612848565b925050602061289085828601611c08565b9150509250929050565b7f4e487b71000000000000000000000000000000000000000000000000000000005f52601160045260245ffd5b5f6128d182611be9565b91506128dc83611be9565b92508282039050818111156128f4576128f361289a565b5b92915050565b5f60608201905061290d5f8301866122b3565b61291a60208301856122b3565b6129276040830184612588565b949350505050565b5f61293d60208401846119d2565b905092915050565b61294e816119ab565b82525050565b5f6129626020840184611c08565b905092915050565b61297381611be9565b82525050565b5f6129876020840184611b0b565b905092915050565b61299881611ae6565b82525050565b5f6129ac6020840184611c3d565b905092915050565b6129bd81611c1c565b82525050565b6101c082016129d45f83018361292f565b6129e05f850182612945565b506129ee602083018361292f565b6129fb6020850182612945565b50612a096040830183612954565b612a16604085018261296a565b50612a246060830183612954565b612a31606085018261296a565b50612a3f6080830183612979565b612a4c608085018261298f565b50612a5a60a0830183612979565b612a6760a085018261298f565b50612a7560c0830183612954565b612a8260c085018261296a565b50612a9060e083018361292f565b612a9d60e0850182612945565b50612aac61010083018361292f565b612aba610100850182612945565b50612ac961012083018361292f565b612ad7610120850182612945565b50612ae6610140830183612954565b612af461014085018261296a565b50612b03610160830183612954565b612b1161016085018261296a565b50612b20610180830183612979565b612b2e61018085018261298f565b50612b3d6101a083018361299e565b612b4b6101a08501826129b4565b50505050565b5f6101e082019050612b655f8301856129c3565b612b736101c08301846122b3565b9392505050565b5f806101e08385031215612b9157612b906118ce565b5b5f612b9e85828601611c51565b9250506101c0612bb085828601612848565b9150509250929050565b612bc3816118f8565b82525050565b5f82825260208201905092915050565b5f612be38261203c565b612bed8185612bc9565b9350612bfd818560208601612056565b612c0681611b61565b840191505092915050565b5f60a083015f830151612c265f86018261298f565b506020830151612c396020860182612bba565b5060408301518482036040860152612c518282612bd9565b91505060608301518482036060860152612c6b8282612bd9565b9150506080830151612c8060808601826129b4565b508091505092915050565b5f6040820190508181035f830152612ca38185612c11565b9050612cb260208301846122b3565b9392505050565b5f81519050612cc781611901565b92915050565b612cd681611a9d565b8114612ce0575f80fd5b50565b5f81519050612cf181612ccd565b92915050565b5f60408284031215612d0c57612d0b611b5d565b5b612d166040611bcf565b90505f612d2584828501612686565b5f830152506020612d3884828501612686565b60208301525092915050565b5f60808284031215612d5957612d58611b5d565b5b612d636060611bcf565b90505f612d7284828501612cb9565b5f830152506020612d8584828501612ce3565b6020830152506040612d9984828501612cf7565b60408301525092915050565b5f60808284031215612dba57612db96118ce565b5b5f612dc784828501612d44565b91505092915050565b5f60408284031215612de557612de46118ce565b5b5f612df284828501612cf7565b91505092915050565b5f81519050612e09816119bc565b92915050565b5f60208284031215612e2457612e236118ce565b5b5f612e3184828501612dfb565b9150509291505056fea2646970667358221220f7926011ab684a9f975874ea11e3f5914abede5e2e10dc2a192ae09fff9de56364736f6c63430008160033","opcodes":"PUSH1 0xA0 PUSH1 0x40 MSTORE CALLVALUE DUP1 ISZERO PUSH3 0x10 JUMPI PUSH0 DUP1 REVERT JUMPDEST POP PUSH1 0x40 MLOAD PUSH3 0x3773 CODESIZE SUB DUP1 PUSH3 0x3773 DUP4 CODECOPY DUP2 DUP2 ADD PUSH1 0x40 MSTORE DUP2 ADD SWAP1 PUSH3 0x36 SWAP2 SWAP1 PUSH3 0x4EB JUMP JUMPDEST DUP4 DUP4 DUP2 DUP2 DUP7 PUSH0 PUSH20 0xFFFFFFFFFFFFFFFFFFFFFFFFFFFFFFFFFFFFFFFF AND DUP2 PUSH20 0xFFFFFFFFFFFFFFFFFFFFFFFFFFFFFFFFFFFFFFFF AND SUB PUSH3 0xAE JUMPI PUSH0 PUSH1 0x40 MLOAD PUSH32 0x1E4FBDF700000000000000000000000000000000000000000000000000000000 DUP2 MSTORE PUSH1 0x4 ADD PUSH3 0xA5 SWAP2 SWAP1 PUSH3 0x58A JUMP JUMPDEST PUSH1 0x40 MLOAD DUP1 SWAP2 SUB SWAP1 REVERT JUMPDEST PUSH3 0xBF DUP2 PUSH3 0x206 PUSH1 0x20 SHL PUSH1 0x20 SHR JUMP JUMPDEST POP DUP2 PUSH20 0xFFFFFFFFFFFFFFFFFFFFFFFFFFFFFFFFFFFFFFFF AND PUSH1 0x80 DUP2 PUSH20 0xFFFFFFFFFFFFFFFFFFFFFFFFFFFFFFFFFFFFFFFF AND DUP2 MSTORE POP POP PUSH0 PUSH20 0xFFFFFFFFFFFFFFFFFFFFFFFFFFFFFFFFFFFFFFFF AND DUP2 PUSH20 0xFFFFFFFFFFFFFFFFFFFFFFFFFFFFFFFFFFFFFFFF AND SUB PUSH3 0x15A JUMPI PUSH1 0x40 MLOAD PUSH32 0xB586360400000000000000000000000000000000000000000000000000000000 DUP2 MSTORE PUSH1 0x4 ADD PUSH1 0x40 MLOAD DUP1 SWAP2 SUB SWAP1 REVERT JUMPDEST PUSH1 0x80 MLOAD PUSH20 0xFFFFFFFFFFFFFFFFFFFFFFFFFFFFFFFFFFFFFFFF AND PUSH4 0xCA5EB5E1 DUP3 PUSH1 0x40 MLOAD DUP3 PUSH4 0xFFFFFFFF AND PUSH1 0xE0 SHL DUP2 MSTORE PUSH1 0x4 ADD PUSH3 0x197 SWAP2 SWAP1 PUSH3 0x58A JUMP JUMPDEST PUSH0 PUSH1 0x40 MLOAD DUP1 DUP4 SUB DUP2 PUSH0 DUP8 DUP1 EXTCODESIZE ISZERO DUP1 ISZERO PUSH3 0x1AF JUMPI PUSH0 DUP1 REVERT JUMPDEST POP GAS CALL ISZERO DUP1 ISZERO PUSH3 0x1C2 JUMPI RETURNDATASIZE PUSH0 DUP1 RETURNDATACOPY RETURNDATASIZE PUSH0 REVERT JUMPDEST POP POP POP POP POP POP POP POP DUP2 PUSH1 0x3 SWAP1 DUP2 PUSH3 0x1DB SWAP2 SWAP1 PUSH3 0x7DC JUMP JUMPDEST POP DUP1 PUSH1 0x7 PUSH0 PUSH2 0x100 EXP DUP2 SLOAD DUP2 PUSH4 0xFFFFFFFF MUL NOT AND SWAP1 DUP4 PUSH4 0xFFFFFFFF AND MUL OR SWAP1 SSTORE POP POP POP POP POP PUSH3 0x8C0 JUMP JUMPDEST PUSH0 DUP1 PUSH0 SWAP1 SLOAD SWAP1 PUSH2 0x100 EXP SWAP1 DIV PUSH20 0xFFFFFFFFFFFFFFFFFFFFFFFFFFFFFFFFFFFFFFFF AND SWAP1 POP DUP2 PUSH0 DUP1 PUSH2 0x100 EXP DUP2 SLOAD DUP2 PUSH20 0xFFFFFFFFFFFFFFFFFFFFFFFFFFFFFFFFFFFFFFFF MUL NOT AND SWAP1 DUP4 PUSH20 0xFFFFFFFFFFFFFFFFFFFFFFFFFFFFFFFFFFFFFFFF AND MUL OR SWAP1 SSTORE POP DUP2 PUSH20 0xFFFFFFFFFFFFFFFFFFFFFFFFFFFFFFFFFFFFFFFF AND DUP2 PUSH20 0xFFFFFFFFFFFFFFFFFFFFFFFFFFFFFFFFFFFFFFFF AND PUSH32 0x8BE0079C531659141344CD1FD0A4F28419497F9722A3DAAFE3B4186F6B6457E0 PUSH1 0x40 MLOAD PUSH1 0x40 MLOAD DUP1 SWAP2 SUB SWAP1 LOG3 POP POP JUMP JUMPDEST PUSH0 PUSH1 0x40 MLOAD SWAP1 POP SWAP1 JUMP JUMPDEST PUSH0 DUP1 REVERT JUMPDEST PUSH0 DUP1 REVERT JUMPDEST PUSH0 PUSH20 0xFFFFFFFFFFFFFFFFFFFFFFFFFFFFFFFFFFFFFFFF DUP3 AND SWAP1 POP SWAP2 SWAP1 POP JUMP JUMPDEST PUSH0 PUSH3 0x303 DUP3 PUSH3 0x2D8 JUMP JUMPDEST SWAP1 POP SWAP2 SWAP1 POP JUMP JUMPDEST PUSH3 0x315 DUP2 PUSH3 0x2F7 JUMP JUMPDEST DUP2 EQ PUSH3 0x320 JUMPI PUSH0 DUP1 REVERT JUMPDEST POP JUMP JUMPDEST PUSH0 DUP2 MLOAD SWAP1 POP PUSH3 0x333 DUP2 PUSH3 0x30A JUMP JUMPDEST SWAP3 SWAP2 POP POP JUMP JUMPDEST PUSH0 DUP1 REVERT JUMPDEST PUSH0 DUP1 REVERT JUMPDEST PUSH0 PUSH1 0x1F NOT PUSH1 0x1F DUP4 ADD AND SWAP1 POP SWAP2 SWAP1 POP JUMP JUMPDEST PUSH32 0x4E487B7100000000000000000000000000000000000000000000000000000000 PUSH0 MSTORE PUSH1 0x41 PUSH1 0x4 MSTORE PUSH1 0x24 PUSH0 REVERT JUMPDEST PUSH3 0x389 DUP3 PUSH3 0x341 JUMP JUMPDEST DUP2 ADD DUP2 DUP2 LT PUSH8 0xFFFFFFFFFFFFFFFF DUP3 GT OR ISZERO PUSH3 0x3AB JUMPI PUSH3 0x3AA PUSH3 0x351 JUMP JUMPDEST JUMPDEST DUP1 PUSH1 0x40 MSTORE POP POP POP JUMP JUMPDEST PUSH0 PUSH3 0x3BF PUSH3 0x2C7 JUMP JUMPDEST SWAP1 POP PUSH3 0x3CD DUP3 DUP3 PUSH3 0x37E JUMP JUMPDEST SWAP2 SWAP1 POP JUMP JUMPDEST PUSH0 PUSH8 0xFFFFFFFFFFFFFFFF DUP3 GT ISZERO PUSH3 0x3EF JUMPI PUSH3 0x3EE PUSH3 0x351 JUMP JUMPDEST JUMPDEST PUSH3 0x3FA DUP3 PUSH3 0x341 JUMP JUMPDEST SWAP1 POP PUSH1 0x20 DUP2 ADD SWAP1 POP SWAP2 SWAP1 POP JUMP JUMPDEST PUSH0 JUMPDEST DUP4 DUP2 LT ISZERO PUSH3 0x426 JUMPI DUP1 DUP3 ADD MLOAD DUP2 DUP5 ADD MSTORE PUSH1 0x20 DUP2 ADD SWAP1 POP PUSH3 0x409 JUMP JUMPDEST PUSH0 DUP5 DUP5 ADD MSTORE POP POP POP POP JUMP JUMPDEST PUSH0 PUSH3 0x447 PUSH3 0x441 DUP5 PUSH3 0x3D2 JUMP JUMPDEST PUSH3 0x3B4 JUMP JUMPDEST SWAP1 POP DUP3 DUP2 MSTORE PUSH1 0x20 DUP2 ADD DUP5 DUP5 DUP5 ADD GT ISZERO PUSH3 0x466 JUMPI PUSH3 0x465 PUSH3 0x33D JUMP JUMPDEST JUMPDEST PUSH3 0x473 DUP5 DUP3 DUP6 PUSH3 0x407 JUMP JUMPDEST POP SWAP4 SWAP3 POP POP POP JUMP JUMPDEST PUSH0 DUP3 PUSH1 0x1F DUP4 ADD SLT PUSH3 0x492 JUMPI PUSH3 0x491 PUSH3 0x339 JUMP JUMPDEST JUMPDEST DUP2 MLOAD PUSH3 0x4A4 DUP5 DUP3 PUSH1 0x20 DUP7 ADD PUSH3 0x431 JUMP JUMPDEST SWAP2 POP POP SWAP3 SWAP2 POP POP JUMP JUMPDEST PUSH0 PUSH4 0xFFFFFFFF DUP3 AND SWAP1 POP SWAP2 SWAP1 POP JUMP JUMPDEST PUSH3 0x4C7 DUP2 PUSH3 0x4AD JUMP JUMPDEST DUP2 EQ PUSH3 0x4D2 JUMPI PUSH0 DUP1 REVERT JUMPDEST POP JUMP JUMPDEST PUSH0 DUP2 MLOAD SWAP1 POP PUSH3 0x4E5 DUP2 PUSH3 0x4BC JUMP JUMPDEST SWAP3 SWAP2 POP POP JUMP JUMPDEST PUSH0 DUP1 PUSH0 DUP1 PUSH1 0x80 DUP6 DUP8 SUB SLT ISZERO PUSH3 0x506 JUMPI PUSH3 0x505 PUSH3 0x2D0 JUMP JUMPDEST JUMPDEST PUSH0 PUSH3 0x515 DUP8 DUP3 DUP9 ADD PUSH3 0x323 JUMP JUMPDEST SWAP5 POP POP PUSH1 0x20 PUSH3 0x528 DUP8 DUP3 DUP9 ADD PUSH3 0x323 JUMP JUMPDEST SWAP4 POP POP PUSH1 0x40 DUP6 ADD MLOAD PUSH8 0xFFFFFFFFFFFFFFFF DUP2 GT ISZERO PUSH3 0x54C JUMPI PUSH3 0x54B PUSH3 0x2D4 JUMP JUMPDEST JUMPDEST PUSH3 0x55A DUP8 DUP3 DUP9 ADD PUSH3 0x47B JUMP JUMPDEST SWAP3 POP POP PUSH1 0x60 PUSH3 0x56D DUP8 DUP3 DUP9 ADD PUSH3 0x4D5 JUMP JUMPDEST SWAP2 POP POP SWAP3 SWAP6 SWAP2 SWAP5 POP SWAP3 POP JUMP JUMPDEST PUSH3 0x584 DUP2 PUSH3 0x2F7 JUMP JUMPDEST DUP3 MSTORE POP POP JUMP JUMPDEST PUSH0 PUSH1 0x20 DUP3 ADD SWAP1 POP PUSH3 0x59F PUSH0 DUP4 ADD DUP5 PUSH3 0x579 JUMP JUMPDEST SWAP3 SWAP2 POP POP JUMP JUMPDEST PUSH0 DUP2 MLOAD SWAP1 POP SWAP2 SWAP1 POP JUMP JUMPDEST PUSH32 0x4E487B7100000000000000000000000000000000000000000000000000000000 PUSH0 MSTORE PUSH1 0x22 PUSH1 0x4 MSTORE PUSH1 0x24 PUSH0 REVERT JUMPDEST PUSH0 PUSH1 0x2 DUP3 DIV SWAP1 POP PUSH1 0x1 DUP3 AND DUP1 PUSH3 0x5F4 JUMPI PUSH1 0x7F DUP3 AND SWAP2 POP JUMPDEST PUSH1 0x20 DUP3 LT DUP2 SUB PUSH3 0x60A JUMPI PUSH3 0x609 PUSH3 0x5AF JUMP JUMPDEST JUMPDEST POP SWAP2 SWAP1 POP JUMP JUMPDEST PUSH0 DUP2 SWAP1 POP DUP2 PUSH0 MSTORE PUSH1 0x20 PUSH0 KECCAK256 SWAP1 POP SWAP2 SWAP1 POP JUMP JUMPDEST PUSH0 PUSH1 0x20 PUSH1 0x1F DUP4 ADD DIV SWAP1 POP SWAP2 SWAP1 POP JUMP JUMPDEST PUSH0 DUP3 DUP3 SHL SWAP1 POP SWAP3 SWAP2 POP POP JUMP JUMPDEST PUSH0 PUSH1 0x8 DUP4 MUL PUSH3 0x66E PUSH32 0xFFFFFFFFFFFFFFFFFFFFFFFFFFFFFFFFFFFFFFFFFFFFFFFFFFFFFFFFFFFFFFFF DUP3 PUSH3 0x631 JUMP JUMPDEST PUSH3 0x67A DUP7 DUP4 PUSH3 0x631 JUMP JUMPDEST SWAP6 POP DUP1 NOT DUP5 AND SWAP4 POP DUP1 DUP7 AND DUP5 OR SWAP3 POP POP POP SWAP4 SWAP3 POP POP POP JUMP JUMPDEST PUSH0 DUP2 SWAP1 POP SWAP2 SWAP1 POP JUMP JUMPDEST PUSH0 DUP2 SWAP1 POP SWAP2 SWAP1 POP JUMP JUMPDEST PUSH0 PUSH3 0x6C4 PUSH3 0x6BE PUSH3 0x6B8 DUP5 PUSH3 0x692 JUMP JUMPDEST PUSH3 0x69B JUMP JUMPDEST PUSH3 0x692 JUMP JUMPDEST SWAP1 POP SWAP2 SWAP1 POP JUMP JUMPDEST PUSH0 DUP2 SWAP1 POP SWAP2 SWAP1 POP JUMP JUMPDEST PUSH3 0x6DF DUP4 PUSH3 0x6A4 JUMP JUMPDEST PUSH3 0x6F7 PUSH3 0x6EE DUP3 PUSH3 0x6CB JUMP JUMPDEST DUP5 DUP5 SLOAD PUSH3 0x63D JUMP JUMPDEST DUP3 SSTORE POP POP POP POP JUMP JUMPDEST PUSH0 SWAP1 JUMP JUMPDEST PUSH3 0x70D PUSH3 0x6FF JUMP JUMPDEST PUSH3 0x71A DUP2 DUP5 DUP5 PUSH3 0x6D4 JUMP JUMPDEST POP POP POP JUMP JUMPDEST JUMPDEST DUP2 DUP2 LT ISZERO PUSH3 0x741 JUMPI PUSH3 0x735 PUSH0 DUP3 PUSH3 0x703 JUMP JUMPDEST PUSH1 0x1 DUP2 ADD SWAP1 POP PUSH3 0x720 JUMP JUMPDEST POP POP JUMP JUMPDEST PUSH1 0x1F DUP3 GT ISZERO PUSH3 0x790 JUMPI PUSH3 0x75A DUP2 PUSH3 0x610 JUMP JUMPDEST PUSH3 0x765 DUP5 PUSH3 0x622 JUMP JUMPDEST DUP2 ADD PUSH1 0x20 DUP6 LT ISZERO PUSH3 0x775 JUMPI DUP2 SWAP1 POP JUMPDEST PUSH3 0x78D PUSH3 0x784 DUP6 PUSH3 0x622 JUMP JUMPDEST DUP4 ADD DUP3 PUSH3 0x71F JUMP JUMPDEST POP POP JUMPDEST POP POP POP JUMP JUMPDEST PUSH0 DUP3 DUP3 SHR SWAP1 POP SWAP3 SWAP2 POP POP JUMP JUMPDEST PUSH0 PUSH3 0x7B2 PUSH0 NOT DUP5 PUSH1 0x8 MUL PUSH3 0x795 JUMP JUMPDEST NOT DUP1 DUP4 AND SWAP2 POP POP SWAP3 SWAP2 POP POP JUMP JUMPDEST PUSH0 PUSH3 0x7CC DUP4 DUP4 PUSH3 0x7A1 JUMP JUMPDEST SWAP2 POP DUP3 PUSH1 0x2 MUL DUP3 OR SWAP1 POP SWAP3 SWAP2 POP POP JUMP JUMPDEST PUSH3 0x7E7 DUP3 PUSH3 0x5A5 JUMP JUMPDEST PUSH8 0xFFFFFFFFFFFFFFFF DUP2 GT ISZERO PUSH3 0x803 JUMPI PUSH3 0x802 PUSH3 0x351 JUMP JUMPDEST JUMPDEST PUSH3 0x80F DUP3 SLOAD PUSH3 0x5DC JUMP JUMPDEST PUSH3 0x81C DUP3 DUP3 DUP6 PUSH3 0x745 JUMP JUMPDEST PUSH0 PUSH1 0x20 SWAP1 POP PUSH1 0x1F DUP4 GT PUSH1 0x1 DUP2 EQ PUSH3 0x852 JUMPI PUSH0 DUP5 ISZERO PUSH3 0x83D JUMPI DUP3 DUP8 ADD MLOAD SWAP1 POP JUMPDEST PUSH3 0x849 DUP6 DUP3 PUSH3 0x7BF JUMP JUMPDEST DUP7 SSTORE POP PUSH3 0x8B8 JUMP JUMPDEST PUSH1 0x1F NOT DUP5 AND PUSH3 0x862 DUP7 PUSH3 0x610 JUMP JUMPDEST PUSH0 JUMPDEST DUP3 DUP2 LT ISZERO PUSH3 0x88B JUMPI DUP5 DUP10 ADD MLOAD DUP3 SSTORE PUSH1 0x1 DUP3 ADD SWAP2 POP PUSH1 0x20 DUP6 ADD SWAP5 POP PUSH1 0x20 DUP2 ADD SWAP1 POP PUSH3 0x864 JUMP JUMPDEST DUP7 DUP4 LT ISZERO PUSH3 0x8AB JUMPI DUP5 DUP10 ADD MLOAD PUSH3 0x8A7 PUSH1 0x1F DUP10 AND DUP3 PUSH3 0x7A1 JUMP JUMPDEST DUP4 SSTORE POP JUMPDEST PUSH1 0x1 PUSH1 0x2 DUP9 MUL ADD DUP9 SSTORE POP POP POP JUMPDEST POP POP POP POP POP POP JUMP JUMPDEST PUSH1 0x80 MLOAD PUSH2 0x2E70 PUSH3 0x903 PUSH0 CODECOPY PUSH0 DUP2 DUP2 PUSH2 0x577 ADD MSTORE DUP2 DUP2 PUSH2 0x896 ADD MSTORE DUP2 DUP2 PUSH2 0xE1E ADD MSTORE DUP2 DUP2 PUSH2 0x12FF ADD MSTORE DUP2 DUP2 PUSH2 0x156F ADD MSTORE DUP2 DUP2 PUSH2 0x169D ADD MSTORE PUSH2 0x1795 ADD MSTORE PUSH2 0x2E70 PUSH0 RETURN INVALID PUSH1 0x80 PUSH1 0x40 MSTORE PUSH1 0x4 CALLDATASIZE LT PUSH2 0x14A JUMPI PUSH0 CALLDATALOAD PUSH1 0xE0 SHR DUP1 PUSH4 0x82413EAC GT PUSH2 0xB5 JUMPI DUP1 PUSH4 0xBB0B6A53 GT PUSH2 0x6E JUMPI DUP1 PUSH4 0xBB0B6A53 EQ PUSH2 0x431 JUMPI DUP1 PUSH4 0xBCF69541 EQ PUSH2 0x46D JUMPI DUP1 PUSH4 0xCA5EB5E1 EQ PUSH2 0x495 JUMPI DUP1 PUSH4 0xF2FDE38B EQ PUSH2 0x4BD JUMPI DUP1 PUSH4 0xFBEA2E91 EQ PUSH2 0x4E5 JUMPI DUP1 PUSH4 0xFF7BD03D EQ PUSH2 0x522 JUMPI PUSH2 0x14A JUMP JUMPDEST DUP1 PUSH4 0x82413EAC EQ PUSH2 0x335 JUMPI DUP1 PUSH4 0x82E2C43F EQ PUSH2 0x371 JUMPI DUP1 PUSH4 0x847A0D04 EQ PUSH2 0x399 JUMPI DUP1 PUSH4 0x8DA5CB5B EQ PUSH2 0x3C3 JUMPI DUP1 PUSH4 0x959A2492 EQ PUSH2 0x3ED JUMPI DUP1 PUSH4 0xB6AE815A EQ PUSH2 0x409 JUMPI PUSH2 0x14A JUMP JUMPDEST DUP1 PUSH4 0x51CFF8D9 GT PUSH2 0x107 JUMPI DUP1 PUSH4 0x51CFF8D9 EQ PUSH2 0x23D JUMPI DUP1 PUSH4 0x5E280F11 EQ PUSH2 0x265 JUMPI DUP1 PUSH4 0x715018A6 EQ PUSH2 0x28F JUMPI DUP1 PUSH4 0x72D71322 EQ PUSH2 0x2A5 JUMPI DUP1 PUSH4 0x73D4A13A EQ PUSH2 0x2CF JUMPI DUP1 PUSH4 0x7D25A05E EQ PUSH2 0x2F9 JUMPI PUSH2 0x14A JUMP JUMPDEST DUP1 PUSH4 0x13137D65 EQ PUSH2 0x14E JUMPI DUP1 PUSH4 0x17442B70 EQ PUSH2 0x16A JUMPI DUP1 PUSH4 0x3400288B EQ PUSH2 0x195 JUMPI DUP1 PUSH4 0x34788760 EQ PUSH2 0x1BD JUMPI DUP1 PUSH4 0x45FA8AAE EQ PUSH2 0x1E5 JUMPI DUP1 PUSH4 0x4DC62645 EQ PUSH2 0x221 JUMPI JUMPDEST PUSH0 DUP1 REVERT JUMPDEST PUSH2 0x168 PUSH1 0x4 DUP1 CALLDATASIZE SUB DUP2 ADD SWAP1 PUSH2 0x163 SWAP2 SWAP1 PUSH2 0x19E6 JUMP JUMPDEST PUSH2 0x55E JUMP JUMPDEST STOP JUMPDEST CALLVALUE DUP1 ISZERO PUSH2 0x175 JUMPI PUSH0 DUP1 REVERT JUMPDEST POP PUSH2 0x17E PUSH2 0x67E JUMP JUMPDEST PUSH1 0x40 MLOAD PUSH2 0x18C SWAP3 SWAP2 SWAP1 PUSH2 0x1ABF JUMP JUMPDEST PUSH1 0x40 MLOAD DUP1 SWAP2 SUB SWAP1 RETURN JUMPDEST CALLVALUE DUP1 ISZERO PUSH2 0x1A0 JUMPI PUSH0 DUP1 REVERT JUMPDEST POP PUSH2 0x1BB PUSH1 0x4 DUP1 CALLDATASIZE SUB DUP2 ADD SWAP1 PUSH2 0x1B6 SWAP2 SWAP1 PUSH2 0x1B1F JUMP JUMPDEST PUSH2 0x68C JUMP JUMPDEST STOP JUMPDEST CALLVALUE DUP1 ISZERO PUSH2 0x1C8 JUMPI PUSH0 DUP1 REVERT JUMPDEST POP PUSH2 0x1E3 PUSH1 0x4 DUP1 CALLDATASIZE SUB DUP2 ADD SWAP1 PUSH2 0x1DE SWAP2 SWAP1 PUSH2 0x1E4C JUMP JUMPDEST PUSH2 0x6A2 JUMP JUMPDEST STOP JUMPDEST CALLVALUE DUP1 ISZERO PUSH2 0x1F0 JUMPI PUSH0 DUP1 REVERT JUMPDEST POP PUSH2 0x20B PUSH1 0x4 DUP1 CALLDATASIZE SUB DUP2 ADD SWAP1 PUSH2 0x206 SWAP2 SWAP1 PUSH2 0x1EA8 JUMP JUMPDEST PUSH2 0x6A6 JUMP JUMPDEST PUSH1 0x40 MLOAD PUSH2 0x218 SWAP2 SWAP1 PUSH2 0x1F46 JUMP JUMPDEST PUSH1 0x40 MLOAD DUP1 SWAP2 SUB SWAP1 RETURN JUMPDEST PUSH2 0x23B PUSH1 0x4 DUP1 CALLDATASIZE SUB DUP2 ADD SWAP1 PUSH2 0x236 SWAP2 SWAP1 PUSH2 0x1F5F JUMP JUMPDEST PUSH2 0x6CC JUMP JUMPDEST STOP JUMPDEST CALLVALUE DUP1 ISZERO PUSH2 0x248 JUMPI PUSH0 DUP1 REVERT JUMPDEST POP PUSH2 0x263 PUSH1 0x4 DUP1 CALLDATASIZE SUB DUP2 ADD SWAP1 PUSH2 0x25E SWAP2 SWAP1 PUSH2 0x1F9D JUMP JUMPDEST PUSH2 0x79E JUMP JUMPDEST STOP JUMPDEST CALLVALUE DUP1 ISZERO PUSH2 0x270 JUMPI PUSH0 DUP1 REVERT JUMPDEST POP PUSH2 0x279 PUSH2 0x894 JUMP JUMPDEST PUSH1 0x40 MLOAD PUSH2 0x286 SWAP2 SWAP1 PUSH2 0x2023 JUMP JUMPDEST PUSH1 0x40 MLOAD DUP1 SWAP2 SUB SWAP1 RETURN JUMPDEST CALLVALUE DUP1 ISZERO PUSH2 0x29A JUMPI PUSH0 DUP1 REVERT JUMPDEST POP PUSH2 0x2A3 PUSH2 0x8B8 JUMP JUMPDEST STOP JUMPDEST CALLVALUE DUP1 ISZERO PUSH2 0x2B0 JUMPI PUSH0 DUP1 REVERT JUMPDEST POP PUSH2 0x2B9 PUSH2 0x8CB JUMP JUMPDEST PUSH1 0x40 MLOAD PUSH2 0x2C6 SWAP2 SWAP1 PUSH2 0x20B6 JUMP JUMPDEST PUSH1 0x40 MLOAD DUP1 SWAP2 SUB SWAP1 RETURN JUMPDEST CALLVALUE DUP1 ISZERO PUSH2 0x2DA JUMPI PUSH0 DUP1 REVERT JUMPDEST POP PUSH2 0x2E3 PUSH2 0x957 JUMP JUMPDEST PUSH1 0x40 MLOAD PUSH2 0x2F0 SWAP2 SWAP1 PUSH2 0x2128 JUMP JUMPDEST PUSH1 0x40 MLOAD DUP1 SWAP2 SUB SWAP1 RETURN JUMPDEST CALLVALUE DUP1 ISZERO PUSH2 0x304 JUMPI PUSH0 DUP1 REVERT JUMPDEST POP PUSH2 0x31F PUSH1 0x4 DUP1 CALLDATASIZE SUB DUP2 ADD SWAP1 PUSH2 0x31A SWAP2 SWAP1 PUSH2 0x1B1F JUMP JUMPDEST PUSH2 0x9E3 JUMP JUMPDEST PUSH1 0x40 MLOAD PUSH2 0x32C SWAP2 SWAP1 PUSH2 0x2148 JUMP JUMPDEST PUSH1 0x40 MLOAD DUP1 SWAP2 SUB SWAP1 RETURN JUMPDEST CALLVALUE DUP1 ISZERO PUSH2 0x340 JUMPI PUSH0 DUP1 REVERT JUMPDEST POP PUSH2 0x35B PUSH1 0x4 DUP1 CALLDATASIZE SUB DUP2 ADD SWAP1 PUSH2 0x356 SWAP2 SWAP1 PUSH2 0x2161 JUMP JUMPDEST PUSH2 0x9EA JUMP JUMPDEST PUSH1 0x40 MLOAD PUSH2 0x368 SWAP2 SWAP1 PUSH2 0x21E1 JUMP JUMPDEST PUSH1 0x40 MLOAD DUP1 SWAP2 SUB SWAP1 RETURN JUMPDEST CALLVALUE DUP1 ISZERO PUSH2 0x37C JUMPI PUSH0 DUP1 REVERT JUMPDEST POP PUSH2 0x397 PUSH1 0x4 DUP1 CALLDATASIZE SUB DUP2 ADD SWAP1 PUSH2 0x392 SWAP2 SWAP1 PUSH2 0x21FA JUMP JUMPDEST PUSH2 0xA24 JUMP JUMPDEST STOP JUMPDEST CALLVALUE DUP1 ISZERO PUSH2 0x3A4 JUMPI PUSH0 DUP1 REVERT JUMPDEST POP PUSH2 0x3AD PUSH2 0xA2B JUMP JUMPDEST PUSH1 0x40 MLOAD PUSH2 0x3BA SWAP2 SWAP1 PUSH2 0x229A JUMP JUMPDEST PUSH1 0x40 MLOAD DUP1 SWAP2 SUB SWAP1 RETURN JUMPDEST CALLVALUE DUP1 ISZERO PUSH2 0x3CE JUMPI PUSH0 DUP1 REVERT JUMPDEST POP PUSH2 0x3D7 PUSH2 0xA40 JUMP JUMPDEST PUSH1 0x40 MLOAD PUSH2 0x3E4 SWAP2 SWAP1 PUSH2 0x22C2 JUMP JUMPDEST PUSH1 0x40 MLOAD DUP1 SWAP2 SUB SWAP1 RETURN JUMPDEST PUSH2 0x407 PUSH1 0x4 DUP1 CALLDATASIZE SUB DUP2 ADD SWAP1 PUSH2 0x402 SWAP2 SWAP1 PUSH2 0x22FA JUMP JUMPDEST PUSH2 0xA67 JUMP JUMPDEST STOP JUMPDEST CALLVALUE DUP1 ISZERO PUSH2 0x414 JUMPI PUSH0 DUP1 REVERT JUMPDEST POP PUSH2 0x42F PUSH1 0x4 DUP1 CALLDATASIZE SUB DUP2 ADD SWAP1 PUSH2 0x42A SWAP2 SWAP1 PUSH2 0x2359 JUMP JUMPDEST PUSH2 0xD29 JUMP JUMPDEST STOP JUMPDEST CALLVALUE DUP1 ISZERO PUSH2 0x43C JUMPI PUSH0 DUP1 REVERT JUMPDEST POP PUSH2 0x457 PUSH1 0x4 DUP1 CALLDATASIZE SUB DUP2 ADD SWAP1 PUSH2 0x452 SWAP2 SWAP1 PUSH2 0x23ED JUMP JUMPDEST PUSH2 0xDCC JUMP JUMPDEST PUSH1 0x40 MLOAD PUSH2 0x464 SWAP2 SWAP1 PUSH2 0x2427 JUMP JUMPDEST PUSH1 0x40 MLOAD DUP1 SWAP2 SUB SWAP1 RETURN JUMPDEST CALLVALUE DUP1 ISZERO PUSH2 0x478 JUMPI PUSH0 DUP1 REVERT JUMPDEST POP PUSH2 0x493 PUSH1 0x4 DUP1 CALLDATASIZE SUB DUP2 ADD SWAP1 PUSH2 0x48E SWAP2 SWAP1 PUSH2 0x2440 JUMP JUMPDEST PUSH2 0xDE1 JUMP JUMPDEST STOP JUMPDEST CALLVALUE DUP1 ISZERO PUSH2 0x4A0 JUMPI PUSH0 DUP1 REVERT JUMPDEST POP PUSH2 0x4BB PUSH1 0x4 DUP1 CALLDATASIZE SUB DUP2 ADD SWAP1 PUSH2 0x4B6 SWAP2 SWAP1 PUSH2 0x1F9D JUMP JUMPDEST PUSH2 0xE14 JUMP JUMPDEST STOP JUMPDEST CALLVALUE DUP1 ISZERO PUSH2 0x4C8 JUMPI PUSH0 DUP1 REVERT JUMPDEST POP PUSH2 0x4E3 PUSH1 0x4 DUP1 CALLDATASIZE SUB DUP2 ADD SWAP1 PUSH2 0x4DE SWAP2 SWAP1 PUSH2 0x1F9D JUMP JUMPDEST PUSH2 0xEA5 JUMP JUMPDEST STOP JUMPDEST CALLVALUE DUP1 ISZERO PUSH2 0x4F0 JUMPI PUSH0 DUP1 REVERT JUMPDEST POP PUSH2 0x50B PUSH1 0x4 DUP1 CALLDATASIZE SUB DUP2 ADD SWAP1 PUSH2 0x506 SWAP2 SWAP1 PUSH2 0x251C JUMP JUMPDEST PUSH2 0xF29 JUMP JUMPDEST PUSH1 0x40 MLOAD PUSH2 0x519 SWAP3 SWAP2 SWAP1 PUSH2 0x2597 JUMP JUMPDEST PUSH1 0x40 MLOAD DUP1 SWAP2 SUB SWAP1 RETURN JUMPDEST CALLVALUE DUP1 ISZERO PUSH2 0x52D JUMPI PUSH0 DUP1 REVERT JUMPDEST POP PUSH2 0x548 PUSH1 0x4 DUP1 CALLDATASIZE SUB DUP2 ADD SWAP1 PUSH2 0x543 SWAP2 SWAP1 PUSH2 0x25BE JUMP JUMPDEST PUSH2 0xFFC JUMP JUMPDEST PUSH1 0x40 MLOAD PUSH2 0x555 SWAP2 SWAP1 PUSH2 0x21E1 JUMP JUMPDEST PUSH1 0x40 MLOAD DUP1 SWAP2 SUB SWAP1 RETURN JUMPDEST CALLER PUSH20 0xFFFFFFFFFFFFFFFFFFFFFFFFFFFFFFFFFFFFFFFF AND PUSH32 0x0 PUSH20 0xFFFFFFFFFFFFFFFFFFFFFFFFFFFFFFFFFFFFFFFF AND EQ PUSH2 0x5EE JUMPI CALLER PUSH1 0x40 MLOAD PUSH32 0x91AC5E4F00000000000000000000000000000000000000000000000000000000 DUP2 MSTORE PUSH1 0x4 ADD PUSH2 0x5E5 SWAP2 SWAP1 PUSH2 0x22C2 JUMP JUMPDEST PUSH1 0x40 MLOAD DUP1 SWAP2 SUB SWAP1 REVERT JUMPDEST DUP7 PUSH1 0x20 ADD CALLDATALOAD PUSH2 0x60D DUP9 PUSH0 ADD PUSH1 0x20 DUP2 ADD SWAP1 PUSH2 0x608 SWAP2 SWAP1 PUSH2 0x23ED JUMP JUMPDEST PUSH2 0x1039 JUMP JUMPDEST EQ PUSH2 0x666 JUMPI DUP7 PUSH0 ADD PUSH1 0x20 DUP2 ADD SWAP1 PUSH2 0x624 SWAP2 SWAP1 PUSH2 0x23ED JUMP JUMPDEST DUP8 PUSH1 0x20 ADD CALLDATALOAD PUSH1 0x40 MLOAD PUSH32 0xC26BEBCC00000000000000000000000000000000000000000000000000000000 DUP2 MSTORE PUSH1 0x4 ADD PUSH2 0x65D SWAP3 SWAP2 SWAP1 PUSH2 0x25E9 JUMP JUMPDEST PUSH1 0x40 MLOAD DUP1 SWAP2 SUB SWAP1 REVERT JUMPDEST PUSH2 0x675 DUP8 DUP8 DUP8 DUP8 DUP8 DUP8 DUP8 PUSH2 0x10AA JUMP JUMPDEST POP POP POP POP POP POP POP JUMP JUMPDEST PUSH0 DUP1 PUSH1 0x1 PUSH1 0x2 SWAP2 POP SWAP2 POP SWAP1 SWAP2 JUMP JUMPDEST PUSH2 0x694 PUSH2 0x11E6 JUMP JUMPDEST PUSH2 0x69E DUP3 DUP3 PUSH2 0x126D JUMP JUMPDEST POP POP JUMP JUMPDEST POP POP JUMP JUMPDEST PUSH0 PUSH1 0x6 PUSH0 DUP4 DUP2 MSTORE PUSH1 0x20 ADD SWAP1 DUP2 MSTORE PUSH1 0x20 ADD PUSH0 KECCAK256 PUSH0 SWAP1 SLOAD SWAP1 PUSH2 0x100 EXP SWAP1 DIV PUSH1 0xFF AND SWAP1 POP SWAP2 SWAP1 POP JUMP JUMPDEST PUSH0 DUP2 PUSH1 0x40 MLOAD PUSH1 0x20 ADD PUSH2 0x6DE SWAP2 SWAP1 PUSH2 0x2610 JUMP JUMPDEST PUSH1 0x40 MLOAD PUSH1 0x20 DUP2 DUP4 SUB SUB DUP2 MSTORE SWAP1 PUSH1 0x40 MSTORE SWAP1 POP PUSH2 0x798 DUP4 DUP3 PUSH1 0x3 DUP1 SLOAD PUSH2 0x701 SWAP1 PUSH2 0x2656 JUMP JUMPDEST DUP1 PUSH1 0x1F ADD PUSH1 0x20 DUP1 SWAP2 DIV MUL PUSH1 0x20 ADD PUSH1 0x40 MLOAD SWAP1 DUP2 ADD PUSH1 0x40 MSTORE DUP1 SWAP3 SWAP2 SWAP1 DUP2 DUP2 MSTORE PUSH1 0x20 ADD DUP3 DUP1 SLOAD PUSH2 0x72D SWAP1 PUSH2 0x2656 JUMP JUMPDEST DUP1 ISZERO PUSH2 0x778 JUMPI DUP1 PUSH1 0x1F LT PUSH2 0x74F JUMPI PUSH2 0x100 DUP1 DUP4 SLOAD DIV MUL DUP4 MSTORE SWAP2 PUSH1 0x20 ADD SWAP2 PUSH2 0x778 JUMP JUMPDEST DUP3 ADD SWAP2 SWAP1 PUSH0 MSTORE PUSH1 0x20 PUSH0 KECCAK256 SWAP1 JUMPDEST DUP2 SLOAD DUP2 MSTORE SWAP1 PUSH1 0x1 ADD SWAP1 PUSH1 0x20 ADD DUP1 DUP4 GT PUSH2 0x75B JUMPI DUP3 SWAP1 SUB PUSH1 0x1F AND DUP3 ADD SWAP2 JUMPDEST POP POP POP POP POP PUSH1 0x40 MLOAD DUP1 PUSH1 0x40 ADD PUSH1 0x40 MSTORE DUP1 CALLVALUE DUP2 MSTORE PUSH1 0x20 ADD PUSH0 DUP2 MSTORE POP CALLER PUSH2 0x12CC JUMP JUMPDEST POP POP POP POP JUMP JUMPDEST DUP1 PUSH20 0xFFFFFFFFFFFFFFFFFFFFFFFFFFFFFFFFFFFFFFFF AND PUSH4 0xA9059CBB CALLER DUP4 PUSH20 0xFFFFFFFFFFFFFFFFFFFFFFFFFFFFFFFFFFFFFFFF AND PUSH4 0x70A08231 ADDRESS PUSH1 0x40 MLOAD DUP3 PUSH4 0xFFFFFFFF AND PUSH1 0xE0 SHL DUP2 MSTORE PUSH1 0x4 ADD PUSH2 0x7F4 SWAP2 SWAP1 PUSH2 0x22C2 JUMP JUMPDEST PUSH1 0x20 PUSH1 0x40 MLOAD DUP1 DUP4 SUB DUP2 DUP7 GAS STATICCALL ISZERO DUP1 ISZERO PUSH2 0x80F JUMPI RETURNDATASIZE PUSH0 DUP1 RETURNDATACOPY RETURNDATASIZE PUSH0 REVERT JUMPDEST POP POP POP POP PUSH1 0x40 MLOAD RETURNDATASIZE PUSH1 0x1F NOT PUSH1 0x1F DUP3 ADD AND DUP3 ADD DUP1 PUSH1 0x40 MSTORE POP DUP2 ADD SWAP1 PUSH2 0x833 SWAP2 SWAP1 PUSH2 0x269A JUMP JUMPDEST PUSH1 0x40 MLOAD DUP4 PUSH4 0xFFFFFFFF AND PUSH1 0xE0 SHL DUP2 MSTORE PUSH1 0x4 ADD PUSH2 0x850 SWAP3 SWAP2 SWAP1 PUSH2 0x26C5 JUMP JUMPDEST PUSH1 0x20 PUSH1 0x40 MLOAD DUP1 DUP4 SUB DUP2 PUSH0 DUP8 GAS CALL ISZERO DUP1 ISZERO PUSH2 0x86C JUMPI RETURNDATASIZE PUSH0 DUP1 RETURNDATACOPY RETURNDATASIZE PUSH0 REVERT JUMPDEST POP POP POP POP PUSH1 0x40 MLOAD RETURNDATASIZE PUSH1 0x1F NOT PUSH1 0x1F DUP3 ADD AND DUP3 ADD DUP1 PUSH1 0x40 MSTORE POP DUP2 ADD SWAP1 PUSH2 0x890 SWAP2 SWAP1 PUSH2 0x2700 JUMP JUMPDEST POP POP JUMP JUMPDEST PUSH32 0x0 DUP2 JUMP JUMPDEST PUSH2 0x8C0 PUSH2 0x11E6 JUMP JUMPDEST PUSH2 0x8C9 PUSH0 PUSH2 0x13E2 JUMP JUMPDEST JUMP JUMPDEST PUSH1 0x3 DUP1 SLOAD PUSH2 0x8D8 SWAP1 PUSH2 0x2656 JUMP JUMPDEST DUP1 PUSH1 0x1F ADD PUSH1 0x20 DUP1 SWAP2 DIV MUL PUSH1 0x20 ADD PUSH1 0x40 MLOAD SWAP1 DUP2 ADD PUSH1 0x40 MSTORE DUP1 SWAP3 SWAP2 SWAP1 DUP2 DUP2 MSTORE PUSH1 0x20 ADD DUP3 DUP1 SLOAD PUSH2 0x904 SWAP1 PUSH2 0x2656 JUMP JUMPDEST DUP1 ISZERO PUSH2 0x94F JUMPI DUP1 PUSH1 0x1F LT PUSH2 0x926 JUMPI PUSH2 0x100 DUP1 DUP4 SLOAD DIV MUL DUP4 MSTORE SWAP2 PUSH1 0x20 ADD SWAP2 PUSH2 0x94F JUMP JUMPDEST DUP3 ADD SWAP2 SWAP1 PUSH0 MSTORE PUSH1 0x20 PUSH0 KECCAK256 SWAP1 JUMPDEST DUP2 SLOAD DUP2 MSTORE SWAP1 PUSH1 0x1 ADD SWAP1 PUSH1 0x20 ADD DUP1 DUP4 GT PUSH2 0x932 JUMPI DUP3 SWAP1 SUB PUSH1 0x1F AND DUP3 ADD SWAP2 JUMPDEST POP POP POP POP POP DUP2 JUMP JUMPDEST PUSH1 0x2 DUP1 SLOAD PUSH2 0x964 SWAP1 PUSH2 0x2656 JUMP JUMPDEST DUP1 PUSH1 0x1F ADD PUSH1 0x20 DUP1 SWAP2 DIV MUL PUSH1 0x20 ADD PUSH1 0x40 MLOAD SWAP1 DUP2 ADD PUSH1 0x40 MSTORE DUP1 SWAP3 SWAP2 SWAP1 DUP2 DUP2 MSTORE PUSH1 0x20 ADD DUP3 DUP1 SLOAD PUSH2 0x990 SWAP1 PUSH2 0x2656 JUMP JUMPDEST DUP1 ISZERO PUSH2 0x9DB JUMPI DUP1 PUSH1 0x1F LT PUSH2 0x9B2 JUMPI PUSH2 0x100 DUP1 DUP4 SLOAD DIV MUL DUP4 MSTORE SWAP2 PUSH1 0x20 ADD SWAP2 PUSH2 0x9DB JUMP JUMPDEST DUP3 ADD SWAP2 SWAP1 PUSH0 MSTORE PUSH1 0x20 PUSH0 KECCAK256 SWAP1 JUMPDEST DUP2 SLOAD DUP2 MSTORE SWAP1 PUSH1 0x1 ADD SWAP1 PUSH1 0x20 ADD DUP1 DUP4 GT PUSH2 0x9BE JUMPI DUP3 SWAP1 SUB PUSH1 0x1F AND DUP3 ADD SWAP2 JUMPDEST POP POP POP POP POP DUP2 JUMP JUMPDEST PUSH0 SWAP3 SWAP2 POP POP JUMP JUMPDEST PUSH0 ADDRESS PUSH20 0xFFFFFFFFFFFFFFFFFFFFFFFFFFFFFFFFFFFFFFFF AND DUP3 PUSH20 0xFFFFFFFFFFFFFFFFFFFFFFFFFFFFFFFFFFFFFFFF AND EQ SWAP1 POP SWAP5 SWAP4 POP POP POP POP JUMP JUMPDEST POP POP POP POP POP JUMP JUMPDEST PUSH1 0x7 PUSH0 SWAP1 SLOAD SWAP1 PUSH2 0x100 EXP SWAP1 DIV PUSH4 0xFFFFFFFF AND DUP2 JUMP JUMPDEST PUSH0 DUP1 PUSH0 SWAP1 SLOAD SWAP1 PUSH2 0x100 EXP SWAP1 DIV PUSH20 0xFFFFFFFFFFFFFFFFFFFFFFFFFFFFFFFFFFFFFFFF AND SWAP1 POP SWAP1 JUMP JUMPDEST PUSH1 0x3 PUSH1 0x4 DUP2 GT ISZERO PUSH2 0xA7B JUMPI PUSH2 0xA7A PUSH2 0x1ED3 JUMP JUMPDEST JUMPDEST PUSH1 0x6 PUSH0 DUP6 PUSH1 0x40 ADD CALLDATALOAD DUP2 MSTORE PUSH1 0x20 ADD SWAP1 DUP2 MSTORE PUSH1 0x20 ADD PUSH0 KECCAK256 PUSH0 SWAP1 SLOAD SWAP1 PUSH2 0x100 EXP SWAP1 DIV PUSH1 0xFF AND PUSH1 0x4 DUP2 GT ISZERO PUSH2 0xAAF JUMPI PUSH2 0xAAE PUSH2 0x1ED3 JUMP JUMPDEST JUMPDEST SUB PUSH2 0xAEF JUMPI PUSH1 0x40 MLOAD PUSH32 0x8C379A000000000000000000000000000000000000000000000000000000000 DUP2 MSTORE PUSH1 0x4 ADD PUSH2 0xAE6 SWAP1 PUSH2 0x2775 JUMP JUMPDEST PUSH1 0x40 MLOAD DUP1 SWAP2 SUB SWAP1 REVERT JUMPDEST PUSH1 0x2 PUSH1 0x4 DUP2 GT ISZERO PUSH2 0xB03 JUMPI PUSH2 0xB02 PUSH2 0x1ED3 JUMP JUMPDEST JUMPDEST PUSH1 0x6 PUSH0 DUP6 PUSH1 0x40 ADD CALLDATALOAD DUP2 MSTORE PUSH1 0x20 ADD SWAP1 DUP2 MSTORE PUSH1 0x20 ADD PUSH0 KECCAK256 PUSH0 SWAP1 SLOAD SWAP1 PUSH2 0x100 EXP SWAP1 DIV PUSH1 0xFF AND PUSH1 0x4 DUP2 GT ISZERO PUSH2 0xB37 JUMPI PUSH2 0xB36 PUSH2 0x1ED3 JUMP JUMPDEST JUMPDEST EQ PUSH2 0xB77 JUMPI PUSH1 0x40 MLOAD PUSH32 0x8C379A000000000000000000000000000000000000000000000000000000000 DUP2 MSTORE PUSH1 0x4 ADD PUSH2 0xB6E SWAP1 PUSH2 0x2803 JUMP JUMPDEST PUSH1 0x40 MLOAD DUP1 SWAP2 SUB SWAP1 REVERT JUMPDEST PUSH0 DUP1 DUP4 DUP4 DUP2 ADD SWAP1 PUSH2 0xB88 SWAP2 SWAP1 PUSH2 0x285C JUMP JUMPDEST SWAP2 POP SWAP2 POP DUP5 PUSH2 0x120 ADD PUSH1 0x20 DUP2 ADD SWAP1 PUSH2 0xBA0 SWAP2 SWAP1 PUSH2 0x1F9D JUMP JUMPDEST PUSH20 0xFFFFFFFFFFFFFFFFFFFFFFFFFFFFFFFFFFFFFFFF AND PUSH4 0x23B872DD DUP4 DUP8 PUSH1 0x20 ADD PUSH1 0x20 DUP2 ADD SWAP1 PUSH2 0xBCF SWAP2 SWAP1 PUSH2 0x1F9D JUMP JUMPDEST DUP5 DUP10 PUSH2 0x160 ADD CALLDATALOAD PUSH2 0xBE0 SWAP2 SWAP1 PUSH2 0x28C7 JUMP JUMPDEST PUSH1 0x40 MLOAD DUP5 PUSH4 0xFFFFFFFF AND PUSH1 0xE0 SHL DUP2 MSTORE PUSH1 0x4 ADD PUSH2 0xBFE SWAP4 SWAP3 SWAP2 SWAP1 PUSH2 0x28FA JUMP JUMPDEST PUSH1 0x20 PUSH1 0x40 MLOAD DUP1 DUP4 SUB DUP2 PUSH0 DUP8 GAS CALL ISZERO DUP1 ISZERO PUSH2 0xC1A JUMPI RETURNDATASIZE PUSH0 DUP1 RETURNDATACOPY RETURNDATASIZE PUSH0 REVERT JUMPDEST POP POP POP POP PUSH1 0x40 MLOAD RETURNDATASIZE PUSH1 0x1F NOT PUSH1 0x1F DUP3 ADD AND DUP3 ADD DUP1 PUSH1 0x40 MSTORE POP DUP2 ADD SWAP1 PUSH2 0xC3E SWAP2 SWAP1 PUSH2 0x2700 JUMP JUMPDEST POP PUSH0 DUP6 DUP4 PUSH1 0x40 MLOAD PUSH1 0x20 ADD PUSH2 0xC53 SWAP3 SWAP2 SWAP1 PUSH2 0x2B51 JUMP JUMPDEST PUSH1 0x40 MLOAD PUSH1 0x20 DUP2 DUP4 SUB SUB DUP2 MSTORE SWAP1 PUSH1 0x40 MSTORE SWAP1 POP PUSH2 0xD20 DUP7 PUSH2 0x180 ADD PUSH1 0x20 DUP2 ADD SWAP1 PUSH2 0xC7B SWAP2 SWAP1 PUSH2 0x23ED JUMP JUMPDEST DUP3 PUSH1 0x3 DUP1 SLOAD PUSH2 0xC89 SWAP1 PUSH2 0x2656 JUMP JUMPDEST DUP1 PUSH1 0x1F ADD PUSH1 0x20 DUP1 SWAP2 DIV MUL PUSH1 0x20 ADD PUSH1 0x40 MLOAD SWAP1 DUP2 ADD PUSH1 0x40 MSTORE DUP1 SWAP3 SWAP2 SWAP1 DUP2 DUP2 MSTORE PUSH1 0x20 ADD DUP3 DUP1 SLOAD PUSH2 0xCB5 SWAP1 PUSH2 0x2656 JUMP JUMPDEST DUP1 ISZERO PUSH2 0xD00 JUMPI DUP1 PUSH1 0x1F LT PUSH2 0xCD7 JUMPI PUSH2 0x100 DUP1 DUP4 SLOAD DIV MUL DUP4 MSTORE SWAP2 PUSH1 0x20 ADD SWAP2 PUSH2 0xD00 JUMP JUMPDEST DUP3 ADD SWAP2 SWAP1 PUSH0 MSTORE PUSH1 0x20 PUSH0 KECCAK256 SWAP1 JUMPDEST DUP2 SLOAD DUP2 MSTORE SWAP1 PUSH1 0x1 ADD SWAP1 PUSH1 0x20 ADD DUP1 DUP4 GT PUSH2 0xCE3 JUMPI DUP3 SWAP1 SUB PUSH1 0x1F AND DUP3 ADD SWAP2 JUMPDEST POP POP POP POP POP PUSH1 0x40 MLOAD DUP1 PUSH1 0x40 ADD PUSH1 0x40 MSTORE DUP1 CALLVALUE DUP2 MSTORE PUSH1 0x20 ADD PUSH0 DUP2 MSTORE POP CALLER PUSH2 0x12CC JUMP JUMPDEST POP POP POP POP POP POP POP JUMP JUMPDEST PUSH0 PUSH1 0x6 PUSH0 DUP8 PUSH1 0x40 ADD CALLDATALOAD DUP2 MSTORE PUSH1 0x20 ADD SWAP1 DUP2 MSTORE PUSH1 0x20 ADD PUSH0 KECCAK256 PUSH0 PUSH2 0x100 EXP DUP2 SLOAD DUP2 PUSH1 0xFF MUL NOT AND SWAP1 DUP4 PUSH1 0x4 DUP2 GT ISZERO PUSH2 0xD60 JUMPI PUSH2 0xD5F PUSH2 0x1ED3 JUMP JUMPDEST JUMPDEST MUL OR SWAP1 SSTORE POP PUSH2 0xD6E DUP6 PUSH2 0x14A3 JUMP JUMPDEST PUSH2 0xDC5 DUP6 PUSH1 0x20 ADD PUSH1 0x20 DUP2 ADD SWAP1 PUSH2 0xD84 SWAP2 SWAP1 PUSH2 0x1F9D JUMP JUMPDEST ADDRESS DUP8 PUSH2 0x140 ADD CALLDATALOAD DUP9 PUSH2 0x100 ADD PUSH1 0x20 DUP2 ADD SWAP1 PUSH2 0xD9F SWAP2 SWAP1 PUSH2 0x1F9D JUMP JUMPDEST PUSH20 0xFFFFFFFFFFFFFFFFFFFFFFFFFFFFFFFFFFFFFFFF AND PUSH2 0x14E3 SWAP1 SWAP4 SWAP3 SWAP2 SWAP1 PUSH4 0xFFFFFFFF AND JUMP JUMPDEST POP POP POP POP POP JUMP JUMPDEST PUSH1 0x1 PUSH1 0x20 MSTORE DUP1 PUSH0 MSTORE PUSH1 0x40 PUSH0 KECCAK256 PUSH0 SWAP2 POP SWAP1 POP SLOAD DUP2 JUMP JUMPDEST PUSH2 0xDE9 PUSH2 0x11E6 JUMP JUMPDEST PUSH0 DUP2 PUSH20 0xFFFFFFFFFFFFFFFFFFFFFFFFFFFFFFFFFFFFFFFF AND PUSH0 SHL SWAP1 POP PUSH2 0xE0F DUP4 DUP3 PUSH2 0x126D JUMP JUMPDEST POP POP POP JUMP JUMPDEST PUSH2 0xE1C PUSH2 0x11E6 JUMP JUMPDEST PUSH32 0x0 PUSH20 0xFFFFFFFFFFFFFFFFFFFFFFFFFFFFFFFFFFFFFFFF AND PUSH4 0xCA5EB5E1 DUP3 PUSH1 0x40 MLOAD DUP3 PUSH4 0xFFFFFFFF AND PUSH1 0xE0 SHL DUP2 MSTORE PUSH1 0x4 ADD PUSH2 0xE75 SWAP2 SWAP1 PUSH2 0x22C2 JUMP JUMPDEST PUSH0 PUSH1 0x40 MLOAD DUP1 DUP4 SUB DUP2 PUSH0 DUP8 DUP1 EXTCODESIZE ISZERO DUP1 ISZERO PUSH2 0xE8C JUMPI PUSH0 DUP1 REVERT JUMPDEST POP GAS CALL ISZERO DUP1 ISZERO PUSH2 0xE9E JUMPI RETURNDATASIZE PUSH0 DUP1 RETURNDATACOPY RETURNDATASIZE PUSH0 REVERT JUMPDEST POP POP POP POP POP JUMP JUMPDEST PUSH2 0xEAD PUSH2 0x11E6 JUMP JUMPDEST PUSH0 PUSH20 0xFFFFFFFFFFFFFFFFFFFFFFFFFFFFFFFFFFFFFFFF AND DUP2 PUSH20 0xFFFFFFFFFFFFFFFFFFFFFFFFFFFFFFFFFFFFFFFF AND SUB PUSH2 0xF1D JUMPI PUSH0 PUSH1 0x40 MLOAD PUSH32 0x1E4FBDF700000000000000000000000000000000000000000000000000000000 DUP2 MSTORE PUSH1 0x4 ADD PUSH2 0xF14 SWAP2 SWAP1 PUSH2 0x22C2 JUMP JUMPDEST PUSH1 0x40 MLOAD DUP1 SWAP2 SUB SWAP1 REVERT JUMPDEST PUSH2 0xF26 DUP2 PUSH2 0x13E2 JUMP JUMPDEST POP JUMP JUMPDEST PUSH0 DUP1 PUSH0 DUP5 PUSH1 0x40 MLOAD PUSH1 0x20 ADD PUSH2 0xF3D SWAP2 SWAP1 PUSH2 0x2128 JUMP JUMPDEST PUSH1 0x40 MLOAD PUSH1 0x20 DUP2 DUP4 SUB SUB DUP2 MSTORE SWAP1 PUSH1 0x40 MSTORE SWAP1 POP PUSH0 PUSH2 0xFE3 DUP8 DUP4 PUSH1 0x3 DUP1 SLOAD PUSH2 0xF61 SWAP1 PUSH2 0x2656 JUMP JUMPDEST DUP1 PUSH1 0x1F ADD PUSH1 0x20 DUP1 SWAP2 DIV MUL PUSH1 0x20 ADD PUSH1 0x40 MLOAD SWAP1 DUP2 ADD PUSH1 0x40 MSTORE DUP1 SWAP3 SWAP2 SWAP1 DUP2 DUP2 MSTORE PUSH1 0x20 ADD DUP3 DUP1 SLOAD PUSH2 0xF8D SWAP1 PUSH2 0x2656 JUMP JUMPDEST DUP1 ISZERO PUSH2 0xFD8 JUMPI DUP1 PUSH1 0x1F LT PUSH2 0xFAF JUMPI PUSH2 0x100 DUP1 DUP4 SLOAD DIV MUL DUP4 MSTORE SWAP2 PUSH1 0x20 ADD SWAP2 PUSH2 0xFD8 JUMP JUMPDEST DUP3 ADD SWAP2 SWAP1 PUSH0 MSTORE PUSH1 0x20 PUSH0 KECCAK256 SWAP1 JUMPDEST DUP2 SLOAD DUP2 MSTORE SWAP1 PUSH1 0x1 ADD SWAP1 PUSH1 0x20 ADD DUP1 DUP4 GT PUSH2 0xFBB JUMPI DUP3 SWAP1 SUB PUSH1 0x1F AND DUP3 ADD SWAP2 JUMPDEST POP POP POP POP POP DUP9 PUSH2 0x1565 JUMP JUMPDEST SWAP1 POP DUP1 PUSH0 ADD MLOAD DUP2 PUSH1 0x20 ADD MLOAD SWAP4 POP SWAP4 POP POP POP SWAP4 POP SWAP4 SWAP2 POP POP JUMP JUMPDEST PUSH0 DUP2 PUSH1 0x20 ADD CALLDATALOAD PUSH1 0x1 PUSH0 DUP5 PUSH0 ADD PUSH1 0x20 DUP2 ADD SWAP1 PUSH2 0x1017 SWAP2 SWAP1 PUSH2 0x23ED JUMP JUMPDEST PUSH4 0xFFFFFFFF AND PUSH4 0xFFFFFFFF AND DUP2 MSTORE PUSH1 0x20 ADD SWAP1 DUP2 MSTORE PUSH1 0x20 ADD PUSH0 KECCAK256 SLOAD EQ SWAP1 POP SWAP2 SWAP1 POP JUMP JUMPDEST PUSH0 DUP1 PUSH1 0x1 PUSH0 DUP5 PUSH4 0xFFFFFFFF AND PUSH4 0xFFFFFFFF AND DUP2 MSTORE PUSH1 0x20 ADD SWAP1 DUP2 MSTORE PUSH1 0x20 ADD PUSH0 KECCAK256 SLOAD SWAP1 POP PUSH0 DUP1 SHL DUP2 SUB PUSH2 0x10A1 JUMPI DUP3 PUSH1 0x40 MLOAD PUSH32 0xF6FF4FB700000000000000000000000000000000000000000000000000000000 DUP2 MSTORE PUSH1 0x4 ADD PUSH2 0x1098 SWAP2 SWAP1 PUSH2 0x229A JUMP JUMPDEST PUSH1 0x40 MLOAD DUP1 SWAP2 SUB SWAP1 REVERT JUMPDEST DUP1 SWAP2 POP POP SWAP2 SWAP1 POP JUMP JUMPDEST PUSH0 DUP1 DUP7 DUP7 DUP2 ADD SWAP1 PUSH2 0x10BB SWAP2 SWAP1 PUSH2 0x2B7A JUMP JUMPDEST SWAP2 POP SWAP2 POP PUSH1 0x1 ISZERO ISZERO DUP3 PUSH2 0x1A0 ADD MLOAD ISZERO ISZERO SUB PUSH2 0x1112 JUMPI PUSH1 0x2 PUSH1 0x6 PUSH0 DUP5 PUSH1 0x40 ADD MLOAD DUP2 MSTORE PUSH1 0x20 ADD SWAP1 DUP2 MSTORE PUSH1 0x20 ADD PUSH0 KECCAK256 PUSH0 PUSH2 0x100 EXP DUP2 SLOAD DUP2 PUSH1 0xFF MUL NOT AND SWAP1 DUP4 PUSH1 0x4 DUP2 GT ISZERO PUSH2 0x1108 JUMPI PUSH2 0x1107 PUSH2 0x1ED3 JUMP JUMPDEST JUMPDEST MUL OR SWAP1 SSTORE POP PUSH2 0x11DB JUMP JUMPDEST PUSH1 0x3 PUSH1 0x6 PUSH0 DUP5 PUSH1 0x40 ADD MLOAD DUP2 MSTORE PUSH1 0x20 ADD SWAP1 DUP2 MSTORE PUSH1 0x20 ADD PUSH0 KECCAK256 PUSH0 PUSH2 0x100 EXP DUP2 SLOAD DUP2 PUSH1 0xFF MUL NOT AND SWAP1 DUP4 PUSH1 0x4 DUP2 GT ISZERO PUSH2 0x114A JUMPI PUSH2 0x1149 PUSH2 0x1ED3 JUMP JUMPDEST JUMPDEST MUL OR SWAP1 SSTORE POP DUP2 PUSH2 0x100 ADD MLOAD PUSH20 0xFFFFFFFFFFFFFFFFFFFFFFFFFFFFFFFFFFFFFFFF AND PUSH4 0x23B872DD DUP4 PUSH0 ADD MLOAD DUP4 DUP6 PUSH2 0x140 ADD MLOAD PUSH1 0x40 MLOAD DUP5 PUSH4 0xFFFFFFFF AND PUSH1 0xE0 SHL DUP2 MSTORE PUSH1 0x4 ADD PUSH2 0x1199 SWAP4 SWAP3 SWAP2 SWAP1 PUSH2 0x28FA JUMP JUMPDEST PUSH1 0x20 PUSH1 0x40 MLOAD DUP1 DUP4 SUB DUP2 PUSH0 DUP8 GAS CALL ISZERO DUP1 ISZERO PUSH2 0x11B5 JUMPI RETURNDATASIZE PUSH0 DUP1 RETURNDATACOPY RETURNDATASIZE PUSH0 REVERT JUMPDEST POP POP POP POP PUSH1 0x40 MLOAD RETURNDATASIZE PUSH1 0x1F NOT PUSH1 0x1F DUP3 ADD AND DUP3 ADD DUP1 PUSH1 0x40 MSTORE POP DUP2 ADD SWAP1 PUSH2 0x11D9 SWAP2 SWAP1 PUSH2 0x2700 JUMP JUMPDEST POP JUMPDEST POP POP POP POP POP POP POP POP POP JUMP JUMPDEST PUSH2 0x11EE PUSH2 0x1646 JUMP JUMPDEST PUSH20 0xFFFFFFFFFFFFFFFFFFFFFFFFFFFFFFFFFFFFFFFF AND PUSH2 0x120C PUSH2 0xA40 JUMP JUMPDEST PUSH20 0xFFFFFFFFFFFFFFFFFFFFFFFFFFFFFFFFFFFFFFFF AND EQ PUSH2 0x126B JUMPI PUSH2 0x122F PUSH2 0x1646 JUMP JUMPDEST PUSH1 0x40 MLOAD PUSH32 0x118CDAA700000000000000000000000000000000000000000000000000000000 DUP2 MSTORE PUSH1 0x4 ADD PUSH2 0x1262 SWAP2 SWAP1 PUSH2 0x22C2 JUMP JUMPDEST PUSH1 0x40 MLOAD DUP1 SWAP2 SUB SWAP1 REVERT JUMPDEST JUMP JUMPDEST DUP1 PUSH1 0x1 PUSH0 DUP5 PUSH4 0xFFFFFFFF AND PUSH4 0xFFFFFFFF AND DUP2 MSTORE PUSH1 0x20 ADD SWAP1 DUP2 MSTORE PUSH1 0x20 ADD PUSH0 KECCAK256 DUP2 SWAP1 SSTORE POP PUSH32 0x238399D427B947898EDB290F5FF0F9109849B1C3BA196A42E35F00C50A54B98B DUP3 DUP3 PUSH1 0x40 MLOAD PUSH2 0x12C0 SWAP3 SWAP2 SWAP1 PUSH2 0x25E9 JUMP JUMPDEST PUSH1 0x40 MLOAD DUP1 SWAP2 SUB SWAP1 LOG1 POP POP JUMP JUMPDEST PUSH2 0x12D4 PUSH2 0x187B JUMP JUMPDEST PUSH0 PUSH2 0x12E1 DUP5 PUSH0 ADD MLOAD PUSH2 0x164D JUMP JUMPDEST SWAP1 POP PUSH0 DUP5 PUSH1 0x20 ADD MLOAD GT ISZERO PUSH2 0x12FD JUMPI PUSH2 0x12FC DUP5 PUSH1 0x20 ADD MLOAD PUSH2 0x169A JUMP JUMPDEST JUMPDEST PUSH32 0x0 PUSH20 0xFFFFFFFFFFFFFFFFFFFFFFFFFFFFFFFFFFFFFFFF AND PUSH4 0x2637A450 DUP3 PUSH1 0x40 MLOAD DUP1 PUSH1 0xA0 ADD PUSH1 0x40 MSTORE DUP1 DUP12 PUSH4 0xFFFFFFFF AND DUP2 MSTORE PUSH1 0x20 ADD PUSH2 0x135A DUP13 PUSH2 0x1039 JUMP JUMPDEST DUP2 MSTORE PUSH1 0x20 ADD DUP11 DUP2 MSTORE PUSH1 0x20 ADD DUP10 DUP2 MSTORE PUSH1 0x20 ADD PUSH0 DUP10 PUSH1 0x20 ADD MLOAD GT ISZERO ISZERO DUP2 MSTORE POP DUP7 PUSH1 0x40 MLOAD DUP5 PUSH4 0xFFFFFFFF AND PUSH1 0xE0 SHL DUP2 MSTORE PUSH1 0x4 ADD PUSH2 0x1395 SWAP3 SWAP2 SWAP1 PUSH2 0x2C8B JUMP JUMPDEST PUSH1 0x80 PUSH1 0x40 MLOAD DUP1 DUP4 SUB DUP2 DUP6 DUP9 GAS CALL ISZERO DUP1 ISZERO PUSH2 0x13B1 JUMPI RETURNDATASIZE PUSH0 DUP1 RETURNDATACOPY RETURNDATASIZE PUSH0 REVERT JUMPDEST POP POP POP POP POP PUSH1 0x40 MLOAD RETURNDATASIZE PUSH1 0x1F NOT PUSH1 0x1F DUP3 ADD AND DUP3 ADD DUP1 PUSH1 0x40 MSTORE POP DUP2 ADD SWAP1 PUSH2 0x13D6 SWAP2 SWAP1 PUSH2 0x2DA5 JUMP JUMPDEST SWAP2 POP POP SWAP6 SWAP5 POP POP POP POP POP JUMP JUMPDEST PUSH0 DUP1 PUSH0 SWAP1 SLOAD SWAP1 PUSH2 0x100 EXP SWAP1 DIV PUSH20 0xFFFFFFFFFFFFFFFFFFFFFFFFFFFFFFFFFFFFFFFF AND SWAP1 POP DUP2 PUSH0 DUP1 PUSH2 0x100 EXP DUP2 SLOAD DUP2 PUSH20 0xFFFFFFFFFFFFFFFFFFFFFFFFFFFFFFFFFFFFFFFF MUL NOT AND SWAP1 DUP4 PUSH20 0xFFFFFFFFFFFFFFFFFFFFFFFFFFFFFFFFFFFFFFFF AND MUL OR SWAP1 SSTORE POP DUP2 PUSH20 0xFFFFFFFFFFFFFFFFFFFFFFFFFFFFFFFFFFFFFFFF AND DUP2 PUSH20 0xFFFFFFFFFFFFFFFFFFFFFFFFFFFFFFFFFFFFFFFF AND PUSH32 0x8BE0079C531659141344CD1FD0A4F28419497F9722A3DAAFE3B4186F6B6457E0 PUSH1 0x40 MLOAD PUSH1 0x40 MLOAD DUP1 SWAP2 SUB SWAP1 LOG3 POP POP JUMP JUMPDEST PUSH1 0x1 PUSH1 0x6 PUSH0 DUP4 PUSH1 0x40 ADD CALLDATALOAD DUP2 MSTORE PUSH1 0x20 ADD SWAP1 DUP2 MSTORE PUSH1 0x20 ADD PUSH0 KECCAK256 PUSH0 PUSH2 0x100 EXP DUP2 SLOAD DUP2 PUSH1 0xFF MUL NOT AND SWAP1 DUP4 PUSH1 0x4 DUP2 GT ISZERO PUSH2 0x14DB JUMPI PUSH2 0x14DA PUSH2 0x1ED3 JUMP JUMPDEST JUMPDEST MUL OR SWAP1 SSTORE POP POP JUMP JUMPDEST PUSH2 0x155F DUP5 DUP6 PUSH20 0xFFFFFFFFFFFFFFFFFFFFFFFFFFFFFFFFFFFFFFFF AND PUSH4 0x23B872DD DUP7 DUP7 DUP7 PUSH1 0x40 MLOAD PUSH1 0x24 ADD PUSH2 0x1518 SWAP4 SWAP3 SWAP2 SWAP1 PUSH2 0x28FA JUMP JUMPDEST PUSH1 0x40 MLOAD PUSH1 0x20 DUP2 DUP4 SUB SUB DUP2 MSTORE SWAP1 PUSH1 0x40 MSTORE SWAP2 POP PUSH1 0xE0 SHL PUSH1 0x20 DUP3 ADD DUP1 MLOAD PUSH28 0xFFFFFFFFFFFFFFFFFFFFFFFFFFFFFFFFFFFFFFFFFFFFFFFFFFFFFFFF DUP4 DUP2 DUP4 AND OR DUP4 MSTORE POP POP POP POP PUSH2 0x17E0 JUMP JUMPDEST POP POP POP POP JUMP JUMPDEST PUSH2 0x156D PUSH2 0x18AD JUMP JUMPDEST PUSH32 0x0 PUSH20 0xFFFFFFFFFFFFFFFFFFFFFFFFFFFFFFFFFFFFFFFF AND PUSH4 0xDDC28C58 PUSH1 0x40 MLOAD DUP1 PUSH1 0xA0 ADD PUSH1 0x40 MSTORE DUP1 DUP9 PUSH4 0xFFFFFFFF AND DUP2 MSTORE PUSH1 0x20 ADD PUSH2 0x15C9 DUP10 PUSH2 0x1039 JUMP JUMPDEST DUP2 MSTORE PUSH1 0x20 ADD DUP8 DUP2 MSTORE PUSH1 0x20 ADD DUP7 DUP2 MSTORE PUSH1 0x20 ADD DUP6 ISZERO ISZERO DUP2 MSTORE POP ADDRESS PUSH1 0x40 MLOAD DUP4 PUSH4 0xFFFFFFFF AND PUSH1 0xE0 SHL DUP2 MSTORE PUSH1 0x4 ADD PUSH2 0x15FE SWAP3 SWAP2 SWAP1 PUSH2 0x2C8B JUMP JUMPDEST PUSH1 0x40 DUP1 MLOAD DUP1 DUP4 SUB DUP2 DUP7 GAS STATICCALL ISZERO DUP1 ISZERO PUSH2 0x1618 JUMPI RETURNDATASIZE PUSH0 DUP1 RETURNDATACOPY RETURNDATASIZE PUSH0 REVERT JUMPDEST POP POP POP POP PUSH1 0x40 MLOAD RETURNDATASIZE PUSH1 0x1F NOT PUSH1 0x1F DUP3 ADD AND DUP3 ADD DUP1 PUSH1 0x40 MSTORE POP DUP2 ADD SWAP1 PUSH2 0x163C SWAP2 SWAP1 PUSH2 0x2DD0 JUMP JUMPDEST SWAP1 POP SWAP5 SWAP4 POP POP POP POP JUMP JUMPDEST PUSH0 CALLER SWAP1 POP SWAP1 JUMP JUMPDEST PUSH0 DUP2 CALLVALUE EQ PUSH2 0x1692 JUMPI CALLVALUE PUSH1 0x40 MLOAD PUSH32 0x9F70412000000000000000000000000000000000000000000000000000000000 DUP2 MSTORE PUSH1 0x4 ADD PUSH2 0x1689 SWAP2 SWAP1 PUSH2 0x2610 JUMP JUMPDEST PUSH1 0x40 MLOAD DUP1 SWAP2 SUB SWAP1 REVERT JUMPDEST DUP2 SWAP1 POP SWAP2 SWAP1 POP JUMP JUMPDEST PUSH0 PUSH32 0x0 PUSH20 0xFFFFFFFFFFFFFFFFFFFFFFFFFFFFFFFFFFFFFFFF AND PUSH4 0xE4FE1D94 PUSH1 0x40 MLOAD DUP2 PUSH4 0xFFFFFFFF AND PUSH1 0xE0 SHL DUP2 MSTORE PUSH1 0x4 ADD PUSH1 0x20 PUSH1 0x40 MLOAD DUP1 DUP4 SUB DUP2 DUP7 GAS STATICCALL ISZERO DUP1 ISZERO PUSH2 0x1704 JUMPI RETURNDATASIZE PUSH0 DUP1 RETURNDATACOPY RETURNDATASIZE PUSH0 REVERT JUMPDEST POP POP POP POP PUSH1 0x40 MLOAD RETURNDATASIZE PUSH1 0x1F NOT PUSH1 0x1F DUP3 ADD AND DUP3 ADD DUP1 PUSH1 0x40 MSTORE POP DUP2 ADD SWAP1 PUSH2 0x1728 SWAP2 SWAP1 PUSH2 0x2E0F JUMP JUMPDEST SWAP1 POP PUSH0 PUSH20 0xFFFFFFFFFFFFFFFFFFFFFFFFFFFFFFFFFFFFFFFF AND DUP2 PUSH20 0xFFFFFFFFFFFFFFFFFFFFFFFFFFFFFFFFFFFFFFFF AND SUB PUSH2 0x178F JUMPI PUSH1 0x40 MLOAD PUSH32 0x5373352A00000000000000000000000000000000000000000000000000000000 DUP2 MSTORE PUSH1 0x4 ADD PUSH1 0x40 MLOAD DUP1 SWAP2 SUB SWAP1 REVERT JUMPDEST PUSH2 0x17DC CALLER PUSH32 0x0 DUP5 DUP5 PUSH20 0xFFFFFFFFFFFFFFFFFFFFFFFFFFFFFFFFFFFFFFFF AND PUSH2 0x14E3 SWAP1 SWAP4 SWAP3 SWAP2 SWAP1 PUSH4 0xFFFFFFFF AND JUMP JUMPDEST POP POP JUMP JUMPDEST PUSH0 DUP1 PUSH1 0x20 PUSH0 DUP5 MLOAD PUSH1 0x20 DUP7 ADD PUSH0 DUP9 GAS CALL DUP1 PUSH2 0x17FF JUMPI PUSH1 0x40 MLOAD RETURNDATASIZE PUSH0 DUP3 RETURNDATACOPY RETURNDATASIZE DUP2 REVERT JUMPDEST RETURNDATASIZE SWAP3 POP PUSH0 MLOAD SWAP2 POP POP PUSH0 DUP3 EQ PUSH2 0x1818 JUMPI PUSH1 0x1 DUP2 EQ ISZERO PUSH2 0x1833 JUMP JUMPDEST PUSH0 DUP5 PUSH20 0xFFFFFFFFFFFFFFFFFFFFFFFFFFFFFFFFFFFFFFFF AND EXTCODESIZE EQ JUMPDEST ISZERO PUSH2 0x1875 JUMPI DUP4 PUSH1 0x40 MLOAD PUSH32 0x5274AFE700000000000000000000000000000000000000000000000000000000 DUP2 MSTORE PUSH1 0x4 ADD PUSH2 0x186C SWAP2 SWAP1 PUSH2 0x22C2 JUMP JUMPDEST PUSH1 0x40 MLOAD DUP1 SWAP2 SUB SWAP1 REVERT JUMPDEST POP POP POP POP JUMP JUMPDEST PUSH1 0x40 MLOAD DUP1 PUSH1 0x60 ADD PUSH1 0x40 MSTORE DUP1 PUSH0 DUP1 NOT AND DUP2 MSTORE PUSH1 0x20 ADD PUSH0 PUSH8 0xFFFFFFFFFFFFFFFF AND DUP2 MSTORE PUSH1 0x20 ADD PUSH2 0x18A7 PUSH2 0x18AD JUMP JUMPDEST DUP2 MSTORE POP SWAP1 JUMP JUMPDEST PUSH1 0x40 MLOAD DUP1 PUSH1 0x40 ADD PUSH1 0x40 MSTORE DUP1 PUSH0 DUP2 MSTORE PUSH1 0x20 ADD PUSH0 DUP2 MSTORE POP SWAP1 JUMP JUMPDEST PUSH0 PUSH1 0x40 MLOAD SWAP1 POP SWAP1 JUMP JUMPDEST PUSH0 DUP1 REVERT JUMPDEST PUSH0 DUP1 REVERT JUMPDEST PUSH0 DUP1 REVERT JUMPDEST PUSH0 PUSH1 0x60 DUP3 DUP5 SUB SLT ISZERO PUSH2 0x18EF JUMPI PUSH2 0x18EE PUSH2 0x18D6 JUMP JUMPDEST JUMPDEST DUP2 SWAP1 POP SWAP3 SWAP2 POP POP JUMP JUMPDEST PUSH0 DUP2 SWAP1 POP SWAP2 SWAP1 POP JUMP JUMPDEST PUSH2 0x190A DUP2 PUSH2 0x18F8 JUMP JUMPDEST DUP2 EQ PUSH2 0x1914 JUMPI PUSH0 DUP1 REVERT JUMPDEST POP JUMP JUMPDEST PUSH0 DUP2 CALLDATALOAD SWAP1 POP PUSH2 0x1925 DUP2 PUSH2 0x1901 JUMP JUMPDEST SWAP3 SWAP2 POP POP JUMP JUMPDEST PUSH0 DUP1 REVERT JUMPDEST PUSH0 DUP1 REVERT JUMPDEST PUSH0 DUP1 REVERT JUMPDEST PUSH0 DUP1 DUP4 PUSH1 0x1F DUP5 ADD SLT PUSH2 0x194C JUMPI PUSH2 0x194B PUSH2 0x192B JUMP JUMPDEST JUMPDEST DUP3 CALLDATALOAD SWAP1 POP PUSH8 0xFFFFFFFFFFFFFFFF DUP2 GT ISZERO PUSH2 0x1969 JUMPI PUSH2 0x1968 PUSH2 0x192F JUMP JUMPDEST JUMPDEST PUSH1 0x20 DUP4 ADD SWAP2 POP DUP4 PUSH1 0x1 DUP3 MUL DUP4 ADD GT ISZERO PUSH2 0x1985 JUMPI PUSH2 0x1984 PUSH2 0x1933 JUMP JUMPDEST JUMPDEST SWAP3 POP SWAP3 SWAP1 POP JUMP JUMPDEST PUSH0 PUSH20 0xFFFFFFFFFFFFFFFFFFFFFFFFFFFFFFFFFFFFFFFF DUP3 AND SWAP1 POP SWAP2 SWAP1 POP JUMP JUMPDEST PUSH0 PUSH2 0x19B5 DUP3 PUSH2 0x198C JUMP JUMPDEST SWAP1 POP SWAP2 SWAP1 POP JUMP JUMPDEST PUSH2 0x19C5 DUP2 PUSH2 0x19AB JUMP JUMPDEST DUP2 EQ PUSH2 0x19CF JUMPI PUSH0 DUP1 REVERT JUMPDEST POP JUMP JUMPDEST PUSH0 DUP2 CALLDATALOAD SWAP1 POP PUSH2 0x19E0 DUP2 PUSH2 0x19BC JUMP JUMPDEST SWAP3 SWAP2 POP POP JUMP JUMPDEST PUSH0 DUP1 PUSH0 DUP1 PUSH0 DUP1 PUSH0 PUSH1 0xE0 DUP9 DUP11 SUB SLT ISZERO PUSH2 0x1A01 JUMPI PUSH2 0x1A00 PUSH2 0x18CE JUMP JUMPDEST JUMPDEST PUSH0 PUSH2 0x1A0E DUP11 DUP3 DUP12 ADD PUSH2 0x18DA JUMP JUMPDEST SWAP8 POP POP PUSH1 0x60 PUSH2 0x1A1F DUP11 DUP3 DUP12 ADD PUSH2 0x1917 JUMP JUMPDEST SWAP7 POP POP PUSH1 0x80 DUP9 ADD CALLDATALOAD PUSH8 0xFFFFFFFFFFFFFFFF DUP2 GT ISZERO PUSH2 0x1A40 JUMPI PUSH2 0x1A3F PUSH2 0x18D2 JUMP JUMPDEST JUMPDEST PUSH2 0x1A4C DUP11 DUP3 DUP12 ADD PUSH2 0x1937 JUMP JUMPDEST SWAP6 POP SWAP6 POP POP PUSH1 0xA0 PUSH2 0x1A5F DUP11 DUP3 DUP12 ADD PUSH2 0x19D2 JUMP JUMPDEST SWAP4 POP POP PUSH1 0xC0 DUP9 ADD CALLDATALOAD PUSH8 0xFFFFFFFFFFFFFFFF DUP2 GT ISZERO PUSH2 0x1A80 JUMPI PUSH2 0x1A7F PUSH2 0x18D2 JUMP JUMPDEST JUMPDEST PUSH2 0x1A8C DUP11 DUP3 DUP12 ADD PUSH2 0x1937 JUMP JUMPDEST SWAP3 POP SWAP3 POP POP SWAP3 SWAP6 SWAP9 SWAP2 SWAP5 SWAP8 POP SWAP3 SWAP6 POP JUMP JUMPDEST PUSH0 PUSH8 0xFFFFFFFFFFFFFFFF DUP3 AND SWAP1 POP SWAP2 SWAP1 POP JUMP JUMPDEST PUSH2 0x1AB9 DUP2 PUSH2 0x1A9D JUMP JUMPDEST DUP3 MSTORE POP POP JUMP JUMPDEST PUSH0 PUSH1 0x40 DUP3 ADD SWAP1 POP PUSH2 0x1AD2 PUSH0 DUP4 ADD DUP6 PUSH2 0x1AB0 JUMP JUMPDEST PUSH2 0x1ADF PUSH1 0x20 DUP4 ADD DUP5 PUSH2 0x1AB0 JUMP JUMPDEST SWAP4 SWAP3 POP POP POP JUMP JUMPDEST PUSH0 PUSH4 0xFFFFFFFF DUP3 AND SWAP1 POP SWAP2 SWAP1 POP JUMP JUMPDEST PUSH2 0x1AFE DUP2 PUSH2 0x1AE6 JUMP JUMPDEST DUP2 EQ PUSH2 0x1B08 JUMPI PUSH0 DUP1 REVERT JUMPDEST POP JUMP JUMPDEST PUSH0 DUP2 CALLDATALOAD SWAP1 POP PUSH2 0x1B19 DUP2 PUSH2 0x1AF5 JUMP JUMPDEST SWAP3 SWAP2 POP POP JUMP JUMPDEST PUSH0 DUP1 PUSH1 0x40 DUP4 DUP6 SUB SLT ISZERO PUSH2 0x1B35 JUMPI PUSH2 0x1B34 PUSH2 0x18CE JUMP JUMPDEST JUMPDEST PUSH0 PUSH2 0x1B42 DUP6 DUP3 DUP7 ADD PUSH2 0x1B0B JUMP JUMPDEST SWAP3 POP POP PUSH1 0x20 PUSH2 0x1B53 DUP6 DUP3 DUP7 ADD PUSH2 0x1917 JUMP JUMPDEST SWAP2 POP POP SWAP3 POP SWAP3 SWAP1 POP JUMP JUMPDEST PUSH0 DUP1 REVERT JUMPDEST PUSH0 PUSH1 0x1F NOT PUSH1 0x1F DUP4 ADD AND SWAP1 POP SWAP2 SWAP1 POP JUMP JUMPDEST PUSH32 0x4E487B7100000000000000000000000000000000000000000000000000000000 PUSH0 MSTORE PUSH1 0x41 PUSH1 0x4 MSTORE PUSH1 0x24 PUSH0 REVERT JUMPDEST PUSH2 0x1BA7 DUP3 PUSH2 0x1B61 JUMP JUMPDEST DUP2 ADD DUP2 DUP2 LT PUSH8 0xFFFFFFFFFFFFFFFF DUP3 GT OR ISZERO PUSH2 0x1BC6 JUMPI PUSH2 0x1BC5 PUSH2 0x1B71 JUMP JUMPDEST JUMPDEST DUP1 PUSH1 0x40 MSTORE POP POP POP JUMP JUMPDEST PUSH0 PUSH2 0x1BD8 PUSH2 0x18C5 JUMP JUMPDEST SWAP1 POP PUSH2 0x1BE4 DUP3 DUP3 PUSH2 0x1B9E JUMP JUMPDEST SWAP2 SWAP1 POP JUMP JUMPDEST PUSH0 DUP2 SWAP1 POP SWAP2 SWAP1 POP JUMP JUMPDEST PUSH2 0x1BFB DUP2 PUSH2 0x1BE9 JUMP JUMPDEST DUP2 EQ PUSH2 0x1C05 JUMPI PUSH0 DUP1 REVERT JUMPDEST POP JUMP JUMPDEST PUSH0 DUP2 CALLDATALOAD SWAP1 POP PUSH2 0x1C16 DUP2 PUSH2 0x1BF2 JUMP JUMPDEST SWAP3 SWAP2 POP POP JUMP JUMPDEST PUSH0 DUP2 ISZERO ISZERO SWAP1 POP SWAP2 SWAP1 POP JUMP JUMPDEST PUSH2 0x1C30 DUP2 PUSH2 0x1C1C JUMP JUMPDEST DUP2 EQ PUSH2 0x1C3A JUMPI PUSH0 DUP1 REVERT JUMPDEST POP JUMP JUMPDEST PUSH0 DUP2 CALLDATALOAD SWAP1 POP PUSH2 0x1C4B DUP2 PUSH2 0x1C27 JUMP JUMPDEST SWAP3 SWAP2 POP POP JUMP JUMPDEST PUSH0 PUSH2 0x1C0 DUP3 DUP5 SUB SLT ISZERO PUSH2 0x1C67 JUMPI PUSH2 0x1C66 PUSH2 0x1B5D JUMP JUMPDEST JUMPDEST PUSH2 0x1C72 PUSH2 0x1C0 PUSH2 0x1BCF JUMP JUMPDEST SWAP1 POP PUSH0 PUSH2 0x1C81 DUP5 DUP3 DUP6 ADD PUSH2 0x19D2 JUMP JUMPDEST PUSH0 DUP4 ADD MSTORE POP PUSH1 0x20 PUSH2 0x1C94 DUP5 DUP3 DUP6 ADD PUSH2 0x19D2 JUMP JUMPDEST PUSH1 0x20 DUP4 ADD MSTORE POP PUSH1 0x40 PUSH2 0x1CA8 DUP5 DUP3 DUP6 ADD PUSH2 0x1C08 JUMP JUMPDEST PUSH1 0x40 DUP4 ADD MSTORE POP PUSH1 0x60 PUSH2 0x1CBC DUP5 DUP3 DUP6 ADD PUSH2 0x1C08 JUMP JUMPDEST PUSH1 0x60 DUP4 ADD MSTORE POP PUSH1 0x80 PUSH2 0x1CD0 DUP5 DUP3 DUP6 ADD PUSH2 0x1B0B JUMP JUMPDEST PUSH1 0x80 DUP4 ADD MSTORE POP PUSH1 0xA0 PUSH2 0x1CE4 DUP5 DUP3 DUP6 ADD PUSH2 0x1B0B JUMP JUMPDEST PUSH1 0xA0 DUP4 ADD MSTORE POP PUSH1 0xC0 PUSH2 0x1CF8 DUP5 DUP3 DUP6 ADD PUSH2 0x1C08 JUMP JUMPDEST PUSH1 0xC0 DUP4 ADD MSTORE POP PUSH1 0xE0 PUSH2 0x1D0C DUP5 DUP3 DUP6 ADD PUSH2 0x19D2 JUMP JUMPDEST PUSH1 0xE0 DUP4 ADD MSTORE POP PUSH2 0x100 PUSH2 0x1D21 DUP5 DUP3 DUP6 ADD PUSH2 0x19D2 JUMP JUMPDEST PUSH2 0x100 DUP4 ADD MSTORE POP PUSH2 0x120 PUSH2 0x1D37 DUP5 DUP3 DUP6 ADD PUSH2 0x19D2 JUMP JUMPDEST PUSH2 0x120 DUP4 ADD MSTORE POP PUSH2 0x140 PUSH2 0x1D4D DUP5 DUP3 DUP6 ADD PUSH2 0x1C08 JUMP JUMPDEST PUSH2 0x140 DUP4 ADD MSTORE POP PUSH2 0x160 PUSH2 0x1D63 DUP5 DUP3 DUP6 ADD PUSH2 0x1C08 JUMP JUMPDEST PUSH2 0x160 DUP4 ADD MSTORE POP PUSH2 0x180 PUSH2 0x1D79 DUP5 DUP3 DUP6 ADD PUSH2 0x1B0B JUMP JUMPDEST PUSH2 0x180 DUP4 ADD MSTORE POP PUSH2 0x1A0 PUSH2 0x1D8F DUP5 DUP3 DUP6 ADD PUSH2 0x1C3D JUMP JUMPDEST PUSH2 0x1A0 DUP4 ADD MSTORE POP SWAP3 SWAP2 POP POP JUMP JUMPDEST PUSH0 DUP1 REVERT JUMPDEST PUSH0 PUSH8 0xFFFFFFFFFFFFFFFF DUP3 GT ISZERO PUSH2 0x1DBA JUMPI PUSH2 0x1DB9 PUSH2 0x1B71 JUMP JUMPDEST JUMPDEST PUSH2 0x1DC3 DUP3 PUSH2 0x1B61 JUMP JUMPDEST SWAP1 POP PUSH1 0x20 DUP2 ADD SWAP1 POP SWAP2 SWAP1 POP JUMP JUMPDEST DUP3 DUP2 DUP4 CALLDATACOPY PUSH0 DUP4 DUP4 ADD MSTORE POP POP POP JUMP JUMPDEST PUSH0 PUSH2 0x1DF0 PUSH2 0x1DEB DUP5 PUSH2 0x1DA0 JUMP JUMPDEST PUSH2 0x1BCF JUMP JUMPDEST SWAP1 POP DUP3 DUP2 MSTORE PUSH1 0x20 DUP2 ADD DUP5 DUP5 DUP5 ADD GT ISZERO PUSH2 0x1E0C JUMPI PUSH2 0x1E0B PUSH2 0x1D9C JUMP JUMPDEST JUMPDEST PUSH2 0x1E17 DUP5 DUP3 DUP6 PUSH2 0x1DD0 JUMP JUMPDEST POP SWAP4 SWAP3 POP POP POP JUMP JUMPDEST PUSH0 DUP3 PUSH1 0x1F DUP4 ADD SLT PUSH2 0x1E33 JUMPI PUSH2 0x1E32 PUSH2 0x192B JUMP JUMPDEST JUMPDEST DUP2 CALLDATALOAD PUSH2 0x1E43 DUP5 DUP3 PUSH1 0x20 DUP7 ADD PUSH2 0x1DDE JUMP JUMPDEST SWAP2 POP POP SWAP3 SWAP2 POP POP JUMP JUMPDEST PUSH0 DUP1 PUSH2 0x1E0 DUP4 DUP6 SUB SLT ISZERO PUSH2 0x1E63 JUMPI PUSH2 0x1E62 PUSH2 0x18CE JUMP JUMPDEST JUMPDEST PUSH0 PUSH2 0x1E70 DUP6 DUP3 DUP7 ADD PUSH2 0x1C51 JUMP JUMPDEST SWAP3 POP POP PUSH2 0x1C0 DUP4 ADD CALLDATALOAD PUSH8 0xFFFFFFFFFFFFFFFF DUP2 GT ISZERO PUSH2 0x1E92 JUMPI PUSH2 0x1E91 PUSH2 0x18D2 JUMP JUMPDEST JUMPDEST PUSH2 0x1E9E DUP6 DUP3 DUP7 ADD PUSH2 0x1E1F JUMP JUMPDEST SWAP2 POP POP SWAP3 POP SWAP3 SWAP1 POP JUMP JUMPDEST PUSH0 PUSH1 0x20 DUP3 DUP5 SUB SLT ISZERO PUSH2 0x1EBD JUMPI PUSH2 0x1EBC PUSH2 0x18CE JUMP JUMPDEST JUMPDEST PUSH0 PUSH2 0x1ECA DUP5 DUP3 DUP6 ADD PUSH2 0x1C08 JUMP JUMPDEST SWAP2 POP POP SWAP3 SWAP2 POP POP JUMP JUMPDEST PUSH32 0x4E487B7100000000000000000000000000000000000000000000000000000000 PUSH0 MSTORE PUSH1 0x21 PUSH1 0x4 MSTORE PUSH1 0x24 PUSH0 REVERT JUMPDEST PUSH1 0x5 DUP2 LT PUSH2 0x1F11 JUMPI PUSH2 0x1F10 PUSH2 0x1ED3 JUMP JUMPDEST JUMPDEST POP JUMP JUMPDEST PUSH0 DUP2 SWAP1 POP PUSH2 0x1F21 DUP3 PUSH2 0x1F00 JUMP JUMPDEST SWAP2 SWAP1 POP JUMP JUMPDEST PUSH0 PUSH2 0x1F30 DUP3 PUSH2 0x1F14 JUMP JUMPDEST SWAP1 POP SWAP2 SWAP1 POP JUMP JUMPDEST PUSH2 0x1F40 DUP2 PUSH2 0x1F26 JUMP JUMPDEST DUP3 MSTORE POP POP JUMP JUMPDEST PUSH0 PUSH1 0x20 DUP3 ADD SWAP1 POP PUSH2 0x1F59 PUSH0 DUP4 ADD DUP5 PUSH2 0x1F37 JUMP JUMPDEST SWAP3 SWAP2 POP POP JUMP JUMPDEST PUSH0 DUP1 PUSH1 0x40 DUP4 DUP6 SUB SLT ISZERO PUSH2 0x1F75 JUMPI PUSH2 0x1F74 PUSH2 0x18CE JUMP JUMPDEST JUMPDEST PUSH0 PUSH2 0x1F82 DUP6 DUP3 DUP7 ADD PUSH2 0x1B0B JUMP JUMPDEST SWAP3 POP POP PUSH1 0x20 PUSH2 0x1F93 DUP6 DUP3 DUP7 ADD PUSH2 0x1C08 JUMP JUMPDEST SWAP2 POP POP SWAP3 POP SWAP3 SWAP1 POP JUMP JUMPDEST PUSH0 PUSH1 0x20 DUP3 DUP5 SUB SLT ISZERO PUSH2 0x1FB2 JUMPI PUSH2 0x1FB1 PUSH2 0x18CE JUMP JUMPDEST JUMPDEST PUSH0 PUSH2 0x1FBF DUP5 DUP3 DUP6 ADD PUSH2 0x19D2 JUMP JUMPDEST SWAP2 POP POP SWAP3 SWAP2 POP POP JUMP JUMPDEST PUSH0 DUP2 SWAP1 POP SWAP2 SWAP1 POP JUMP JUMPDEST PUSH0 PUSH2 0x1FEB PUSH2 0x1FE6 PUSH2 0x1FE1 DUP5 PUSH2 0x198C JUMP JUMPDEST PUSH2 0x1FC8 JUMP JUMPDEST PUSH2 0x198C JUMP JUMPDEST SWAP1 POP SWAP2 SWAP1 POP JUMP JUMPDEST PUSH0 PUSH2 0x1FFC DUP3 PUSH2 0x1FD1 JUMP JUMPDEST SWAP1 POP SWAP2 SWAP1 POP JUMP JUMPDEST PUSH0 PUSH2 0x200D DUP3 PUSH2 0x1FF2 JUMP JUMPDEST SWAP1 POP SWAP2 SWAP1 POP JUMP JUMPDEST PUSH2 0x201D DUP2 PUSH2 0x2003 JUMP JUMPDEST DUP3 MSTORE POP POP JUMP JUMPDEST PUSH0 PUSH1 0x20 DUP3 ADD SWAP1 POP PUSH2 0x2036 PUSH0 DUP4 ADD DUP5 PUSH2 0x2014 JUMP JUMPDEST SWAP3 SWAP2 POP POP JUMP JUMPDEST PUSH0 DUP2 MLOAD SWAP1 POP SWAP2 SWAP1 POP JUMP JUMPDEST PUSH0 DUP3 DUP3 MSTORE PUSH1 0x20 DUP3 ADD SWAP1 POP SWAP3 SWAP2 POP POP JUMP JUMPDEST PUSH0 JUMPDEST DUP4 DUP2 LT ISZERO PUSH2 0x2073 JUMPI DUP1 DUP3 ADD MLOAD DUP2 DUP5 ADD MSTORE PUSH1 0x20 DUP2 ADD SWAP1 POP PUSH2 0x2058 JUMP JUMPDEST PUSH0 DUP5 DUP5 ADD MSTORE POP POP POP POP JUMP JUMPDEST PUSH0 PUSH2 0x2088 DUP3 PUSH2 0x203C JUMP JUMPDEST PUSH2 0x2092 DUP2 DUP6 PUSH2 0x2046 JUMP JUMPDEST SWAP4 POP PUSH2 0x20A2 DUP2 DUP6 PUSH1 0x20 DUP7 ADD PUSH2 0x2056 JUMP JUMPDEST PUSH2 0x20AB DUP2 PUSH2 0x1B61 JUMP JUMPDEST DUP5 ADD SWAP2 POP POP SWAP3 SWAP2 POP POP JUMP JUMPDEST PUSH0 PUSH1 0x20 DUP3 ADD SWAP1 POP DUP2 DUP2 SUB PUSH0 DUP4 ADD MSTORE PUSH2 0x20CE DUP2 DUP5 PUSH2 0x207E JUMP JUMPDEST SWAP1 POP SWAP3 SWAP2 POP POP JUMP JUMPDEST PUSH0 DUP2 MLOAD SWAP1 POP SWAP2 SWAP1 POP JUMP JUMPDEST PUSH0 DUP3 DUP3 MSTORE PUSH1 0x20 DUP3 ADD SWAP1 POP SWAP3 SWAP2 POP POP JUMP JUMPDEST PUSH0 PUSH2 0x20FA DUP3 PUSH2 0x20D6 JUMP JUMPDEST PUSH2 0x2104 DUP2 DUP6 PUSH2 0x20E0 JUMP JUMPDEST SWAP4 POP PUSH2 0x2114 DUP2 DUP6 PUSH1 0x20 DUP7 ADD PUSH2 0x2056 JUMP JUMPDEST PUSH2 0x211D DUP2 PUSH2 0x1B61 JUMP JUMPDEST DUP5 ADD SWAP2 POP POP SWAP3 SWAP2 POP POP JUMP JUMPDEST PUSH0 PUSH1 0x20 DUP3 ADD SWAP1 POP DUP2 DUP2 SUB PUSH0 DUP4 ADD MSTORE PUSH2 0x2140 DUP2 DUP5 PUSH2 0x20F0 JUMP JUMPDEST SWAP1 POP SWAP3 SWAP2 POP POP JUMP JUMPDEST PUSH0 PUSH1 0x20 DUP3 ADD SWAP1 POP PUSH2 0x215B PUSH0 DUP4 ADD DUP5 PUSH2 0x1AB0 JUMP JUMPDEST SWAP3 SWAP2 POP POP JUMP JUMPDEST PUSH0 DUP1 PUSH0 DUP1 PUSH1 0xA0 DUP6 DUP8 SUB SLT ISZERO PUSH2 0x2179 JUMPI PUSH2 0x2178 PUSH2 0x18CE JUMP JUMPDEST JUMPDEST PUSH0 PUSH2 0x2186 DUP8 DUP3 DUP9 ADD PUSH2 0x18DA JUMP JUMPDEST SWAP5 POP POP PUSH1 0x60 DUP6 ADD CALLDATALOAD PUSH8 0xFFFFFFFFFFFFFFFF DUP2 GT ISZERO PUSH2 0x21A7 JUMPI PUSH2 0x21A6 PUSH2 0x18D2 JUMP JUMPDEST JUMPDEST PUSH2 0x21B3 DUP8 DUP3 DUP9 ADD PUSH2 0x1937 JUMP JUMPDEST SWAP4 POP SWAP4 POP POP PUSH1 0x80 PUSH2 0x21C6 DUP8 DUP3 DUP9 ADD PUSH2 0x19D2 JUMP JUMPDEST SWAP2 POP POP SWAP3 SWAP6 SWAP2 SWAP5 POP SWAP3 POP JUMP JUMPDEST PUSH2 0x21DB DUP2 PUSH2 0x1C1C JUMP JUMPDEST DUP3 MSTORE POP POP JUMP JUMPDEST PUSH0 PUSH1 0x20 DUP3 ADD SWAP1 POP PUSH2 0x21F4 PUSH0 DUP4 ADD DUP5 PUSH2 0x21D2 JUMP JUMPDEST SWAP3 SWAP2 POP POP JUMP JUMPDEST PUSH0 DUP1 PUSH0 DUP1 PUSH0 PUSH1 0x60 DUP7 DUP9 SUB SLT ISZERO PUSH2 0x2213 JUMPI PUSH2 0x2212 PUSH2 0x18CE JUMP JUMPDEST JUMPDEST PUSH0 PUSH2 0x2220 DUP9 DUP3 DUP10 ADD PUSH2 0x1917 JUMP JUMPDEST SWAP6 POP POP PUSH1 0x20 DUP7 ADD CALLDATALOAD PUSH8 0xFFFFFFFFFFFFFFFF DUP2 GT ISZERO PUSH2 0x2241 JUMPI PUSH2 0x2240 PUSH2 0x18D2 JUMP JUMPDEST JUMPDEST PUSH2 0x224D DUP9 DUP3 DUP10 ADD PUSH2 0x1937 JUMP JUMPDEST SWAP5 POP SWAP5 POP POP PUSH1 0x40 DUP7 ADD CALLDATALOAD PUSH8 0xFFFFFFFFFFFFFFFF DUP2 GT ISZERO PUSH2 0x2270 JUMPI PUSH2 0x226F PUSH2 0x18D2 JUMP JUMPDEST JUMPDEST PUSH2 0x227C DUP9 DUP3 DUP10 ADD PUSH2 0x1937 JUMP JUMPDEST SWAP3 POP SWAP3 POP POP SWAP3 SWAP6 POP SWAP3 SWAP6 SWAP1 SWAP4 POP JUMP JUMPDEST PUSH2 0x2294 DUP2 PUSH2 0x1AE6 JUMP JUMPDEST DUP3 MSTORE POP POP JUMP JUMPDEST PUSH0 PUSH1 0x20 DUP3 ADD SWAP1 POP PUSH2 0x22AD PUSH0 DUP4 ADD DUP5 PUSH2 0x228B JUMP JUMPDEST SWAP3 SWAP2 POP POP JUMP JUMPDEST PUSH2 0x22BC DUP2 PUSH2 0x19AB JUMP JUMPDEST DUP3 MSTORE POP POP JUMP JUMPDEST PUSH0 PUSH1 0x20 DUP3 ADD SWAP1 POP PUSH2 0x22D5 PUSH0 DUP4 ADD DUP5 PUSH2 0x22B3 JUMP JUMPDEST SWAP3 SWAP2 POP POP JUMP JUMPDEST PUSH0 PUSH2 0x1C0 DUP3 DUP5 SUB SLT ISZERO PUSH2 0x22F1 JUMPI PUSH2 0x22F0 PUSH2 0x18D6 JUMP JUMPDEST JUMPDEST DUP2 SWAP1 POP SWAP3 SWAP2 POP POP JUMP JUMPDEST PUSH0 DUP1 PUSH0 PUSH2 0x1E0 DUP5 DUP7 SUB SLT ISZERO PUSH2 0x2312 JUMPI PUSH2 0x2311 PUSH2 0x18CE JUMP JUMPDEST JUMPDEST PUSH0 PUSH2 0x231F DUP7 DUP3 DUP8 ADD PUSH2 0x22DB JUMP JUMPDEST SWAP4 POP POP PUSH2 0x1C0 DUP5 ADD CALLDATALOAD PUSH8 0xFFFFFFFFFFFFFFFF DUP2 GT ISZERO PUSH2 0x2341 JUMPI PUSH2 0x2340 PUSH2 0x18D2 JUMP JUMPDEST JUMPDEST PUSH2 0x234D DUP7 DUP3 DUP8 ADD PUSH2 0x1937 JUMP JUMPDEST SWAP3 POP SWAP3 POP POP SWAP3 POP SWAP3 POP SWAP3 JUMP JUMPDEST PUSH0 DUP1 PUSH0 DUP1 PUSH0 PUSH2 0x200 DUP7 DUP9 SUB SLT ISZERO PUSH2 0x2373 JUMPI PUSH2 0x2372 PUSH2 0x18CE JUMP JUMPDEST JUMPDEST PUSH0 PUSH2 0x2380 DUP9 DUP3 DUP10 ADD PUSH2 0x22DB JUMP JUMPDEST SWAP6 POP POP PUSH2 0x1C0 DUP7 ADD CALLDATALOAD PUSH8 0xFFFFFFFFFFFFFFFF DUP2 GT ISZERO PUSH2 0x23A2 JUMPI PUSH2 0x23A1 PUSH2 0x18D2 JUMP JUMPDEST JUMPDEST PUSH2 0x23AE DUP9 DUP3 DUP10 ADD PUSH2 0x1937 JUMP JUMPDEST SWAP5 POP SWAP5 POP POP PUSH2 0x1E0 DUP7 ADD CALLDATALOAD PUSH8 0xFFFFFFFFFFFFFFFF DUP2 GT ISZERO PUSH2 0x23D2 JUMPI PUSH2 0x23D1 PUSH2 0x18D2 JUMP JUMPDEST JUMPDEST PUSH2 0x23DE DUP9 DUP3 DUP10 ADD PUSH2 0x1937 JUMP JUMPDEST SWAP3 POP SWAP3 POP POP SWAP3 SWAP6 POP SWAP3 SWAP6 SWAP1 SWAP4 POP JUMP JUMPDEST PUSH0 PUSH1 0x20 DUP3 DUP5 SUB SLT ISZERO PUSH2 0x2402 JUMPI PUSH2 0x2401 PUSH2 0x18CE JUMP JUMPDEST JUMPDEST PUSH0 PUSH2 0x240F DUP5 DUP3 DUP6 ADD PUSH2 0x1B0B JUMP JUMPDEST SWAP2 POP POP SWAP3 SWAP2 POP POP JUMP JUMPDEST PUSH2 0x2421 DUP2 PUSH2 0x18F8 JUMP JUMPDEST DUP3 MSTORE POP POP JUMP JUMPDEST PUSH0 PUSH1 0x20 DUP3 ADD SWAP1 POP PUSH2 0x243A PUSH0 DUP4 ADD DUP5 PUSH2 0x2418 JUMP JUMPDEST SWAP3 SWAP2 POP POP JUMP JUMPDEST PUSH0 DUP1 PUSH1 0x40 DUP4 DUP6 SUB SLT ISZERO PUSH2 0x2456 JUMPI PUSH2 0x2455 PUSH2 0x18CE JUMP JUMPDEST JUMPDEST PUSH0 PUSH2 0x2463 DUP6 DUP3 DUP7 ADD PUSH2 0x1B0B JUMP JUMPDEST SWAP3 POP POP PUSH1 0x20 PUSH2 0x2474 DUP6 DUP3 DUP7 ADD PUSH2 0x19D2 JUMP JUMPDEST SWAP2 POP POP SWAP3 POP SWAP3 SWAP1 POP JUMP JUMPDEST PUSH0 PUSH8 0xFFFFFFFFFFFFFFFF DUP3 GT ISZERO PUSH2 0x2498 JUMPI PUSH2 0x2497 PUSH2 0x1B71 JUMP JUMPDEST JUMPDEST PUSH2 0x24A1 DUP3 PUSH2 0x1B61 JUMP JUMPDEST SWAP1 POP PUSH1 0x20 DUP2 ADD SWAP1 POP SWAP2 SWAP1 POP JUMP JUMPDEST PUSH0 PUSH2 0x24C0 PUSH2 0x24BB DUP5 PUSH2 0x247E JUMP JUMPDEST PUSH2 0x1BCF JUMP JUMPDEST SWAP1 POP DUP3 DUP2 MSTORE PUSH1 0x20 DUP2 ADD DUP5 DUP5 DUP5 ADD GT ISZERO PUSH2 0x24DC JUMPI PUSH2 0x24DB PUSH2 0x1D9C JUMP JUMPDEST JUMPDEST PUSH2 0x24E7 DUP5 DUP3 DUP6 PUSH2 0x1DD0 JUMP JUMPDEST POP SWAP4 SWAP3 POP POP POP JUMP JUMPDEST PUSH0 DUP3 PUSH1 0x1F DUP4 ADD SLT PUSH2 0x2503 JUMPI PUSH2 0x2502 PUSH2 0x192B JUMP JUMPDEST JUMPDEST DUP2 CALLDATALOAD PUSH2 0x2513 DUP5 DUP3 PUSH1 0x20 DUP7 ADD PUSH2 0x24AE JUMP JUMPDEST SWAP2 POP POP SWAP3 SWAP2 POP POP JUMP JUMPDEST PUSH0 DUP1 PUSH0 PUSH1 0x60 DUP5 DUP7 SUB SLT ISZERO PUSH2 0x2533 JUMPI PUSH2 0x2532 PUSH2 0x18CE JUMP JUMPDEST JUMPDEST PUSH0 PUSH2 0x2540 DUP7 DUP3 DUP8 ADD PUSH2 0x1B0B JUMP JUMPDEST SWAP4 POP POP PUSH1 0x20 DUP5 ADD CALLDATALOAD PUSH8 0xFFFFFFFFFFFFFFFF DUP2 GT ISZERO PUSH2 0x2561 JUMPI PUSH2 0x2560 PUSH2 0x18D2 JUMP JUMPDEST JUMPDEST PUSH2 0x256D DUP7 DUP3 DUP8 ADD PUSH2 0x24EF JUMP JUMPDEST SWAP3 POP POP PUSH1 0x40 PUSH2 0x257E DUP7 DUP3 DUP8 ADD PUSH2 0x1C3D JUMP JUMPDEST SWAP2 POP POP SWAP3 POP SWAP3 POP SWAP3 JUMP JUMPDEST PUSH2 0x2591 DUP2 PUSH2 0x1BE9 JUMP JUMPDEST DUP3 MSTORE POP POP JUMP JUMPDEST PUSH0 PUSH1 0x40 DUP3 ADD SWAP1 POP PUSH2 0x25AA PUSH0 DUP4 ADD DUP6 PUSH2 0x2588 JUMP JUMPDEST PUSH2 0x25B7 PUSH1 0x20 DUP4 ADD DUP5 PUSH2 0x2588 JUMP JUMPDEST SWAP4 SWAP3 POP POP POP JUMP JUMPDEST PUSH0 PUSH1 0x60 DUP3 DUP5 SUB SLT ISZERO PUSH2 0x25D3 JUMPI PUSH2 0x25D2 PUSH2 0x18CE JUMP JUMPDEST JUMPDEST PUSH0 PUSH2 0x25E0 DUP5 DUP3 DUP6 ADD PUSH2 0x18DA JUMP JUMPDEST SWAP2 POP POP SWAP3 SWAP2 POP POP JUMP JUMPDEST PUSH0 PUSH1 0x40 DUP3 ADD SWAP1 POP PUSH2 0x25FC PUSH0 DUP4 ADD DUP6 PUSH2 0x228B JUMP JUMPDEST PUSH2 0x2609 PUSH1 0x20 DUP4 ADD DUP5 PUSH2 0x2418 JUMP JUMPDEST SWAP4 SWAP3 POP POP POP JUMP JUMPDEST PUSH0 PUSH1 0x20 DUP3 ADD SWAP1 POP PUSH2 0x2623 PUSH0 DUP4 ADD DUP5 PUSH2 0x2588 JUMP JUMPDEST SWAP3 SWAP2 POP POP JUMP JUMPDEST PUSH32 0x4E487B7100000000000000000000000000000000000000000000000000000000 PUSH0 MSTORE PUSH1 0x22 PUSH1 0x4 MSTORE PUSH1 0x24 PUSH0 REVERT JUMPDEST PUSH0 PUSH1 0x2 DUP3 DIV SWAP1 POP PUSH1 0x1 DUP3 AND DUP1 PUSH2 0x266D JUMPI PUSH1 0x7F DUP3 AND SWAP2 POP JUMPDEST PUSH1 0x20 DUP3 LT DUP2 SUB PUSH2 0x2680 JUMPI PUSH2 0x267F PUSH2 0x2629 JUMP JUMPDEST JUMPDEST POP SWAP2 SWAP1 POP JUMP JUMPDEST PUSH0 DUP2 MLOAD SWAP1 POP PUSH2 0x2694 DUP2 PUSH2 0x1BF2 JUMP JUMPDEST SWAP3 SWAP2 POP POP JUMP JUMPDEST PUSH0 PUSH1 0x20 DUP3 DUP5 SUB SLT ISZERO PUSH2 0x26AF JUMPI PUSH2 0x26AE PUSH2 0x18CE JUMP JUMPDEST JUMPDEST PUSH0 PUSH2 0x26BC DUP5 DUP3 DUP6 ADD PUSH2 0x2686 JUMP JUMPDEST SWAP2 POP POP SWAP3 SWAP2 POP POP JUMP JUMPDEST PUSH0 PUSH1 0x40 DUP3 ADD SWAP1 POP PUSH2 0x26D8 PUSH0 DUP4 ADD DUP6 PUSH2 0x22B3 JUMP JUMPDEST PUSH2 0x26E5 PUSH1 0x20 DUP4 ADD DUP5 PUSH2 0x2588 JUMP JUMPDEST SWAP4 SWAP3 POP POP POP JUMP JUMPDEST PUSH0 DUP2 MLOAD SWAP1 POP PUSH2 0x26FA DUP2 PUSH2 0x1C27 JUMP JUMPDEST SWAP3 SWAP2 POP POP JUMP JUMPDEST PUSH0 PUSH1 0x20 DUP3 DUP5 SUB SLT ISZERO PUSH2 0x2715 JUMPI PUSH2 0x2714 PUSH2 0x18CE JUMP JUMPDEST JUMPDEST PUSH0 PUSH2 0x2722 DUP5 DUP3 DUP6 ADD PUSH2 0x26EC JUMP JUMPDEST SWAP2 POP POP SWAP3 SWAP2 POP POP JUMP JUMPDEST PUSH32 0x416C726561647946696C6C656400000000000000000000000000000000000000 PUSH0 DUP3 ADD MSTORE POP JUMP JUMPDEST PUSH0 PUSH2 0x275F PUSH1 0xD DUP4 PUSH2 0x20E0 JUMP JUMPDEST SWAP2 POP PUSH2 0x276A DUP3 PUSH2 0x272B JUMP JUMPDEST PUSH1 0x20 DUP3 ADD SWAP1 POP SWAP2 SWAP1 POP JUMP JUMPDEST PUSH0 PUSH1 0x20 DUP3 ADD SWAP1 POP DUP2 DUP2 SUB PUSH0 DUP4 ADD MSTORE PUSH2 0x278C DUP2 PUSH2 0x2753 JUMP JUMPDEST SWAP1 POP SWAP2 SWAP1 POP JUMP JUMPDEST PUSH32 0x576169742074696C6C20796F757220536F6C7574696F6E206973207665726966 PUSH0 DUP3 ADD MSTORE PUSH32 0x6965640000000000000000000000000000000000000000000000000000000000 PUSH1 0x20 DUP3 ADD MSTORE POP JUMP JUMPDEST PUSH0 PUSH2 0x27ED PUSH1 0x23 DUP4 PUSH2 0x20E0 JUMP JUMPDEST SWAP2 POP PUSH2 0x27F8 DUP3 PUSH2 0x2793 JUMP JUMPDEST PUSH1 0x40 DUP3 ADD SWAP1 POP SWAP2 SWAP1 POP JUMP JUMPDEST PUSH0 PUSH1 0x20 DUP3 ADD SWAP1 POP DUP2 DUP2 SUB PUSH0 DUP4 ADD MSTORE PUSH2 0x281A DUP2 PUSH2 0x27E1 JUMP JUMPDEST SWAP1 POP SWAP2 SWAP1 POP JUMP JUMPDEST PUSH0 PUSH2 0x282B DUP3 PUSH2 0x198C JUMP JUMPDEST SWAP1 POP SWAP2 SWAP1 POP JUMP JUMPDEST PUSH2 0x283B DUP2 PUSH2 0x2821 JUMP JUMPDEST DUP2 EQ PUSH2 0x2845 JUMPI PUSH0 DUP1 REVERT JUMPDEST POP JUMP JUMPDEST PUSH0 DUP2 CALLDATALOAD SWAP1 POP PUSH2 0x2856 DUP2 PUSH2 0x2832 JUMP JUMPDEST SWAP3 SWAP2 POP POP JUMP JUMPDEST PUSH0 DUP1 PUSH1 0x40 DUP4 DUP6 SUB SLT ISZERO PUSH2 0x2872 JUMPI PUSH2 0x2871 PUSH2 0x18CE JUMP JUMPDEST JUMPDEST PUSH0 PUSH2 0x287F DUP6 DUP3 DUP7 ADD PUSH2 0x2848 JUMP JUMPDEST SWAP3 POP POP PUSH1 0x20 PUSH2 0x2890 DUP6 DUP3 DUP7 ADD PUSH2 0x1C08 JUMP JUMPDEST SWAP2 POP POP SWAP3 POP SWAP3 SWAP1 POP JUMP JUMPDEST PUSH32 0x4E487B7100000000000000000000000000000000000000000000000000000000 PUSH0 MSTORE PUSH1 0x11 PUSH1 0x4 MSTORE PUSH1 0x24 PUSH0 REVERT JUMPDEST PUSH0 PUSH2 0x28D1 DUP3 PUSH2 0x1BE9 JUMP JUMPDEST SWAP2 POP PUSH2 0x28DC DUP4 PUSH2 0x1BE9 JUMP JUMPDEST SWAP3 POP DUP3 DUP3 SUB SWAP1 POP DUP2 DUP2 GT ISZERO PUSH2 0x28F4 JUMPI PUSH2 0x28F3 PUSH2 0x289A JUMP JUMPDEST JUMPDEST SWAP3 SWAP2 POP POP JUMP JUMPDEST PUSH0 PUSH1 0x60 DUP3 ADD SWAP1 POP PUSH2 0x290D PUSH0 DUP4 ADD DUP7 PUSH2 0x22B3 JUMP JUMPDEST PUSH2 0x291A PUSH1 0x20 DUP4 ADD DUP6 PUSH2 0x22B3 JUMP JUMPDEST PUSH2 0x2927 PUSH1 0x40 DUP4 ADD DUP5 PUSH2 0x2588 JUMP JUMPDEST SWAP5 SWAP4 POP POP POP POP JUMP JUMPDEST PUSH0 PUSH2 0x293D PUSH1 0x20 DUP5 ADD DUP5 PUSH2 0x19D2 JUMP JUMPDEST SWAP1 POP SWAP3 SWAP2 POP POP JUMP JUMPDEST PUSH2 0x294E DUP2 PUSH2 0x19AB JUMP JUMPDEST DUP3 MSTORE POP POP JUMP JUMPDEST PUSH0 PUSH2 0x2962 PUSH1 0x20 DUP5 ADD DUP5 PUSH2 0x1C08 JUMP JUMPDEST SWAP1 POP SWAP3 SWAP2 POP POP JUMP JUMPDEST PUSH2 0x2973 DUP2 PUSH2 0x1BE9 JUMP JUMPDEST DUP3 MSTORE POP POP JUMP JUMPDEST PUSH0 PUSH2 0x2987 PUSH1 0x20 DUP5 ADD DUP5 PUSH2 0x1B0B JUMP JUMPDEST SWAP1 POP SWAP3 SWAP2 POP POP JUMP JUMPDEST PUSH2 0x2998 DUP2 PUSH2 0x1AE6 JUMP JUMPDEST DUP3 MSTORE POP POP JUMP JUMPDEST PUSH0 PUSH2 0x29AC PUSH1 0x20 DUP5 ADD DUP5 PUSH2 0x1C3D JUMP JUMPDEST SWAP1 POP SWAP3 SWAP2 POP POP JUMP JUMPDEST PUSH2 0x29BD DUP2 PUSH2 0x1C1C JUMP JUMPDEST DUP3 MSTORE POP POP JUMP JUMPDEST PUSH2 0x1C0 DUP3 ADD PUSH2 0x29D4 PUSH0 DUP4 ADD DUP4 PUSH2 0x292F JUMP JUMPDEST PUSH2 0x29E0 PUSH0 DUP6 ADD DUP3 PUSH2 0x2945 JUMP JUMPDEST POP PUSH2 0x29EE PUSH1 0x20 DUP4 ADD DUP4 PUSH2 0x292F JUMP JUMPDEST PUSH2 0x29FB PUSH1 0x20 DUP6 ADD DUP3 PUSH2 0x2945 JUMP JUMPDEST POP PUSH2 0x2A09 PUSH1 0x40 DUP4 ADD DUP4 PUSH2 0x2954 JUMP JUMPDEST PUSH2 0x2A16 PUSH1 0x40 DUP6 ADD DUP3 PUSH2 0x296A JUMP JUMPDEST POP PUSH2 0x2A24 PUSH1 0x60 DUP4 ADD DUP4 PUSH2 0x2954 JUMP JUMPDEST PUSH2 0x2A31 PUSH1 0x60 DUP6 ADD DUP3 PUSH2 0x296A JUMP JUMPDEST POP PUSH2 0x2A3F PUSH1 0x80 DUP4 ADD DUP4 PUSH2 0x2979 JUMP JUMPDEST PUSH2 0x2A4C PUSH1 0x80 DUP6 ADD DUP3 PUSH2 0x298F JUMP JUMPDEST POP PUSH2 0x2A5A PUSH1 0xA0 DUP4 ADD DUP4 PUSH2 0x2979 JUMP JUMPDEST PUSH2 0x2A67 PUSH1 0xA0 DUP6 ADD DUP3 PUSH2 0x298F JUMP JUMPDEST POP PUSH2 0x2A75 PUSH1 0xC0 DUP4 ADD DUP4 PUSH2 0x2954 JUMP JUMPDEST PUSH2 0x2A82 PUSH1 0xC0 DUP6 ADD DUP3 PUSH2 0x296A JUMP JUMPDEST POP PUSH2 0x2A90 PUSH1 0xE0 DUP4 ADD DUP4 PUSH2 0x292F JUMP JUMPDEST PUSH2 0x2A9D PUSH1 0xE0 DUP6 ADD DUP3 PUSH2 0x2945 JUMP JUMPDEST POP PUSH2 0x2AAC PUSH2 0x100 DUP4 ADD DUP4 PUSH2 0x292F JUMP JUMPDEST PUSH2 0x2ABA PUSH2 0x100 DUP6 ADD DUP3 PUSH2 0x2945 JUMP JUMPDEST POP PUSH2 0x2AC9 PUSH2 0x120 DUP4 ADD DUP4 PUSH2 0x292F JUMP JUMPDEST PUSH2 0x2AD7 PUSH2 0x120 DUP6 ADD DUP3 PUSH2 0x2945 JUMP JUMPDEST POP PUSH2 0x2AE6 PUSH2 0x140 DUP4 ADD DUP4 PUSH2 0x2954 JUMP JUMPDEST PUSH2 0x2AF4 PUSH2 0x140 DUP6 ADD DUP3 PUSH2 0x296A JUMP JUMPDEST POP PUSH2 0x2B03 PUSH2 0x160 DUP4 ADD DUP4 PUSH2 0x2954 JUMP JUMPDEST PUSH2 0x2B11 PUSH2 0x160 DUP6 ADD DUP3 PUSH2 0x296A JUMP JUMPDEST POP PUSH2 0x2B20 PUSH2 0x180 DUP4 ADD DUP4 PUSH2 0x2979 JUMP JUMPDEST PUSH2 0x2B2E PUSH2 0x180 DUP6 ADD DUP3 PUSH2 0x298F JUMP JUMPDEST POP PUSH2 0x2B3D PUSH2 0x1A0 DUP4 ADD DUP4 PUSH2 0x299E JUMP JUMPDEST PUSH2 0x2B4B PUSH2 0x1A0 DUP6 ADD DUP3 PUSH2 0x29B4 JUMP JUMPDEST POP POP POP POP JUMP JUMPDEST PUSH0 PUSH2 0x1E0 DUP3 ADD SWAP1 POP PUSH2 0x2B65 PUSH0 DUP4 ADD DUP6 PUSH2 0x29C3 JUMP JUMPDEST PUSH2 0x2B73 PUSH2 0x1C0 DUP4 ADD DUP5 PUSH2 0x22B3 JUMP JUMPDEST SWAP4 SWAP3 POP POP POP JUMP JUMPDEST PUSH0 DUP1 PUSH2 0x1E0 DUP4 DUP6 SUB SLT ISZERO PUSH2 0x2B91 JUMPI PUSH2 0x2B90 PUSH2 0x18CE JUMP JUMPDEST JUMPDEST PUSH0 PUSH2 0x2B9E DUP6 DUP3 DUP7 ADD PUSH2 0x1C51 JUMP JUMPDEST SWAP3 POP POP PUSH2 0x1C0 PUSH2 0x2BB0 DUP6 DUP3 DUP7 ADD PUSH2 0x2848 JUMP JUMPDEST SWAP2 POP POP SWAP3 POP SWAP3 SWAP1 POP JUMP JUMPDEST PUSH2 0x2BC3 DUP2 PUSH2 0x18F8 JUMP JUMPDEST DUP3 MSTORE POP POP JUMP JUMPDEST PUSH0 DUP3 DUP3 MSTORE PUSH1 0x20 DUP3 ADD SWAP1 POP SWAP3 SWAP2 POP POP JUMP JUMPDEST PUSH0 PUSH2 0x2BE3 DUP3 PUSH2 0x203C JUMP JUMPDEST PUSH2 0x2BED DUP2 DUP6 PUSH2 0x2BC9 JUMP JUMPDEST SWAP4 POP PUSH2 0x2BFD DUP2 DUP6 PUSH1 0x20 DUP7 ADD PUSH2 0x2056 JUMP JUMPDEST PUSH2 0x2C06 DUP2 PUSH2 0x1B61 JUMP JUMPDEST DUP5 ADD SWAP2 POP POP SWAP3 SWAP2 POP POP JUMP JUMPDEST PUSH0 PUSH1 0xA0 DUP4 ADD PUSH0 DUP4 ADD MLOAD PUSH2 0x2C26 PUSH0 DUP7 ADD DUP3 PUSH2 0x298F JUMP JUMPDEST POP PUSH1 0x20 DUP4 ADD MLOAD PUSH2 0x2C39 PUSH1 0x20 DUP7 ADD DUP3 PUSH2 0x2BBA JUMP JUMPDEST POP PUSH1 0x40 DUP4 ADD MLOAD DUP5 DUP3 SUB PUSH1 0x40 DUP7 ADD MSTORE PUSH2 0x2C51 DUP3 DUP3 PUSH2 0x2BD9 JUMP JUMPDEST SWAP2 POP POP PUSH1 0x60 DUP4 ADD MLOAD DUP5 DUP3 SUB PUSH1 0x60 DUP7 ADD MSTORE PUSH2 0x2C6B DUP3 DUP3 PUSH2 0x2BD9 JUMP JUMPDEST SWAP2 POP POP PUSH1 0x80 DUP4 ADD MLOAD PUSH2 0x2C80 PUSH1 0x80 DUP7 ADD DUP3 PUSH2 0x29B4 JUMP JUMPDEST POP DUP1 SWAP2 POP POP SWAP3 SWAP2 POP POP JUMP JUMPDEST PUSH0 PUSH1 0x40 DUP3 ADD SWAP1 POP DUP2 DUP2 SUB PUSH0 DUP4 ADD MSTORE PUSH2 0x2CA3 DUP2 DUP6 PUSH2 0x2C11 JUMP JUMPDEST SWAP1 POP PUSH2 0x2CB2 PUSH1 0x20 DUP4 ADD DUP5 PUSH2 0x22B3 JUMP JUMPDEST SWAP4 SWAP3 POP POP POP JUMP JUMPDEST PUSH0 DUP2 MLOAD SWAP1 POP PUSH2 0x2CC7 DUP2 PUSH2 0x1901 JUMP JUMPDEST SWAP3 SWAP2 POP POP JUMP JUMPDEST PUSH2 0x2CD6 DUP2 PUSH2 0x1A9D JUMP JUMPDEST DUP2 EQ PUSH2 0x2CE0 JUMPI PUSH0 DUP1 REVERT JUMPDEST POP JUMP JUMPDEST PUSH0 DUP2 MLOAD SWAP1 POP PUSH2 0x2CF1 DUP2 PUSH2 0x2CCD JUMP JUMPDEST SWAP3 SWAP2 POP POP JUMP JUMPDEST PUSH0 PUSH1 0x40 DUP3 DUP5 SUB SLT ISZERO PUSH2 0x2D0C JUMPI PUSH2 0x2D0B PUSH2 0x1B5D JUMP JUMPDEST JUMPDEST PUSH2 0x2D16 PUSH1 0x40 PUSH2 0x1BCF JUMP JUMPDEST SWAP1 POP PUSH0 PUSH2 0x2D25 DUP5 DUP3 DUP6 ADD PUSH2 0x2686 JUMP JUMPDEST PUSH0 DUP4 ADD MSTORE POP PUSH1 0x20 PUSH2 0x2D38 DUP5 DUP3 DUP6 ADD PUSH2 0x2686 JUMP JUMPDEST PUSH1 0x20 DUP4 ADD MSTORE POP SWAP3 SWAP2 POP POP JUMP JUMPDEST PUSH0 PUSH1 0x80 DUP3 DUP5 SUB SLT ISZERO PUSH2 0x2D59 JUMPI PUSH2 0x2D58 PUSH2 0x1B5D JUMP JUMPDEST JUMPDEST PUSH2 0x2D63 PUSH1 0x60 PUSH2 0x1BCF JUMP JUMPDEST SWAP1 POP PUSH0 PUSH2 0x2D72 DUP5 DUP3 DUP6 ADD PUSH2 0x2CB9 JUMP JUMPDEST PUSH0 DUP4 ADD MSTORE POP PUSH1 0x20 PUSH2 0x2D85 DUP5 DUP3 DUP6 ADD PUSH2 0x2CE3 JUMP JUMPDEST PUSH1 0x20 DUP4 ADD MSTORE POP PUSH1 0x40 PUSH2 0x2D99 DUP5 DUP3 DUP6 ADD PUSH2 0x2CF7 JUMP JUMPDEST PUSH1 0x40 DUP4 ADD MSTORE POP SWAP3 SWAP2 POP POP JUMP JUMPDEST PUSH0 PUSH1 0x80 DUP3 DUP5 SUB SLT ISZERO PUSH2 0x2DBA JUMPI PUSH2 0x2DB9 PUSH2 0x18CE JUMP JUMPDEST JUMPDEST PUSH0 PUSH2 0x2DC7 DUP5 DUP3 DUP6 ADD PUSH2 0x2D44 JUMP JUMPDEST SWAP2 POP POP SWAP3 SWAP2 POP POP JUMP JUMPDEST PUSH0 PUSH1 0x40 DUP3 DUP5 SUB SLT ISZERO PUSH2 0x2DE5 JUMPI PUSH2 0x2DE4 PUSH2 0x18CE JUMP JUMPDEST JUMPDEST PUSH0 PUSH2 0x2DF2 DUP5 DUP3 DUP6 ADD PUSH2 0x2CF7 JUMP JUMPDEST SWAP2 POP POP SWAP3 SWAP2 POP POP JUMP JUMPDEST PUSH0 DUP2 MLOAD SWAP1 POP PUSH2 0x2E09 DUP2 PUSH2 0x19BC JUMP JUMPDEST SWAP3 SWAP2 POP POP JUMP JUMPDEST PUSH0 PUSH1 0x20 DUP3 DUP5 SUB SLT ISZERO PUSH2 0x2E24 JUMPI PUSH2 0x2E23 PUSH2 0x18CE JUMP JUMPDEST JUMPDEST PUSH0 PUSH2 0x2E31 DUP5 DUP3 DUP6 ADD PUSH2 0x2DFB JUMP JUMPDEST SWAP2 POP POP SWAP3 SWAP2 POP POP JUMP INVALID LOG2 PUSH5 0x6970667358 0x22 SLT KECCAK256 0xF7 SWAP3 PUSH1 0x11 0xAB PUSH9 0x4A9F975874EA11E3F5 SWAP2 0x4A 0xBE 0xDE 0x5E 0x2E LT 0xDC 0x2A NOT 0x2A 0xE0 SWAP16 SELFDESTRUCT SWAP14 0xE5 PUSH4 0x64736F6C PUSH4 0x43000816 STOP CALLER "},"methodIdentifiers":{"SolverDAOdsteID()":"847a0d04","allowInitializePath((uint32,bytes32,uint64))":"ff7bd03d","data()":"73d4a13a","defaultOption()":"72d71322","endpoint()":"5e280f11","fill((address,address,uint256,uint256,uint32,uint32,uint256,address,address,address,uint256,uint256,uint32,bool),bytes)":"959a2492","fill(bytes32,bytes,bytes)":"82e2c43f","getOrderStatus(uint256)":"45fa8aae","initiate((address,address,uint256,uint256,uint32,uint32,uint256,address,address,address,uint256,uint256,uint32,bool),bytes)":"34788760","initiate((address,address,uint256,uint256,uint32,uint32,uint256,address,address,address,uint256,uint256,uint32,bool),bytes,bytes)":"b6ae815a","isComposeMsgSender((uint32,bytes32,uint64),bytes,address)":"82413eac","lzReceive((uint32,bytes32,uint64),bytes32,bytes,address,bytes)":"13137d65","nextNonce(uint32,bytes32)":"7d25a05e","oAppVersion()":"17442b70","owner()":"8da5cb5b","peers(uint32)":"bb0b6a53","quote(uint32,string,bool)":"fbea2e91","renounceOwnership()":"715018a6","send(uint32,uint256)":"4dc62645","setDelegate(address)":"ca5eb5e1","setPeer(uint32,bytes32)":"3400288b","setPeerWithAddress(uint32,address)":"bcf69541","transferOwnership(address)":"f2fde38b","withdraw(address)":"51cff8d9"}}}}}