{"contracts/ERC7683.sol":{"ERC7683":{"abi":[{"inputs":[{"internalType":"bytes32","name":"orderId","type":"bytes32"},{"internalType":"bytes","name":"originData","type":"bytes"},{"internalType":"bytes","name":"fillerData","type":"bytes"}],"name":"fill","outputs":[],"stateMutability":"pure","type":"function"},{"inputs":[{"components":[{"internalType":"address","name":"originSettler","type":"address"},{"internalType":"address","name":"user","type":"address"},{"internalType":"uint256","name":"nonce","type":"uint256"},{"internalType":"uint256","name":"originChainId","type":"uint256"},{"internalType":"uint32","name":"openDeadline","type":"uint32"},{"internalType":"uint32","name":"fillDeadline","type":"uint32"},{"internalType":"uint256","name":"orderDataType","type":"uint256"},{"internalType":"address","name":"destinationChain","type":"address"},{"internalType":"address","name":"SourceToken","type":"address"},{"internalType":"address","name":"DestinationToken","type":"address"},{"internalType":"uint256","name":"tokenAmount","type":"uint256"},{"internalType":"uint256","name":"destinationTokenAmount","type":"uint256"},{"internalType":"uint32","name":"destinationChainId","type":"uint32"},{"internalType":"bool","name":"isVerifyMessage","type":"bool"}],"internalType":"struct ERC7683.GaslessCrossChainOrder","name":"order","type":"tuple"},{"internalType":"bytes","name":"fillerData","type":"bytes"}],"name":"initiate","outputs":[],"stateMutability":"pure","type":"function"}],"evm":{"bytecode":{"linkReferences":{},"object":"608060405234801561000f575f80fd5b506105c58061001d5f395ff3fe608060405234801561000f575f80fd5b5060043610610034575f3560e01c8063347887601461003857806382e2c43f14610054575b5f80fd5b610052600480360381019061004d9190610412565b610070565b005b61006e600480360381019061006991906104fe565b610074565b005b5050565b5050505050565b5f604051905090565b5f80fd5b5f80fd5b5f80fd5b5f601f19601f8301169050919050565b7f4e487b71000000000000000000000000000000000000000000000000000000005f52604160045260245ffd5b6100d682610090565b810181811067ffffffffffffffff821117156100f5576100f46100a0565b5b80604052505050565b5f61010761007b565b905061011382826100cd565b919050565b5f73ffffffffffffffffffffffffffffffffffffffff82169050919050565b5f61014182610118565b9050919050565b61015181610137565b811461015b575f80fd5b50565b5f8135905061016c81610148565b92915050565b5f819050919050565b61018481610172565b811461018e575f80fd5b50565b5f8135905061019f8161017b565b92915050565b5f63ffffffff82169050919050565b6101bd816101a5565b81146101c7575f80fd5b50565b5f813590506101d8816101b4565b92915050565b5f8115159050919050565b6101f2816101de565b81146101fc575f80fd5b50565b5f8135905061020d816101e9565b92915050565b5f6101c082840312156102295761022861008c565b5b6102346101c06100fe565b90505f6102438482850161015e565b5f8301525060206102568482850161015e565b602083015250604061026a84828501610191565b604083015250606061027e84828501610191565b6060830152506080610292848285016101ca565b60808301525060a06102a6848285016101ca565b60a08301525060c06102ba84828501610191565b60c08301525060e06102ce8482850161015e565b60e0830152506101006102e38482850161015e565b610100830152506101206102f98482850161015e565b6101208301525061014061030f84828501610191565b6101408301525061016061032584828501610191565b6101608301525061018061033b848285016101ca565b610180830152506101a0610351848285016101ff565b6101a08301525092915050565b5f80fd5b5f80fd5b5f67ffffffffffffffff8211156103805761037f6100a0565b5b61038982610090565b9050602081019050919050565b828183375f83830152505050565b5f6103b66103b184610366565b6100fe565b9050828152602081018484840111156103d2576103d1610362565b5b6103dd848285610396565b509392505050565b5f82601f8301126103f9576103f861035e565b5b81356104098482602086016103a4565b91505092915050565b5f806101e0838503121561042957610428610084565b5b5f61043685828601610213565b9250506101c083013567ffffffffffffffff81111561045857610457610088565b5b610464858286016103e5565b9150509250929050565b5f819050919050565b6104808161046e565b811461048a575f80fd5b50565b5f8135905061049b81610477565b92915050565b5f80fd5b5f80fd5b5f8083601f8401126104be576104bd61035e565b5b8235905067ffffffffffffffff8111156104db576104da6104a1565b5b6020830191508360018202830111156104f7576104f66104a5565b5b9250929050565b5f805f805f6060868803121561051757610516610084565b5b5f6105248882890161048d565b955050602086013567ffffffffffffffff81111561054557610544610088565b5b610551888289016104a9565b9450945050604086013567ffffffffffffffff81111561057457610573610088565b5b610580888289016104a9565b9250925050929550929590935056fea2646970667358221220332f2822bd159486e285bd090950e9300c7c048e493a9ec4906cd7524cd210da64736f6c63430008160033","opcodes":"PUSH1 0x80 PUSH1 0x40 MSTORE CALLVALUE DUP1 ISZERO PUSH2 0xF JUMPI PUSH0 DUP1 REVERT JUMPDEST POP PUSH2 0x5C5 DUP1 PUSH2 0x1D PUSH0 CODECOPY PUSH0 RETURN INVALID PUSH1 0x80 PUSH1 0x40 MSTORE CALLVALUE DUP1 ISZERO PUSH2 0xF JUMPI PUSH0 DUP1 REVERT JUMPDEST POP PUSH1 0x4 CALLDATASIZE LT PUSH2 0x34 JUMPI PUSH0 CALLDATALOAD PUSH1 0xE0 SHR DUP1 PUSH4 0x34788760 EQ PUSH2 0x38 JUMPI DUP1 PUSH4 0x82E2C43F EQ PUSH2 0x54 JUMPI JUMPDEST PUSH0 DUP1 REVERT JUMPDEST PUSH2 0x52 PUSH1 0x4 DUP1 CALLDATASIZE SUB DUP2 ADD SWAP1 PUSH2 0x4D SWAP2 SWAP1 PUSH2 0x412 JUMP JUMPDEST PUSH2 0x70 JUMP JUMPDEST STOP JUMPDEST PUSH2 0x6E PUSH1 0x4 DUP1 CALLDATASIZE SUB DUP2 ADD SWAP1 PUSH2 0x69 SWAP2 SWAP1 PUSH2 0x4FE JUMP JUMPDEST PUSH2 0x74 JUMP JUMPDEST STOP JUMPDEST POP POP JUMP JUMPDEST POP POP POP POP POP JUMP JUMPDEST PUSH0 PUSH1 0x40 MLOAD SWAP1 POP SWAP1 JUMP JUMPDEST PUSH0 DUP1 REVERT JUMPDEST PUSH0 DUP1 REVERT JUMPDEST PUSH0 DUP1 REVERT JUMPDEST PUSH0 PUSH1 0x1F NOT PUSH1 0x1F DUP4 ADD AND SWAP1 POP SWAP2 SWAP1 POP JUMP JUMPDEST PUSH32 0x4E487B7100000000000000000000000000000000000000000000000000000000 PUSH0 MSTORE PUSH1 0x41 PUSH1 0x4 MSTORE PUSH1 0x24 PUSH0 REVERT JUMPDEST PUSH2 0xD6 DUP3 PUSH2 0x90 JUMP JUMPDEST DUP2 ADD DUP2 DUP2 LT PUSH8 0xFFFFFFFFFFFFFFFF DUP3 GT OR ISZERO PUSH2 0xF5 JUMPI PUSH2 0xF4 PUSH2 0xA0 JUMP JUMPDEST JUMPDEST DUP1 PUSH1 0x40 MSTORE POP POP POP JUMP JUMPDEST PUSH0 PUSH2 0x107 PUSH2 0x7B JUMP JUMPDEST SWAP1 POP PUSH2 0x113 DUP3 DUP3 PUSH2 0xCD JUMP JUMPDEST SWAP2 SWAP1 POP JUMP JUMPDEST PUSH0 PUSH20 0xFFFFFFFFFFFFFFFFFFFFFFFFFFFFFFFFFFFFFFFF DUP3 AND SWAP1 POP SWAP2 SWAP1 POP JUMP JUMPDEST PUSH0 PUSH2 0x141 DUP3 PUSH2 0x118 JUMP JUMPDEST SWAP1 POP SWAP2 SWAP1 POP JUMP JUMPDEST PUSH2 0x151 DUP2 PUSH2 0x137 JUMP JUMPDEST DUP2 EQ PUSH2 0x15B JUMPI PUSH0 DUP1 REVERT JUMPDEST POP JUMP JUMPDEST PUSH0 DUP2 CALLDATALOAD SWAP1 POP PUSH2 0x16C DUP2 PUSH2 0x148 JUMP JUMPDEST SWAP3 SWAP2 POP POP JUMP JUMPDEST PUSH0 DUP2 SWAP1 POP SWAP2 SWAP1 POP JUMP JUMPDEST PUSH2 0x184 DUP2 PUSH2 0x172 JUMP JUMPDEST DUP2 EQ PUSH2 0x18E JUMPI PUSH0 DUP1 REVERT JUMPDEST POP JUMP JUMPDEST PUSH0 DUP2 CALLDATALOAD SWAP1 POP PUSH2 0x19F DUP2 PUSH2 0x17B JUMP JUMPDEST SWAP3 SWAP2 POP POP JUMP JUMPDEST PUSH0 PUSH4 0xFFFFFFFF DUP3 AND SWAP1 POP SWAP2 SWAP1 POP JUMP JUMPDEST PUSH2 0x1BD DUP2 PUSH2 0x1A5 JUMP JUMPDEST DUP2 EQ PUSH2 0x1C7 JUMPI PUSH0 DUP1 REVERT JUMPDEST POP JUMP JUMPDEST PUSH0 DUP2 CALLDATALOAD SWAP1 POP PUSH2 0x1D8 DUP2 PUSH2 0x1B4 JUMP JUMPDEST SWAP3 SWAP2 POP POP JUMP JUMPDEST PUSH0 DUP2 ISZERO ISZERO SWAP1 POP SWAP2 SWAP1 POP JUMP JUMPDEST PUSH2 0x1F2 DUP2 PUSH2 0x1DE JUMP JUMPDEST DUP2 EQ PUSH2 0x1FC JUMPI PUSH0 DUP1 REVERT JUMPDEST POP JUMP JUMPDEST PUSH0 DUP2 CALLDATALOAD SWAP1 POP PUSH2 0x20D DUP2 PUSH2 0x1E9 JUMP JUMPDEST SWAP3 SWAP2 POP POP JUMP JUMPDEST PUSH0 PUSH2 0x1C0 DUP3 DUP5 SUB SLT ISZERO PUSH2 0x229 JUMPI PUSH2 0x228 PUSH2 0x8C JUMP JUMPDEST JUMPDEST PUSH2 0x234 PUSH2 0x1C0 PUSH2 0xFE JUMP JUMPDEST SWAP1 POP PUSH0 PUSH2 0x243 DUP5 DUP3 DUP6 ADD PUSH2 0x15E JUMP JUMPDEST PUSH0 DUP4 ADD MSTORE POP PUSH1 0x20 PUSH2 0x256 DUP5 DUP3 DUP6 ADD PUSH2 0x15E JUMP JUMPDEST PUSH1 0x20 DUP4 ADD MSTORE POP PUSH1 0x40 PUSH2 0x26A DUP5 DUP3 DUP6 ADD PUSH2 0x191 JUMP JUMPDEST PUSH1 0x40 DUP4 ADD MSTORE POP PUSH1 0x60 PUSH2 0x27E DUP5 DUP3 DUP6 ADD PUSH2 0x191 JUMP JUMPDEST PUSH1 0x60 DUP4 ADD MSTORE POP PUSH1 0x80 PUSH2 0x292 DUP5 DUP3 DUP6 ADD PUSH2 0x1CA JUMP JUMPDEST PUSH1 0x80 DUP4 ADD MSTORE POP PUSH1 0xA0 PUSH2 0x2A6 DUP5 DUP3 DUP6 ADD PUSH2 0x1CA JUMP JUMPDEST PUSH1 0xA0 DUP4 ADD MSTORE POP PUSH1 0xC0 PUSH2 0x2BA DUP5 DUP3 DUP6 ADD PUSH2 0x191 JUMP JUMPDEST PUSH1 0xC0 DUP4 ADD MSTORE POP PUSH1 0xE0 PUSH2 0x2CE DUP5 DUP3 DUP6 ADD PUSH2 0x15E JUMP JUMPDEST PUSH1 0xE0 DUP4 ADD MSTORE POP PUSH2 0x100 PUSH2 0x2E3 DUP5 DUP3 DUP6 ADD PUSH2 0x15E JUMP JUMPDEST PUSH2 0x100 DUP4 ADD MSTORE POP PUSH2 0x120 PUSH2 0x2F9 DUP5 DUP3 DUP6 ADD PUSH2 0x15E JUMP JUMPDEST PUSH2 0x120 DUP4 ADD MSTORE POP PUSH2 0x140 PUSH2 0x30F DUP5 DUP3 DUP6 ADD PUSH2 0x191 JUMP JUMPDEST PUSH2 0x140 DUP4 ADD MSTORE POP PUSH2 0x160 PUSH2 0x325 DUP5 DUP3 DUP6 ADD PUSH2 0x191 JUMP JUMPDEST PUSH2 0x160 DUP4 ADD MSTORE POP PUSH2 0x180 PUSH2 0x33B DUP5 DUP3 DUP6 ADD PUSH2 0x1CA JUMP JUMPDEST PUSH2 0x180 DUP4 ADD MSTORE POP PUSH2 0x1A0 PUSH2 0x351 DUP5 DUP3 DUP6 ADD PUSH2 0x1FF JUMP JUMPDEST PUSH2 0x1A0 DUP4 ADD MSTORE POP SWAP3 SWAP2 POP POP JUMP JUMPDEST PUSH0 DUP1 REVERT JUMPDEST PUSH0 DUP1 REVERT JUMPDEST PUSH0 PUSH8 0xFFFFFFFFFFFFFFFF DUP3 GT ISZERO PUSH2 0x380 JUMPI PUSH2 0x37F PUSH2 0xA0 JUMP JUMPDEST JUMPDEST PUSH2 0x389 DUP3 PUSH2 0x90 JUMP JUMPDEST SWAP1 POP PUSH1 0x20 DUP2 ADD SWAP1 POP SWAP2 SWAP1 POP JUMP JUMPDEST DUP3 DUP2 DUP4 CALLDATACOPY PUSH0 DUP4 DUP4 ADD MSTORE POP POP POP JUMP JUMPDEST PUSH0 PUSH2 0x3B6 PUSH2 0x3B1 DUP5 PUSH2 0x366 JUMP JUMPDEST PUSH2 0xFE JUMP JUMPDEST SWAP1 POP DUP3 DUP2 MSTORE PUSH1 0x20 DUP2 ADD DUP5 DUP5 DUP5 ADD GT ISZERO PUSH2 0x3D2 JUMPI PUSH2 0x3D1 PUSH2 0x362 JUMP JUMPDEST JUMPDEST PUSH2 0x3DD DUP5 DUP3 DUP6 PUSH2 0x396 JUMP JUMPDEST POP SWAP4 SWAP3 POP POP POP JUMP JUMPDEST PUSH0 DUP3 PUSH1 0x1F DUP4 ADD SLT PUSH2 0x3F9 JUMPI PUSH2 0x3F8 PUSH2 0x35E JUMP JUMPDEST JUMPDEST DUP2 CALLDATALOAD PUSH2 0x409 DUP5 DUP3 PUSH1 0x20 DUP7 ADD PUSH2 0x3A4 JUMP JUMPDEST SWAP2 POP POP SWAP3 SWAP2 POP POP JUMP JUMPDEST PUSH0 DUP1 PUSH2 0x1E0 DUP4 DUP6 SUB SLT ISZERO PUSH2 0x429 JUMPI PUSH2 0x428 PUSH2 0x84 JUMP JUMPDEST JUMPDEST PUSH0 PUSH2 0x436 DUP6 DUP3 DUP7 ADD PUSH2 0x213 JUMP JUMPDEST SWAP3 POP POP PUSH2 0x1C0 DUP4 ADD CALLDATALOAD PUSH8 0xFFFFFFFFFFFFFFFF DUP2 GT ISZERO PUSH2 0x458 JUMPI PUSH2 0x457 PUSH2 0x88 JUMP JUMPDEST JUMPDEST PUSH2 0x464 DUP6 DUP3 DUP7 ADD PUSH2 0x3E5 JUMP JUMPDEST SWAP2 POP POP SWAP3 POP SWAP3 SWAP1 POP JUMP JUMPDEST PUSH0 DUP2 SWAP1 POP SWAP2 SWAP1 POP JUMP JUMPDEST PUSH2 0x480 DUP2 PUSH2 0x46E JUMP JUMPDEST DUP2 EQ PUSH2 0x48A JUMPI PUSH0 DUP1 REVERT JUMPDEST POP JUMP JUMPDEST PUSH0 DUP2 CALLDATALOAD SWAP1 POP PUSH2 0x49B DUP2 PUSH2 0x477 JUMP JUMPDEST SWAP3 SWAP2 POP POP JUMP JUMPDEST PUSH0 DUP1 REVERT JUMPDEST PUSH0 DUP1 REVERT JUMPDEST PUSH0 DUP1 DUP4 PUSH1 0x1F DUP5 ADD SLT PUSH2 0x4BE JUMPI PUSH2 0x4BD PUSH2 0x35E JUMP JUMPDEST JUMPDEST DUP3 CALLDATALOAD SWAP1 POP PUSH8 0xFFFFFFFFFFFFFFFF DUP2 GT ISZERO PUSH2 0x4DB JUMPI PUSH2 0x4DA PUSH2 0x4A1 JUMP JUMPDEST JUMPDEST PUSH1 0x20 DUP4 ADD SWAP2 POP DUP4 PUSH1 0x1 DUP3 MUL DUP4 ADD GT ISZERO PUSH2 0x4F7 JUMPI PUSH2 0x4F6 PUSH2 0x4A5 JUMP JUMPDEST JUMPDEST SWAP3 POP SWAP3 SWAP1 POP JUMP JUMPDEST PUSH0 DUP1 PUSH0 DUP1 PUSH0 PUSH1 0x60 DUP7 DUP9 SUB SLT ISZERO PUSH2 0x517 JUMPI PUSH2 0x516 PUSH2 0x84 JUMP JUMPDEST JUMPDEST PUSH0 PUSH2 0x524 DUP9 DUP3 DUP10 ADD PUSH2 0x48D JUMP JUMPDEST SWAP6 POP POP PUSH1 0x20 DUP7 ADD CALLDATALOAD PUSH8 0xFFFFFFFFFFFFFFFF DUP2 GT ISZERO PUSH2 0x545 JUMPI PUSH2 0x544 PUSH2 0x88 JUMP JUMPDEST JUMPDEST PUSH2 0x551 DUP9 DUP3 DUP10 ADD PUSH2 0x4A9 JUMP JUMPDEST SWAP5 POP SWAP5 POP POP PUSH1 0x40 DUP7 ADD CALLDATALOAD PUSH8 0xFFFFFFFFFFFFFFFF DUP2 GT ISZERO PUSH2 0x574 JUMPI PUSH2 0x573 PUSH2 0x88 JUMP JUMPDEST JUMPDEST PUSH2 0x580 DUP9 DUP3 DUP10 ADD PUSH2 0x4A9 JUMP JUMPDEST SWAP3 POP SWAP3 POP POP SWAP3 SWAP6 POP SWAP3 SWAP6 SWAP1 SWAP4 POP JUMP INVALID LOG2 PUSH5 0x6970667358 0x22 SLT KECCAK256 CALLER 0x2F 0x28 0x22 0xBD ISZERO SWAP5 DUP7 0xE2 DUP6 0xBD MULMOD MULMOD POP 0xE9 ADDRESS 0xC PUSH29 0x48E493A9EC4906CD7524CD210DA64736F6C6343000816003300000000 "},"methodIdentifiers":{"fill(bytes32,bytes,bytes)":"82e2c43f","initiate((address,address,uint256,uint256,uint32,uint32,uint256,address,address,address,uint256,uint256,uint32,bool),bytes)":"34788760"}}}}}